{
  "contractName": "KittyContract",
  "abi": [
    {
      "anonymous": false,
      "inputs": [
        {
          "indexed": true,
          "internalType": "address",
          "name": "owner",
          "type": "address"
        },
        {
          "indexed": true,
          "internalType": "address",
          "name": "approved",
          "type": "address"
        },
        {
          "indexed": true,
          "internalType": "uint256",
          "name": "tokenId",
          "type": "uint256"
        }
      ],
      "name": "Approval",
      "type": "event"
    },
    {
      "anonymous": false,
      "inputs": [
        {
          "indexed": false,
          "internalType": "address",
          "name": "owner",
          "type": "address"
        },
        {
          "indexed": false,
          "internalType": "uint256",
          "name": "kittenId",
          "type": "uint256"
        },
        {
          "indexed": false,
          "internalType": "uint256",
          "name": "mumId",
          "type": "uint256"
        },
        {
          "indexed": false,
          "internalType": "uint256",
          "name": "dadId",
          "type": "uint256"
        },
        {
          "indexed": false,
          "internalType": "uint256",
          "name": "genes",
          "type": "uint256"
        }
      ],
      "name": "Birth",
      "type": "event"
    },
    {
      "anonymous": false,
      "inputs": [
        {
          "indexed": true,
          "internalType": "address",
          "name": "from",
          "type": "address"
        },
        {
          "indexed": true,
          "internalType": "address",
          "name": "to",
          "type": "address"
        },
        {
          "indexed": true,
          "internalType": "uint256",
          "name": "tokenId",
          "type": "uint256"
        }
      ],
      "name": "Transfer",
      "type": "event"
    },
    {
      "inputs": [],
      "name": "CREATION_LIMIT_GEN0",
      "outputs": [
        {
          "internalType": "uint256",
          "name": "",
          "type": "uint256"
        }
      ],
      "stateMutability": "view",
      "type": "function",
      "constant": true
    },
    {
      "inputs": [],
      "name": "_name",
      "outputs": [
        {
          "internalType": "string",
          "name": "",
          "type": "string"
        }
      ],
      "stateMutability": "view",
      "type": "function",
      "constant": true
    },
    {
      "inputs": [],
      "name": "_symbol",
      "outputs": [
        {
          "internalType": "string",
          "name": "",
          "type": "string"
        }
      ],
      "stateMutability": "view",
      "type": "function",
      "constant": true
    },
    {
      "inputs": [],
      "name": "owner",
      "outputs": [
        {
          "internalType": "address",
          "name": "",
          "type": "address"
        }
      ],
      "stateMutability": "view",
      "type": "function",
      "constant": true
    },
    {
      "inputs": [
        {
          "internalType": "uint256",
          "name": "_tokenId",
          "type": "uint256"
        }
      ],
      "name": "getKitty",
      "outputs": [
        {
          "components": [
            {
              "internalType": "uint256",
              "name": "genes",
              "type": "uint256"
            },
            {
              "internalType": "uint64",
              "name": "birthTime",
              "type": "uint64"
            },
            {
              "internalType": "uint32",
              "name": "mumId",
              "type": "uint32"
            },
            {
              "internalType": "uint32",
              "name": "dadId",
              "type": "uint32"
            },
            {
              "internalType": "uint16",
              "name": "generation",
              "type": "uint16"
            }
          ],
          "internalType": "struct KittyContract.Kitty",
          "name": "",
          "type": "tuple"
        },
        {
          "internalType": "address",
          "name": "",
          "type": "address"
        }
      ],
      "stateMutability": "view",
      "type": "function",
      "constant": true
    },
    {
      "inputs": [
        {
          "internalType": "uint256",
          "name": "_genes",
          "type": "uint256"
        }
      ],
      "name": "createKittyGen0",
      "outputs": [
        {
          "internalType": "uint256",
          "name": "",
          "type": "uint256"
        }
      ],
      "stateMutability": "nonpayable",
      "type": "function"
    },
    {
      "inputs": [
        {
          "internalType": "address",
          "name": "owner",
          "type": "address"
        }
      ],
      "name": "balanceOf",
      "outputs": [
        {
          "internalType": "uint256",
          "name": "balance",
          "type": "uint256"
        }
      ],
      "stateMutability": "view",
      "type": "function",
      "constant": true
    },
    {
      "inputs": [],
      "name": "totalSupply",
      "outputs": [
        {
          "internalType": "uint256",
          "name": "total",
          "type": "uint256"
        }
      ],
      "stateMutability": "view",
      "type": "function",
      "constant": true
    },
    {
      "inputs": [],
      "name": "name",
      "outputs": [
        {
          "internalType": "string",
          "name": "",
          "type": "string"
        }
      ],
      "stateMutability": "pure",
      "type": "function",
      "constant": true
    },
    {
      "inputs": [],
      "name": "symbol",
      "outputs": [
        {
          "internalType": "string",
          "name": "tokenSymbol",
          "type": "string"
        }
      ],
      "stateMutability": "pure",
      "type": "function",
      "constant": true
    },
    {
      "inputs": [
        {
          "internalType": "uint256",
          "name": "tokenId",
          "type": "uint256"
        }
      ],
      "name": "ownerOf",
      "outputs": [
        {
          "internalType": "address",
          "name": "owner",
          "type": "address"
        }
      ],
      "stateMutability": "view",
      "type": "function",
      "constant": true
    },
    {
      "inputs": [
        {
          "internalType": "address",
          "name": "to",
          "type": "address"
        },
        {
          "internalType": "uint256",
          "name": "tokenId",
          "type": "uint256"
        }
      ],
      "name": "transfer",
      "outputs": [],
      "stateMutability": "nonpayable",
      "type": "function"
    }
  ],
  "bytecode": "0x608060405234801561001057600080fd5b50336000806101000a81548173ffffffffffffffffffffffffffffffffffffffff021916908373ffffffffffffffffffffffffffffffffffffffff160217905550611570806100606000396000f3fe608060405234801561001057600080fd5b50600436106100b45760003560e01c8063a9059cbb11610071578063a9059cbb14610191578063b09f1266146101ad578063b4834330146101cb578063d28d8852146101e9578063d5a776ca14610207578063e98b7f4d14610237576100b4565b806306fdde03146100b957806318160ddd146100d75780636352211e146100f557806370a08231146101255780638da5cb5b1461015557806395d89b4114610173575b600080fd5b6100c1610268565b6040516100ce9190611216565b60405180910390f35b6100df6102a5565b6040516100ec9190611321565b60405180910390f35b61010f600480360381019061010a9190610eb8565b6102b2565b60405161011c91906111a8565b60405180910390f35b61013f600480360381019061013a9190610e53565b610391565b60405161014c9190611321565b60405180910390f35b61015d6103da565b60405161016a91906111a8565b60405180910390f35b61017b6103fe565b6040516101889190611216565b60405180910390f35b6101ab60048036038101906101a69190610e7c565b61043b565b005b6101b5610572565b6040516101c29190611216565b60405180910390f35b6101d36105ab565b6040516101e09190611321565b60405180910390f35b6101f16105b0565b6040516101fe9190611216565b60405180910390f35b610221600480360381019061021c9190610eb8565b6105e9565b60405161022e9190611321565b60405180910390f35b610251600480360381019061024c9190610eb8565b61070d565b60405161025f9291906112f8565b60405180910390f35b60606040518060400160405280600b81526020017f54616e754b697474696573000000000000000000000000000000000000000000815250905090565b6000600180549050905090565b60008073ffffffffffffffffffffffffffffffffffffffff166003600084815260200190815260200160002060009054906101000a900473ffffffffffffffffffffffffffffffffffffffff1673ffffffffffffffffffffffffffffffffffffffff161415610356576040517f08c379a000000000000000000000000000000000000000000000000000000000815260040161034d90611258565b60405180910390fd5b6003600083815260200190815260200160002060009054906101000a900473ffffffffffffffffffffffffffffffffffffffff169050919050565b6000600260008373ffffffffffffffffffffffffffffffffffffffff1673ffffffffffffffffffffffffffffffffffffffff168152602001908152602001600020549050919050565b60008054906101000a900473ffffffffffffffffffffffffffffffffffffffff1681565b60606040518060400160405280600381526020017f544b540000000000000000000000000000000000000000000000000000000000815250905090565b600073ffffffffffffffffffffffffffffffffffffffff168273ffffffffffffffffffffffffffffffffffffffff1614156104ab576040517f08c379a00000000000000000000000000000000000000000000000000000000081526004016104a290611298565b60405180910390fd5b3073ffffffffffffffffffffffffffffffffffffffff168273ffffffffffffffffffffffffffffffffffffffff16141561051a576040517f08c379a0000000000000000000000000000000000000000000000000000000008152600401610511906112b8565b60405180910390fd5b6105243382610852565b610563576040517f08c379a000000000000000000000000000000000000000000000000000000000815260040161055a90611278565b60405180910390fd5b61056e3383836108be565b5050565b6040518060400160405280600381526020017f544b54000000000000000000000000000000000000000000000000000000000081525081565b600a81565b6040518060400160405280600b81526020017f54616e754b69747469657300000000000000000000000000000000000000000081525081565b60003373ffffffffffffffffffffffffffffffffffffffff1660008054906101000a900473ffffffffffffffffffffffffffffffffffffffff1673ffffffffffffffffffffffffffffffffffffffff1614610679576040517f08c379a0000000000000000000000000000000000000000000000000000000008152600401610670906112d8565b60405180910390fd5b600a600554106106be576040517f08c379a00000000000000000000000000000000000000000000000000000000081526004016106b590611238565b60405180910390fd5b600560008154809291906106d190611483565b91905055506107066000808460008060009054906101000a900473ffffffffffffffffffffffffffffffffffffffff16610c5f565b9050919050565b610715610de0565b600060018381548110610751577f4e487b7100000000000000000000000000000000000000000000000000000000600052603260045260246000fd5b90600052602060002090600202016003600085815260200190815260200160002060009054906101000a900473ffffffffffffffffffffffffffffffffffffffff16816040518060a0016040529081600082015481526020016001820160009054906101000a900467ffffffffffffffff1667ffffffffffffffff1667ffffffffffffffff1681526020016001820160089054906101000a900463ffffffff1663ffffffff1663ffffffff16815260200160018201600c9054906101000a900463ffffffff1663ffffffff1663ffffffff1681526020016001820160109054906101000a900461ffff1661ffff1661ffff1681525050915091509150915091565b60008273ffffffffffffffffffffffffffffffffffffffff166003600084815260200190815260200160002060009054906101000a900473ffffffffffffffffffffffffffffffffffffffff1673ffffffffffffffffffffffffffffffffffffffff1614905092915050565b600073ffffffffffffffffffffffffffffffffffffffff168373ffffffffffffffffffffffffffffffffffffffff1614610af0576001600260008573ffffffffffffffffffffffffffffffffffffffff1673ffffffffffffffffffffffffffffffffffffffff168152602001908152602001600020600082825461094291906113ae565b925050819055506000600460008573ffffffffffffffffffffffffffffffffffffffff1673ffffffffffffffffffffffffffffffffffffffff16815260200190815260200160002090506000818054905090506000805b82811015610a0757848482815481106109db577f4e487b7100000000000000000000000000000000000000000000000000000000600052603260045260246000fd5b906000526020600020015414156109f457809150610a07565b80806109ff90611483565b915050610999565b5082600183610a1691906113ae565b81548110610a4d577f4e487b7100000000000000000000000000000000000000000000000000000000600052603260045260246000fd5b9060005260206000200154838281548110610a91577f4e487b7100000000000000000000000000000000000000000000000000000000600052603260045260246000fd5b906000526020600020018190555082805480610ad6577f4e487b7100000000000000000000000000000000000000000000000000000000600052603160045260246000fd5b600190038181906000526020600020016000905590555050505b6001600260008473ffffffffffffffffffffffffffffffffffffffff1673ffffffffffffffffffffffffffffffffffffffff1681526020019081526020016000206000828254610b409190611358565b92505081905550816003600083815260200190815260200160002060006101000a81548173ffffffffffffffffffffffffffffffffffffffff021916908373ffffffffffffffffffffffffffffffffffffffff160217905550600460008373ffffffffffffffffffffffffffffffffffffffff1673ffffffffffffffffffffffffffffffffffffffff168152602001908152602001600020819080600181540180825580915050600190039060005260206000200160009091909190915055808273ffffffffffffffffffffffffffffffffffffffff168473ffffffffffffffffffffffffffffffffffffffff167fddf252ad1be2c89b69c2b068fc378daa952ba7f163c4a11628f55a4df523b3ef60405160405180910390a4505050565b6000806040518060a001604052808681526020014267ffffffffffffffff1681526020018863ffffffff1681526020018763ffffffff1681526020018561ffff1681525090506000600180549050905060018290806001815401808255809150506001900390600052602060002090600202016000909190919091506000820151816000015560208201518160010160006101000a81548167ffffffffffffffff021916908367ffffffffffffffff16021790555060408201518160010160086101000a81548163ffffffff021916908363ffffffff160217905550606082015181600101600c6101000a81548163ffffffff021916908363ffffffff16021790555060808201518160010160106101000a81548161ffff021916908361ffff16021790555050507f0a5311bd2a6608f08a180df2ee7c5946819a649b204b554bb8e39825b2c50ad584828a8a8a604051610dbe9594939291906111c3565b60405180910390a1610dd2600085836108be565b809250505095945050505050565b6040518060a0016040528060008152602001600067ffffffffffffffff168152602001600063ffffffff168152602001600063ffffffff168152602001600061ffff1681525090565b600081359050610e388161150c565b92915050565b600081359050610e4d81611523565b92915050565b600060208284031215610e6557600080fd5b6000610e7384828501610e29565b91505092915050565b60008060408385031215610e8f57600080fd5b6000610e9d85828601610e29565b9250506020610eae85828601610e3e565b9150509250929050565b600060208284031215610eca57600080fd5b6000610ed884828501610e3e565b91505092915050565b610eea816113e2565b82525050565b6000610efb8261133c565b610f058185611347565b9350610f15818560208601611450565b610f1e816114fb565b840191505092915050565b6000610f36601b83611347565b91507f47656e30206372656174696f6e206c696d6974206578636565647300000000006000830152602082019050919050565b6000610f76602083611347565b91507f546f6b656e2077697468207468697320494420646f65736e27742065786973746000830152602082019050919050565b6000610fb6602283611347565b91507f596f75277265206e6f7420746865206f776e6572206f66207468697320746f6b60008301527f656e0000000000000000000000000000000000000000000000000000000000006020830152604082019050919050565b600061101c602083611347565b91507f52656365697665722063616e206e6f74206265207a65726f20616464726573736000830152602082019050919050565b600061105c602983611347565b91507f596f752063616e2774207472616e7366657220746f6b656e20746f207468697360008301527f20636f6e747261637400000000000000000000000000000000000000000000006020830152604082019050919050565b60006110c2601883611347565b91507f41636365737369626c6520746f206f776e6572206f6e6c7900000000000000006000830152602082019050919050565b60a08201600082015161110b600085018261116c565b50602082015161111e6020850182611199565b506040820151611131604085018261118a565b506060820151611144606085018261118a565b506080820151611157608085018261115d565b50505050565b611166816113f4565b82525050565b61117581611422565b82525050565b61118481611422565b82525050565b6111938161142c565b82525050565b6111a28161143c565b82525050565b60006020820190506111bd6000830184610ee1565b92915050565b600060a0820190506111d86000830188610ee1565b6111e5602083018761117b565b6111f2604083018661117b565b6111ff606083018561117b565b61120c608083018461117b565b9695505050505050565b600060208201905081810360008301526112308184610ef0565b905092915050565b6000602082019050818103600083015261125181610f29565b9050919050565b6000602082019050818103600083015261127181610f69565b9050919050565b6000602082019050818103600083015261129181610fa9565b9050919050565b600060208201905081810360008301526112b18161100f565b9050919050565b600060208201905081810360008301526112d18161104f565b9050919050565b600060208201905081810360008301526112f1816110b5565b9050919050565b600060c08201905061130d60008301856110f5565b61131a60a0830184610ee1565b9392505050565b6000602082019050611336600083018461117b565b92915050565b600081519050919050565b600082825260208201905092915050565b600061136382611422565b915061136e83611422565b9250827fffffffffffffffffffffffffffffffffffffffffffffffffffffffffffffffff038211156113a3576113a26114cc565b5b828201905092915050565b60006113b982611422565b91506113c483611422565b9250828210156113d7576113d66114cc565b5b828203905092915050565b60006113ed82611402565b9050919050565b600061ffff82169050919050565b600073ffffffffffffffffffffffffffffffffffffffff82169050919050565b6000819050919050565b600063ffffffff82169050919050565b600067ffffffffffffffff82169050919050565b60005b8381101561146e578082015181840152602081019050611453565b8381111561147d576000848401525b50505050565b600061148e82611422565b91507fffffffffffffffffffffffffffffffffffffffffffffffffffffffffffffffff8214156114c1576114c06114cc565b5b600182019050919050565b7f4e487b7100000000000000000000000000000000000000000000000000000000600052601160045260246000fd5b6000601f19601f8301169050919050565b611515816113e2565b811461152057600080fd5b50565b61152c81611422565b811461153757600080fd5b5056fea26469706673582212201b109fa3b8c6be382fe45059d63dd74d5abc5ca5cc77bf3654bc80070bbc7e2964736f6c63430008000033",
  "immutableReferences": {},
  "source": "// SPDX-License-Identifier: UNLICENSED\r\npragma solidity >0.4.22 <=0.9.0;\r\nimport './IERC721.sol';\r\nimport './Ownable.sol';\r\n\r\ncontract KittyContract is IERC721,Ownable{\r\n   string public constant _name = \"TanuKitties\";\r\n   string public constant _symbol = \"TKT\";\r\n   uint public constant CREATION_LIMIT_GEN0 = 10;\r\n\r\n   event Birth(address owner, uint kittenId,uint mumId,uint dadId,uint genes);\r\n  \r\n   struct Kitty{\r\n       uint256 genes;\r\n       uint64 birthTime;\r\n       uint32 mumId;\r\n       uint32 dadId;\r\n       uint16 generation;\r\n   }\r\n   Kitty[] kitties;\r\n\r\n   mapping(address => uint)private ownershipTokenCount; //token owner => #tokens\r\n   mapping(uint => address)private tokenOwner; // tokenId => tokenowner\r\n   mapping(address => uint[])ownershipTokenList; // tokenOwner => list of tokenIds\r\n   uint gen0Counter;\r\n   \r\n\r\n   function getKitty(uint _tokenId) public view returns(Kitty memory,address){\r\n      return (kitties[_tokenId],tokenOwner[_tokenId]);\r\n   }\r\n   function createKittyGen0(uint _genes) public onlyOwner returns(uint){\r\n     require(gen0Counter < CREATION_LIMIT_GEN0,'Gen0 creation limit exceeds');\r\n     gen0Counter++;\r\n     return _createKitty(0,0,_genes,0,owner); \r\n   }\r\n\r\n   function _createKitty(uint _mumId,uint _dadId,uint _genes,uint _generation, address _owner) private returns(uint){\r\n     Kitty memory newKitty = Kitty({genes :_genes,\r\n                                    birthTime: uint64(block.timestamp),\r\n                                    mumId: uint32(_mumId),\r\n                                    dadId: uint32(_dadId),\r\n                                    generation: uint16(_generation)});\r\n     uint newID = kitties.length;\r\n     kitties.push(newKitty);\r\n     emit Birth(_owner,newID,_mumId,_dadId,_genes);\r\n     _transfer(address(0),_owner,newID);\r\n\r\n     return newID;\r\n   }\r\n\r\n   function balanceOf(address owner) external view override returns (uint256 balance){\r\n       balance = ownershipTokenCount[owner];\r\n   }\r\n   \r\n   function totalSupply() external view override returns (uint256 total){\r\n      total = kitties.length;\r\n   }\r\n\r\n   function name() external pure override returns (string memory){\r\n      return _name;\r\n   }\r\n\r\n   function symbol() external pure override returns (string memory tokenSymbol){\r\n       tokenSymbol = _symbol;\r\n   }\r\n\r\n   function ownerOf(uint256 tokenId) external view override returns (address owner){\r\n      require(tokenOwner[tokenId] != address(0),\"Token with this ID doesn't exist\");\r\n      owner = tokenOwner[tokenId];\r\n   }\r\n   \r\n   function transfer(address to, uint256 tokenId) external override{\r\n      require(to != address(0),\"Receiver can not be zero address\");\r\n      require(to != address(this),\"You can't transfer token to this contract\");\r\n      require(owns(msg.sender,tokenId),\"You're not the owner of this token\");\r\n      _transfer(msg.sender, to, tokenId);\r\n   }\r\n\r\n   function _transfer(address from, address to, uint tokenId) internal{\r\n       //from\r\n       if(from != address(0)){\r\n        ownershipTokenCount[from] -= 1;\r\n        uint[] storage fromTokens = ownershipTokenList[from];\r\n        uint len = fromTokens.length;\r\n        uint tokenToRemove = 0;\r\n        for(uint i = 0 ; i < len ; i++){\r\n            if(fromTokens[i] == tokenId){\r\n                tokenToRemove = i;\r\n                break;\r\n            }\r\n        }\r\n        fromTokens[tokenToRemove] = fromTokens[len-1];\r\n        fromTokens.pop();\r\n       }\r\n       \r\n       //to\r\n       ownershipTokenCount[to] += 1;\r\n       tokenOwner[tokenId] = to;\r\n       ownershipTokenList[to].push(tokenId);\r\n\r\n       emit Transfer(from,to,tokenId);\r\n   }\r\n\r\n   function owns(address claimant, uint tokenID)internal view returns(bool){\r\n      return (tokenOwner[tokenID] == claimant);\r\n   }\r\n\r\n}",
  "sourcePath": "D:/BlockChain/Ethereum-201/CryptoKitties/academy-kitties-template/contracts/kittyContract.sol",
  "compiler": {
    "name": "solc",
    "version": "0.8.0+commit.c7dfd78e.Emscripten.clang"
  },
  "schemaVersion": "3.4.1",
  "updatedAt": "2021-07-30T21:53:51.009Z",
  "networkType": "ethereum",
  "devdoc": {
    "kind": "dev",
    "methods": {
      "balanceOf(address)": {
        "details": "Returns the number of tokens in ``owner``'s account."
      },
      "ownerOf(uint256)": {
        "details": "Returns the owner of the `tokenId` token. Requirements: - `tokenId` must exist."
      }
    },
    "version": 1
  },
  "userdoc": {
    "kind": "user",
    "methods": {},
    "version": 1
  }
}