{
  "contractName": "KittyContract",
  "abi": [
    {
      "anonymous": false,
      "inputs": [
        {
          "indexed": true,
          "internalType": "address",
          "name": "owner",
          "type": "address"
        },
        {
          "indexed": true,
          "internalType": "address",
          "name": "approved",
          "type": "address"
        },
        {
          "indexed": true,
          "internalType": "uint256",
          "name": "tokenId",
          "type": "uint256"
        }
      ],
      "name": "Approval",
      "type": "event"
    },
    {
      "anonymous": false,
      "inputs": [
        {
          "indexed": true,
          "internalType": "address",
          "name": "owner",
          "type": "address"
        },
        {
          "indexed": true,
          "internalType": "address",
          "name": "operator",
          "type": "address"
        },
        {
          "indexed": false,
          "internalType": "bool",
          "name": "approved",
          "type": "bool"
        }
      ],
      "name": "ApprovalForAll",
      "type": "event"
    },
    {
      "anonymous": false,
      "inputs": [
        {
          "indexed": false,
          "internalType": "address",
          "name": "owner",
          "type": "address"
        },
        {
          "indexed": false,
          "internalType": "uint256",
          "name": "kittenId",
          "type": "uint256"
        },
        {
          "indexed": false,
          "internalType": "uint256",
          "name": "mumId",
          "type": "uint256"
        },
        {
          "indexed": false,
          "internalType": "uint256",
          "name": "dadId",
          "type": "uint256"
        },
        {
          "indexed": false,
          "internalType": "uint256",
          "name": "genes",
          "type": "uint256"
        }
      ],
      "name": "Birth",
      "type": "event"
    },
    {
      "anonymous": false,
      "inputs": [
        {
          "indexed": true,
          "internalType": "address",
          "name": "from",
          "type": "address"
        },
        {
          "indexed": true,
          "internalType": "address",
          "name": "to",
          "type": "address"
        },
        {
          "indexed": true,
          "internalType": "uint256",
          "name": "tokenId",
          "type": "uint256"
        }
      ],
      "name": "Transfer",
      "type": "event"
    },
    {
      "inputs": [],
      "name": "CREATION_LIMIT_GEN0",
      "outputs": [
        {
          "internalType": "uint256",
          "name": "",
          "type": "uint256"
        }
      ],
      "stateMutability": "view",
      "type": "function",
      "constant": true
    },
    {
      "inputs": [],
      "name": "_name",
      "outputs": [
        {
          "internalType": "string",
          "name": "",
          "type": "string"
        }
      ],
      "stateMutability": "view",
      "type": "function",
      "constant": true
    },
    {
      "inputs": [],
      "name": "_symbol",
      "outputs": [
        {
          "internalType": "string",
          "name": "",
          "type": "string"
        }
      ],
      "stateMutability": "view",
      "type": "function",
      "constant": true
    },
    {
      "inputs": [
        {
          "internalType": "uint256",
          "name": "",
          "type": "uint256"
        }
      ],
      "name": "kittyIndexToApproved",
      "outputs": [
        {
          "internalType": "address",
          "name": "",
          "type": "address"
        }
      ],
      "stateMutability": "view",
      "type": "function",
      "constant": true
    },
    {
      "inputs": [],
      "name": "owner",
      "outputs": [
        {
          "internalType": "address",
          "name": "",
          "type": "address"
        }
      ],
      "stateMutability": "view",
      "type": "function",
      "constant": true
    },
    {
      "inputs": [
        {
          "internalType": "uint256",
          "name": "",
          "type": "uint256"
        }
      ],
      "name": "tokenOwner",
      "outputs": [
        {
          "internalType": "address",
          "name": "",
          "type": "address"
        }
      ],
      "stateMutability": "view",
      "type": "function",
      "constant": true
    },
    {
      "inputs": [
        {
          "internalType": "uint256",
          "name": "_tokenId",
          "type": "uint256"
        }
      ],
      "name": "getKitty",
      "outputs": [
        {
          "internalType": "uint256",
          "name": "genes",
          "type": "uint256"
        },
        {
          "internalType": "uint256",
          "name": "birthTime",
          "type": "uint256"
        },
        {
          "internalType": "uint256",
          "name": "mumId",
          "type": "uint256"
        },
        {
          "internalType": "uint256",
          "name": "dadId",
          "type": "uint256"
        },
        {
          "internalType": "uint256",
          "name": "generation",
          "type": "uint256"
        }
      ],
      "stateMutability": "view",
      "type": "function",
      "constant": true
    },
    {
      "inputs": [
        {
          "internalType": "uint256",
          "name": "_genes",
          "type": "uint256"
        }
      ],
      "name": "createKittyGen0",
      "outputs": [
        {
          "internalType": "uint256",
          "name": "",
          "type": "uint256"
        }
      ],
      "stateMutability": "nonpayable",
      "type": "function"
    },
    {
      "inputs": [
        {
          "internalType": "address",
          "name": "owner",
          "type": "address"
        }
      ],
      "name": "balanceOf",
      "outputs": [
        {
          "internalType": "uint256",
          "name": "balance",
          "type": "uint256"
        }
      ],
      "stateMutability": "view",
      "type": "function",
      "constant": true
    },
    {
      "inputs": [],
      "name": "totalSupply",
      "outputs": [
        {
          "internalType": "uint256",
          "name": "total",
          "type": "uint256"
        }
      ],
      "stateMutability": "view",
      "type": "function",
      "constant": true
    },
    {
      "inputs": [],
      "name": "name",
      "outputs": [
        {
          "internalType": "string",
          "name": "",
          "type": "string"
        }
      ],
      "stateMutability": "pure",
      "type": "function",
      "constant": true
    },
    {
      "inputs": [],
      "name": "symbol",
      "outputs": [
        {
          "internalType": "string",
          "name": "tokenSymbol",
          "type": "string"
        }
      ],
      "stateMutability": "pure",
      "type": "function",
      "constant": true
    },
    {
      "inputs": [
        {
          "internalType": "uint256",
          "name": "tokenId",
          "type": "uint256"
        }
      ],
      "name": "ownerOf",
      "outputs": [
        {
          "internalType": "address",
          "name": "owner",
          "type": "address"
        }
      ],
      "stateMutability": "view",
      "type": "function",
      "constant": true
    },
    {
      "inputs": [
        {
          "internalType": "address",
          "name": "to",
          "type": "address"
        },
        {
          "internalType": "uint256",
          "name": "tokenId",
          "type": "uint256"
        }
      ],
      "name": "transfer",
      "outputs": [],
      "stateMutability": "nonpayable",
      "type": "function"
    },
    {
      "inputs": [
        {
          "internalType": "address",
          "name": "_approved",
          "type": "address"
        },
        {
          "internalType": "uint256",
          "name": "_tokenId",
          "type": "uint256"
        }
      ],
      "name": "approve",
      "outputs": [],
      "stateMutability": "nonpayable",
      "type": "function"
    },
    {
      "inputs": [
        {
          "internalType": "address",
          "name": "_operator",
          "type": "address"
        },
        {
          "internalType": "bool",
          "name": "_approved",
          "type": "bool"
        }
      ],
      "name": "setApprovalForAll",
      "outputs": [],
      "stateMutability": "nonpayable",
      "type": "function"
    },
    {
      "inputs": [
        {
          "internalType": "uint256",
          "name": "_tokenId",
          "type": "uint256"
        }
      ],
      "name": "getApproved",
      "outputs": [
        {
          "internalType": "address",
          "name": "",
          "type": "address"
        }
      ],
      "stateMutability": "view",
      "type": "function",
      "constant": true
    },
    {
      "inputs": [
        {
          "internalType": "address",
          "name": "_owner",
          "type": "address"
        },
        {
          "internalType": "address",
          "name": "_operator",
          "type": "address"
        }
      ],
      "name": "isApprovedForAll",
      "outputs": [
        {
          "internalType": "bool",
          "name": "",
          "type": "bool"
        }
      ],
      "stateMutability": "view",
      "type": "function",
      "constant": true
    },
    {
      "inputs": [
        {
          "internalType": "address",
          "name": "_from",
          "type": "address"
        },
        {
          "internalType": "address",
          "name": "_to",
          "type": "address"
        },
        {
          "internalType": "uint256",
          "name": "_tokenId",
          "type": "uint256"
        }
      ],
      "name": "transferFrom",
      "outputs": [],
      "stateMutability": "nonpayable",
      "type": "function"
    },
    {
      "inputs": [
        {
          "internalType": "address",
          "name": "_from",
          "type": "address"
        },
        {
          "internalType": "address",
          "name": "_to",
          "type": "address"
        },
        {
          "internalType": "uint256",
          "name": "_tokenId",
          "type": "uint256"
        }
      ],
      "name": "safeTransferFrom",
      "outputs": [],
      "stateMutability": "nonpayable",
      "type": "function"
    },
    {
      "inputs": [
        {
          "internalType": "address",
          "name": "_from",
          "type": "address"
        },
        {
          "internalType": "address",
          "name": "_to",
          "type": "address"
        },
        {
          "internalType": "uint256",
          "name": "_tokenId",
          "type": "uint256"
        },
        {
          "internalType": "bytes",
          "name": "data",
          "type": "bytes"
        }
      ],
      "name": "safeTransferFrom",
      "outputs": [],
      "stateMutability": "nonpayable",
      "type": "function"
    }
  ],
  "bytecode": "0x608060405234801561001057600080fd5b50336000806101000a81548173ffffffffffffffffffffffffffffffffffffffff021916908373ffffffffffffffffffffffffffffffffffffffff160217905550612509806100606000396000f3fe608060405234801561001057600080fd5b50600436106101375760003560e01c80638da5cb5b116100b8578063b48343301161007c578063b48343301461034e578063b88d4fde1461036c578063d28d885214610388578063d5a776ca146103a6578063e985e9c5146103d6578063e98b7f4d1461040657610137565b80638da5cb5b146102bc57806395d89b41146102da578063a22cb465146102f8578063a9059cbb14610314578063b09f12661461033057610137565b806323b872dd116100ff57806323b872dd146101f457806342842e0e14610210578063481af3d31461022c5780636352211e1461025c57806370a082311461028c57610137565b806306fdde031461013c578063081812fc1461015a578063095ea7b31461018a57806318160ddd146101a65780631caaa487146101c4575b600080fd5b61014461043a565b6040516101519190611fb6565b60405180910390f35b610174600480360381019061016f91906119f5565b610477565b6040516101819190611ee1565b60405180910390f35b6101a4600480360381019061019f9190611990565b6104fb565b005b6101ae6105be565b6040516101bb9190612178565b60405180910390f35b6101de60048036038101906101d991906119f5565b6105cb565b6040516101eb9190611ee1565b60405180910390f35b61020e6004803603810190610209919061188a565b6105fe565b005b61022a6004803603810190610225919061188a565b6107fc565b005b610246600480360381019061024191906119f5565b61081c565b6040516102539190611ee1565b60405180910390f35b610276600480360381019061027191906119f5565b61084f565b6040516102839190611ee1565b60405180910390f35b6102a660048036038101906102a19190611825565b61092e565b6040516102b39190612178565b60405180910390f35b6102c4610977565b6040516102d19190611ee1565b60405180910390f35b6102e261099b565b6040516102ef9190611fb6565b60405180910390f35b610312600480360381019061030d9190611954565b6109d8565b005b61032e60048036038101906103299190611990565b610abb565b005b610338610bf2565b6040516103459190611fb6565b60405180910390f35b610356610c2b565b6040516103639190612178565b60405180910390f35b610386600480360381019061038191906118d9565b610c30565b005b610390610e30565b60405161039d9190611fb6565b60405180910390f35b6103c060048036038101906103bb91906119f5565b610e69565b6040516103cd9190612178565b60405180910390f35b6103f060048036038101906103eb919061184e565b610f8d565b6040516103fd9190611f9b565b60405180910390f35b610420600480360381019061041b91906119f5565b611021565b604051610431959493929190612193565b60405180910390f35b60606040518060400160405280600b81526020017f54616e754b697474696573000000000000000000000000000000000000000000815250905090565b600060018054905082106104c0576040517f08c379a00000000000000000000000000000000000000000000000000000000081526004016104b790612098565b60405180910390fd5b6004600083815260200190815260200160002060009054906101000a900473ffffffffffffffffffffffffffffffffffffffff169050919050565b61050533826110fd565b8061051657506105153382611169565b5b610555576040517f08c379a000000000000000000000000000000000000000000000000000000000815260040161054c906120b8565b60405180910390fd5b61055f82826111d5565b808273ffffffffffffffffffffffffffffffffffffffff163373ffffffffffffffffffffffffffffffffffffffff167f8c5be1e5ebec7d5bd14f71427d1e84f3dd0314c0f7b2291e5b200ac8c7c3b92560405160405180910390a45050565b6000600180549050905090565b60036020528060005260406000206000915054906101000a900473ffffffffffffffffffffffffffffffffffffffff1681565b8282826001805490508110610648576040517f08c379a000000000000000000000000000000000000000000000000000000000815260040161063f906120d8565b60405180910390fd5b600073ffffffffffffffffffffffffffffffffffffffff168273ffffffffffffffffffffffffffffffffffffffff1614156106b8576040517f08c379a00000000000000000000000000000000000000000000000000000000081526004016106af906120f8565b60405180910390fd5b6003600082815260200190815260200160002060009054906101000a900473ffffffffffffffffffffffffffffffffffffffff1673ffffffffffffffffffffffffffffffffffffffff168373ffffffffffffffffffffffffffffffffffffffff1614610759576040517f08c379a000000000000000000000000000000000000000000000000000000000815260040161075090612018565b60405180910390fd5b8273ffffffffffffffffffffffffffffffffffffffff163373ffffffffffffffffffffffffffffffffffffffff16148061079957506107983382611169565b5b806107aa57506107a98333610f8d565b5b6107e9576040517f08c379a00000000000000000000000000000000000000000000000000000000081526004016107e090612118565b60405180910390fd5b6107f486868661122b565b505050505050565b61081783838360405180602001604052806000815250610c30565b505050565b60046020528060005260406000206000915054906101000a900473ffffffffffffffffffffffffffffffffffffffff1681565b60008073ffffffffffffffffffffffffffffffffffffffff166003600084815260200190815260200160002060009054906101000a900473ffffffffffffffffffffffffffffffffffffffff1673ffffffffffffffffffffffffffffffffffffffff1614156108f3576040517f08c379a00000000000000000000000000000000000000000000000000000000081526004016108ea90612038565b60405180910390fd5b6003600083815260200190815260200160002060009054906101000a900473ffffffffffffffffffffffffffffffffffffffff169050919050565b6000600260008373ffffffffffffffffffffffffffffffffffffffff1673ffffffffffffffffffffffffffffffffffffffff168152602001908152602001600020549050919050565b60008054906101000a900473ffffffffffffffffffffffffffffffffffffffff1681565b60606040518060400160405280600381526020017f544b540000000000000000000000000000000000000000000000000000000000815250905090565b8173ffffffffffffffffffffffffffffffffffffffff163373ffffffffffffffffffffffffffffffffffffffff161415610a47576040517f08c379a0000000000000000000000000000000000000000000000000000000008152600401610a3e90611ff8565b60405180910390fd5b610a523383836113f6565b8173ffffffffffffffffffffffffffffffffffffffff163373ffffffffffffffffffffffffffffffffffffffff167f17307eab39ab6107e8899845ad3d59bd9653f200f220920489ca2b5937696c3183604051610aaf9190611f9b565b60405180910390a35050565b600073ffffffffffffffffffffffffffffffffffffffff168273ffffffffffffffffffffffffffffffffffffffff161415610b2b576040517f08c379a0000000000000000000000000000000000000000000000000000000008152600401610b2290612078565b60405180910390fd5b3073ffffffffffffffffffffffffffffffffffffffff168273ffffffffffffffffffffffffffffffffffffffff161415610b9a576040517f08c379a0000000000000000000000000000000000000000000000000000000008152600401610b9190612138565b60405180910390fd5b610ba433826110fd565b610be3576040517f08c379a0000000000000000000000000000000000000000000000000000000008152600401610bda90612058565b60405180910390fd5b610bee33838361122b565b5050565b6040518060400160405280600381526020017f544b54000000000000000000000000000000000000000000000000000000000081525081565b601481565b8383836001805490508110610c7a576040517f08c379a0000000000000000000000000000000000000000000000000000000008152600401610c71906120d8565b60405180910390fd5b600073ffffffffffffffffffffffffffffffffffffffff168273ffffffffffffffffffffffffffffffffffffffff161415610cea576040517f08c379a0000000000000000000000000000000000000000000000000000000008152600401610ce1906120f8565b60405180910390fd5b6003600082815260200190815260200160002060009054906101000a900473ffffffffffffffffffffffffffffffffffffffff1673ffffffffffffffffffffffffffffffffffffffff168373ffffffffffffffffffffffffffffffffffffffff1614610d8b576040517f08c379a0000000000000000000000000000000000000000000000000000000008152600401610d8290612018565b60405180910390fd5b8273ffffffffffffffffffffffffffffffffffffffff163373ffffffffffffffffffffffffffffffffffffffff161480610dcb5750610dca3382611169565b5b80610ddc5750610ddb8333610f8d565b5b610e1b576040517f08c379a0000000000000000000000000000000000000000000000000000000008152600401610e1290612118565b60405180910390fd5b610e278787878761148f565b50505050505050565b6040518060400160405280600b81526020017f54616e754b69747469657300000000000000000000000000000000000000000081525081565b60003373ffffffffffffffffffffffffffffffffffffffff1660008054906101000a900473ffffffffffffffffffffffffffffffffffffffff1673ffffffffffffffffffffffffffffffffffffffff1614610ef9576040517f08c379a0000000000000000000000000000000000000000000000000000000008152600401610ef090612158565b60405180910390fd5b601460065410610f3e576040517f08c379a0000000000000000000000000000000000000000000000000000000008152600401610f3590611fd8565b60405180910390fd5b60066000815480929190610f51906123bf565b9190505550610f866000808460008060009054906101000a900473ffffffffffffffffffffffffffffffffffffffff166114b5565b9050919050565b6000600560008473ffffffffffffffffffffffffffffffffffffffff1673ffffffffffffffffffffffffffffffffffffffff16815260200190815260200160002060008373ffffffffffffffffffffffffffffffffffffffff1673ffffffffffffffffffffffffffffffffffffffff16815260200190815260200160002060009054906101000a900460ff16905092915050565b60008060008060008060018781548110611064577f4e487b7100000000000000000000000000000000000000000000000000000000600052603260045260246000fd5b90600052602060002090600202019050806000015495508060010160009054906101000a900467ffffffffffffffff1667ffffffffffffffff1694508060010160089054906101000a900463ffffffff1663ffffffff16935080600101600c9054906101000a900463ffffffff1663ffffffff1692508060010160109054906101000a900461ffff1661ffff1691505091939590929450565b60008273ffffffffffffffffffffffffffffffffffffffff166003600084815260200190815260200160002060009054906101000a900473ffffffffffffffffffffffffffffffffffffffff1673ffffffffffffffffffffffffffffffffffffffff1614905092915050565b60008273ffffffffffffffffffffffffffffffffffffffff166004600084815260200190815260200160002060009054906101000a900473ffffffffffffffffffffffffffffffffffffffff1673ffffffffffffffffffffffffffffffffffffffff1614905092915050565b816004600083815260200190815260200160002060006101000a81548173ffffffffffffffffffffffffffffffffffffffff021916908373ffffffffffffffffffffffffffffffffffffffff1602179055505050565b600073ffffffffffffffffffffffffffffffffffffffff168373ffffffffffffffffffffffffffffffffffffffff16146112ed576001600260008573ffffffffffffffffffffffffffffffffffffffff1673ffffffffffffffffffffffffffffffffffffffff16815260200190815260200160002060008282546112af91906122d5565b925050819055506004600082815260200190815260200160002060006101000a81549073ffffffffffffffffffffffffffffffffffffffff02191690555b6001600260008473ffffffffffffffffffffffffffffffffffffffff1673ffffffffffffffffffffffffffffffffffffffff168152602001908152602001600020600082825461133d919061227f565b92505081905550816003600083815260200190815260200160002060006101000a81548173ffffffffffffffffffffffffffffffffffffffff021916908373ffffffffffffffffffffffffffffffffffffffff160217905550808273ffffffffffffffffffffffffffffffffffffffff168473ffffffffffffffffffffffffffffffffffffffff167fddf252ad1be2c89b69c2b068fc378daa952ba7f163c4a11628f55a4df523b3ef60405160405180910390a4505050565b80600560008573ffffffffffffffffffffffffffffffffffffffff1673ffffffffffffffffffffffffffffffffffffffff16815260200190815260200160002060008473ffffffffffffffffffffffffffffffffffffffff1673ffffffffffffffffffffffffffffffffffffffff16815260200190815260200160002060006101000a81548160ff021916908315150217905550505050565b61149a84848461122b565b6114a684848484611636565b6114af57600080fd5b50505050565b6000806040518060a001604052808681526020014267ffffffffffffffff1681526020018863ffffffff1681526020018763ffffffff1681526020018561ffff1681525090506000600180549050905060018290806001815401808255809150506001900390600052602060002090600202016000909190919091506000820151816000015560208201518160010160006101000a81548167ffffffffffffffff021916908367ffffffffffffffff16021790555060408201518160010160086101000a81548163ffffffff021916908363ffffffff160217905550606082015181600101600c6101000a81548163ffffffff021916908363ffffffff16021790555060808201518160010160106101000a81548161ffff021916908361ffff16021790555050507f0a5311bd2a6608f08a180df2ee7c5946819a649b204b554bb8e39825b2c50ad584828a8a8a604051611614959493929190611f48565b60405180910390a16116286000858361122b565b809250505095945050505050565b600061164184611750565b61164e5760019050611748565b60008473ffffffffffffffffffffffffffffffffffffffff1663150b7a02338887876040518563ffffffff1660e01b815260040161168f9493929190611efc565b602060405180830381600087803b1580156116a957600080fd5b505af11580156116bd573d6000803e3d6000fd5b505050506040513d601f19601f820116820180604052508101906116e191906119cc565b90507f150b7a023d4804d13e8c85fb27262cb750cf6ba9f9dd3bb30d90f482ceeb4b1f7bffffffffffffffffffffffffffffffffffffffffffffffffffffffff1916817bffffffffffffffffffffffffffffffffffffffffffffffffffffffff1916149150505b949350505050565b600080823b905060008163ffffffff1611915050919050565b600061177c61177784612217565b6121e6565b90508281526020810184848401111561179457600080fd5b61179f84828561237d565b509392505050565b6000813590506117b681612477565b92915050565b6000813590506117cb8161248e565b92915050565b6000815190506117e0816124a5565b92915050565b600082601f8301126117f757600080fd5b8135611807848260208601611769565b91505092915050565b60008135905061181f816124bc565b92915050565b60006020828403121561183757600080fd5b6000611845848285016117a7565b91505092915050565b6000806040838503121561186157600080fd5b600061186f858286016117a7565b9250506020611880858286016117a7565b9150509250929050565b60008060006060848603121561189f57600080fd5b60006118ad868287016117a7565b93505060206118be868287016117a7565b92505060406118cf86828701611810565b9150509250925092565b600080600080608085870312156118ef57600080fd5b60006118fd878288016117a7565b945050602061190e878288016117a7565b935050604061191f87828801611810565b925050606085013567ffffffffffffffff81111561193c57600080fd5b611948878288016117e6565b91505092959194509250565b6000806040838503121561196757600080fd5b6000611975858286016117a7565b9250506020611986858286016117bc565b9150509250929050565b600080604083850312156119a357600080fd5b60006119b1858286016117a7565b92505060206119c285828601611810565b9150509250929050565b6000602082840312156119de57600080fd5b60006119ec848285016117d1565b91505092915050565b600060208284031215611a0757600080fd5b6000611a1584828501611810565b91505092915050565b611a2781612309565b82525050565b611a368161231b565b82525050565b6000611a4782612247565b611a51818561225d565b9350611a6181856020860161238c565b611a6a81612466565b840191505092915050565b6000611a8082612252565b611a8a818561226e565b9350611a9a81856020860161238c565b611aa381612466565b840191505092915050565b6000611abb601b8361226e565b91507f47656e30206372656174696f6e206c696d6974206578636565647300000000006000830152602082019050919050565b6000611afb601a8361226e565b91507f596f752063616e277420617070726f766520796f757273656c660000000000006000830152602082019050919050565b6000611b3b602c8361226e565b91507f53656e646572206163636f756e7420646f65736e27742062656c6f6e6720746f60008301527f20746f6b656e206f776e657200000000000000000000000000000000000000006020830152604082019050919050565b6000611ba160208361226e565b91507f546f6b656e2077697468207468697320494420646f65736e27742065786973746000830152602082019050919050565b6000611be160228361226e565b91507f596f75277265206e6f7420746865206f776e6572206f66207468697320746f6b60008301527f656e0000000000000000000000000000000000000000000000000000000000006020830152604082019050919050565b6000611c4760208361226e565b91507f52656365697665722063616e206e6f74206265207a65726f20616464726573736000830152602082019050919050565b6000611c87600d8361226e565b91507f496e76616c696420746f6b656e000000000000000000000000000000000000006000830152602082019050919050565b6000611cc760258361226e565b91507f536f6d656f6e6520656c73652069732074616d706572696e672074686520617060008301527f70726f76650000000000000000000000000000000000000000000000000000006020830152604082019050919050565b6000611d2d60108361226e565b91507f496e76616c696420746f6b656e204964000000000000000000000000000000006000830152602082019050919050565b6000611d6d60298361226e565b91507f526563656976657220616464726573732073686f756c64206e6f74206265206160008301527f64647265737328302900000000000000000000000000000000000000000000006020830152604082019050919050565b6000611dd360288361226e565b91507f556e617574686f72697a65642074616d706572696e672077697468207472616e60008301527f7366657246726f6d0000000000000000000000000000000000000000000000006020830152604082019050919050565b6000611e3960298361226e565b91507f596f752063616e2774207472616e7366657220746f6b656e20746f207468697360008301527f20636f6e747261637400000000000000000000000000000000000000000000006020830152604082019050919050565b6000611e9f60188361226e565b91507f41636365737369626c6520746f206f776e6572206f6e6c7900000000000000006000830152602082019050919050565b611edb81612373565b82525050565b6000602082019050611ef66000830184611a1e565b92915050565b6000608082019050611f116000830187611a1e565b611f1e6020830186611a1e565b611f2b6040830185611ed2565b8181036060830152611f3d8184611a3c565b905095945050505050565b600060a082019050611f5d6000830188611a1e565b611f6a6020830187611ed2565b611f776040830186611ed2565b611f846060830185611ed2565b611f916080830184611ed2565b9695505050505050565b6000602082019050611fb06000830184611a2d565b92915050565b60006020820190508181036000830152611fd08184611a75565b905092915050565b60006020820190508181036000830152611ff181611aae565b9050919050565b6000602082019050818103600083015261201181611aee565b9050919050565b6000602082019050818103600083015261203181611b2e565b9050919050565b6000602082019050818103600083015261205181611b94565b9050919050565b6000602082019050818103600083015261207181611bd4565b9050919050565b6000602082019050818103600083015261209181611c3a565b9050919050565b600060208201905081810360008301526120b181611c7a565b9050919050565b600060208201905081810360008301526120d181611cba565b9050919050565b600060208201905081810360008301526120f181611d20565b9050919050565b6000602082019050818103600083015261211181611d60565b9050919050565b6000602082019050818103600083015261213181611dc6565b9050919050565b6000602082019050818103600083015261215181611e2c565b9050919050565b6000602082019050818103600083015261217181611e92565b9050919050565b600060208201905061218d6000830184611ed2565b92915050565b600060a0820190506121a86000830188611ed2565b6121b56020830187611ed2565b6121c26040830186611ed2565b6121cf6060830185611ed2565b6121dc6080830184611ed2565b9695505050505050565b6000604051905081810181811067ffffffffffffffff8211171561220d5761220c612437565b5b8060405250919050565b600067ffffffffffffffff82111561223257612231612437565b5b601f19601f8301169050602081019050919050565b600081519050919050565b600081519050919050565b600082825260208201905092915050565b600082825260208201905092915050565b600061228a82612373565b915061229583612373565b9250827fffffffffffffffffffffffffffffffffffffffffffffffffffffffffffffffff038211156122ca576122c9612408565b5b828201905092915050565b60006122e082612373565b91506122eb83612373565b9250828210156122fe576122fd612408565b5b828203905092915050565b600061231482612353565b9050919050565b60008115159050919050565b60007fffffffff0000000000000000000000000000000000000000000000000000000082169050919050565b600073ffffffffffffffffffffffffffffffffffffffff82169050919050565b6000819050919050565b82818337600083830152505050565b60005b838110156123aa57808201518184015260208101905061238f565b838111156123b9576000848401525b50505050565b60006123ca82612373565b91507fffffffffffffffffffffffffffffffffffffffffffffffffffffffffffffffff8214156123fd576123fc612408565b5b600182019050919050565b7f4e487b7100000000000000000000000000000000000000000000000000000000600052601160045260246000fd5b7f4e487b7100000000000000000000000000000000000000000000000000000000600052604160045260246000fd5b6000601f19601f8301169050919050565b61248081612309565b811461248b57600080fd5b50565b6124978161231b565b81146124a257600080fd5b50565b6124ae81612327565b81146124b957600080fd5b50565b6124c581612373565b81146124d057600080fd5b5056fea2646970667358221220601fa10ff4bc0d58c1e83a7cbcadb5753d0ac904a9201b9876bb0d81857ce8c164736f6c63430008000033",
  "immutableReferences": {},
  "source": "// SPDX-License-Identifier: UNLICENSED\r\npragma solidity >0.4.22 <=0.9.0;\r\nimport './IERC721.sol';\r\nimport './Ownable.sol';\r\nimport './IERC721Receiver.sol';\r\n\r\ncontract KittyContract is IERC721,Ownable{\r\n   string public constant _name = \"TanuKitties\";\r\n   string public constant _symbol = \"TKT\";\r\n   uint public constant CREATION_LIMIT_GEN0 = 20;\r\n   bytes4 internal constant MAGIC_ERC721_RECEIVED = bytes4(keccak256(\"onERC721Received(address,address,uint256,bytes)\"));\r\n   event Birth(address owner, uint kittenId,uint mumId,uint dadId,uint genes);\r\n\r\n   struct Kitty{\r\n       uint256 genes;\r\n       uint64 birthTime;\r\n       uint32 mumId;\r\n       uint32 dadId;\r\n       uint16 generation;\r\n   }\r\n   Kitty[] kitties;\r\n\r\n   mapping(address => uint)private ownershipTokenCount; //token owner => #tokens\r\n   mapping(uint => address)public tokenOwner; // tokenId => tokenowner\r\n   mapping(uint => address) public kittyIndexToApproved;\r\n   mapping(address => mapping(address => bool))private _operatorApprovals;\r\n   uint gen0Counter;\r\n   \r\n   modifier checkTransfer(address _from, address _to, uint256 _tokenId){\r\n      require(_tokenId < kitties.length,'Invalid token Id');\r\n      require(_to != address(0),\"Receiver address should not be address(0)\");\r\n      require(_from == tokenOwner[_tokenId],\"Sender account doesn't belong to token owner\");\r\n      require(msg.sender == _from || operates(msg.sender,_tokenId) || isApprovedForAll(_from,msg.sender),'Unauthorized tampering with transferFrom');\r\n      _;\r\n   }\r\n\r\n   function getKitty(uint _tokenId) public virtual view returns(uint genes,\r\n                                                          uint birthTime,\r\n                                                          uint mumId,\r\n                                                          uint dadId,\r\n                                                          uint generation){\r\n      Kitty storage tempKitty = kitties[_tokenId];\r\n      genes = tempKitty.genes;\r\n      birthTime = tempKitty.birthTime;\r\n      mumId = tempKitty.mumId;\r\n      dadId = tempKitty.dadId;\r\n      generation = tempKitty.generation;\r\n   }\r\n\r\n   function createKittyGen0(uint _genes) public onlyOwner returns(uint){\r\n     require(gen0Counter < CREATION_LIMIT_GEN0,'Gen0 creation limit exceeds');\r\n     gen0Counter++;\r\n     return _createKitty(0,0,_genes,0,owner); \r\n   }\r\n\r\n   function _createKitty(uint _mumId,uint _dadId,uint _genes,uint _generation, address _owner) private returns(uint){\r\n     Kitty memory newKitty = Kitty({genes :_genes,\r\n                                    birthTime: uint64(block.timestamp),\r\n                                    mumId: uint32(_mumId),\r\n                                    dadId: uint32(_dadId),\r\n                                    generation: uint16(_generation)});\r\n     uint newID = kitties.length;\r\n     kitties.push(newKitty);\r\n     emit Birth(_owner,newID,_mumId,_dadId,_genes);\r\n     _transfer(address(0),_owner,newID);\r\n\r\n     return newID;\r\n   }\r\n\r\n   function balanceOf(address owner) public virtual view override returns (uint256 balance){\r\n       balance = ownershipTokenCount[owner];\r\n   }\r\n   \r\n   function totalSupply() public virtual view override returns (uint256 total){\r\n      total = kitties.length;\r\n   }\r\n\r\n   function name() public virtual pure override returns (string memory){\r\n      return _name;\r\n   }\r\n\r\n   function symbol() public virtual pure override returns (string memory tokenSymbol){\r\n       tokenSymbol = _symbol;\r\n   }\r\n\r\n   function ownerOf(uint256 tokenId) public virtual view override returns (address owner){\r\n      require(tokenOwner[tokenId] != address(0),\"Token with this ID doesn't exist\");\r\n      owner = tokenOwner[tokenId];\r\n   }\r\n   \r\n   function transfer(address to, uint256 tokenId) public virtual override{\r\n      require(to != address(0),\"Receiver can not be zero address\");\r\n      require(to != address(this),\"You can't transfer token to this contract\");\r\n      require(owns(msg.sender,tokenId),\"You're not the owner of this token\");\r\n      _transfer(msg.sender, to, tokenId);\r\n   }\r\n\r\n   function _transfer(address from, address to, uint tokenId) internal{\r\n       //from\r\n       if(from != address(0)){\r\n        ownershipTokenCount[from] -= 1;\r\n        delete kittyIndexToApproved[tokenId]; //nice point\r\n       }\r\n       \r\n       //to\r\n       ownershipTokenCount[to] += 1;\r\n       tokenOwner[tokenId] = to;\r\n\r\n       emit Transfer(from,to,tokenId);\r\n   }\r\n\r\n   function approve(address _approved, uint256 _tokenId) public virtual override{\r\n      require(owns(msg.sender,_tokenId) || operates(msg.sender,_tokenId),'Someone else is tampering the approve');\r\n      _approve(_approved,_tokenId);\r\n      emit Approval(msg.sender, _approved, _tokenId);\r\n   }\r\n\r\n   function _approve(address _approved, uint _tokenId)private{\r\n       kittyIndexToApproved[_tokenId] = _approved;\r\n   }\r\n\r\n   function setApprovalForAll(address _operator, bool _approved) public virtual override{\r\n      require(msg.sender != _operator,\"You can't approve yourself\");\r\n      _setApprovalForAll(msg.sender,_operator,_approved);\r\n      emit ApprovalForAll(msg.sender,_operator,_approved);\r\n   }\r\n   \r\n   function _setApprovalForAll(address _owner,address _operator,bool _approved)private{\r\n      _operatorApprovals[_owner][_operator] = _approved;\r\n   }\r\n\r\n   function getApproved(uint256 _tokenId) public virtual view override returns (address){\r\n       require(_tokenId < kitties.length,'Invalid token');\r\n       return kittyIndexToApproved[_tokenId];\r\n   }\r\n\r\n   function isApprovedForAll(address _owner, address _operator) public virtual view override returns (bool){\r\n     return _operatorApprovals[_owner][_operator];\r\n   }\r\n   \r\n   function transferFrom(address _from, address _to, uint256 _tokenId) public virtual override checkTransfer(_from,_to,_tokenId){\r\n      _transfer(_from,_to,_tokenId);\r\n   }\r\n\r\n   function safeTransferFrom(address _from, address _to, uint256 _tokenId) public virtual override {\r\n     safeTransferFrom(_from,_to,_tokenId,\"\");\r\n   }\r\n\r\n   function safeTransferFrom(address _from, address _to, uint256 _tokenId, bytes memory data) public virtual override checkTransfer(_from,_to,_tokenId){\r\n       _safeTransfer(_from,_to,_tokenId,data);\r\n   }\r\n\r\n   function _safeTransfer(address _from, address _to, uint _tokenId,bytes memory _data)  internal{\r\n        _transfer(_from, _to,_tokenId);\r\n        require(_checkERC721Support(_from,_to,_tokenId,_data));\r\n   }\r\n   function _checkERC721Support(address _from, address _to, uint _tokenId,bytes memory _data) internal returns(bool){\r\n      if(!isContract(_to)){\r\n         return true;\r\n      }\r\n      bytes4 returnData = IERC721Receiver(_to).onERC721Received(msg.sender,_from, _tokenId,_data);\r\n      return returnData == MAGIC_ERC721_RECEIVED;\r\n   }\r\n\r\n   function isContract(address _to)internal view returns(bool){\r\n      uint32 size;\r\n      assembly {\r\n         size := extcodesize(_to)\r\n      }\r\n      return (size > 0);\r\n   }\r\n\r\n   function owns(address claimant, uint tokenID)internal view returns(bool){\r\n      return (tokenOwner[tokenID] == claimant);\r\n   }\r\n\r\n   function operates(address _approved,uint _tokenId) internal view returns(bool){\r\n      return kittyIndexToApproved[_tokenId] == _approved;\r\n   }\r\n\r\n\r\n\r\n}",
  "sourcePath": "D:/BlockChain/Ethereum-201/CryptoKitties/academy-kitties-template/contracts/kittyContract.sol",
  "compiler": {
    "name": "solc",
    "version": "0.8.0+commit.c7dfd78e.Emscripten.clang"
  },
  "schemaVersion": "3.4.1",
  "updatedAt": "2021-08-08T14:09:31.824Z",
  "networkType": "ethereum",
  "devdoc": {
    "kind": "dev",
    "methods": {
      "approve(address,uint256)": {
        "details": "The zero address indicates there is no approved address.  Throws unless `msg.sender` is the current NFT owner, or an authorized  operator of the current owner.",
        "params": {
          "_approved": "The new approved NFT controller",
          "_tokenId": "The NFT to approve"
        }
      },
      "balanceOf(address)": {
        "details": "Returns the number of tokens in ``owner``'s account."
      },
      "getApproved(uint256)": {
        "details": "Throws if `_tokenId` is not a valid NFT.",
        "params": {
          "_tokenId": "The NFT to find the approved address for"
        },
        "returns": {
          "_0": "The approved address for this NFT, or the zero address if there is none"
        }
      },
      "isApprovedForAll(address,address)": {
        "params": {
          "_operator": "The address that acts on behalf of the owner",
          "_owner": "The address that owns the NFTs"
        },
        "returns": {
          "_0": "True if `_operator` is an approved operator for `_owner`, false otherwise"
        }
      },
      "ownerOf(uint256)": {
        "details": "Returns the owner of the `tokenId` token. Requirements: - `tokenId` must exist."
      },
      "safeTransferFrom(address,address,uint256)": {
        "details": "This works identically to the other function with an extra data parameter,  except this function just sets data to \"\".",
        "params": {
          "_from": "The current owner of the NFT",
          "_to": "The new owner",
          "_tokenId": "The NFT to transfer"
        }
      },
      "safeTransferFrom(address,address,uint256,bytes)": {
        "details": "Throws unless `msg.sender` is the current owner, an authorized  operator, or the approved address for this NFT. Throws if `_from` is  not the current owner. Throws if `_to` is the zero address. Throws if  `_tokenId` is not a valid NFT. When transfer is complete, this function  checks if `_to` is a smart contract (code size > 0). If so, it calls  `onERC721Received` on `_to` and throws if the return value is not  `bytes4(keccak256(\"onERC721Received(address,address,uint256,bytes)\"))`.",
        "params": {
          "_from": "The current owner of the NFT",
          "_to": "The new owner",
          "_tokenId": "The NFT to transfer",
          "data": "Additional data with no specified format, sent in call to `_to`"
        }
      },
      "setApprovalForAll(address,bool)": {
        "details": "Emits the ApprovalForAll event. The contract MUST allow  multiple operators per owner.",
        "params": {
          "_approved": "True if the operator is approved, false to revoke approval",
          "_operator": "Address to add to the set of authorized operators"
        }
      },
      "transferFrom(address,address,uint256)": {
        "details": "Throws unless `msg.sender` is the current owner, an authorized  operator, or the approved address for this NFT. Throws if `_from` is  not the current owner. Throws if `_to` is the zero address. Throws if  `_tokenId` is not a valid NFT.",
        "params": {
          "_from": "The current owner of the NFT",
          "_to": "The new owner",
          "_tokenId": "The NFT to transfer"
        }
      }
    },
    "version": 1
  },
  "userdoc": {
    "kind": "user",
    "methods": {
      "approve(address,uint256)": {
        "notice": "Change or reaffirm the approved address for an NFT"
      },
      "getApproved(uint256)": {
        "notice": "Get the approved address for a single NFT"
      },
      "isApprovedForAll(address,address)": {
        "notice": "Query if an address is an authorized operator for another address"
      },
      "safeTransferFrom(address,address,uint256)": {
        "notice": "Transfers the ownership of an NFT from one address to another address"
      },
      "safeTransferFrom(address,address,uint256,bytes)": {
        "notice": "Transfers the ownership of an NFT from one address to another address"
      },
      "setApprovalForAll(address,bool)": {
        "notice": "Enable or disable approval for a third party (\"operator\") to manage  all of `msg.sender`'s assets"
      },
      "transferFrom(address,address,uint256)": {
        "notice": "Transfer ownership of an NFT -- THE CALLER IS RESPONSIBLE  TO CONFIRM THAT `_to` IS CAPABLE OF RECEIVING NFTS OR ELSE  THEY MAY BE PERMANENTLY LOST"
      }
    },
    "version": 1
  }
}