{
  "contractName": "KittyMarketPlace",
  "abi": [
    {
      "inputs": [
        {
          "internalType": "address",
          "name": "_kittyAddress",
          "type": "address"
        }
      ],
      "stateMutability": "nonpayable",
      "type": "constructor"
    },
    {
      "anonymous": false,
      "inputs": [
        {
          "indexed": false,
          "internalType": "string",
          "name": "TxType",
          "type": "string"
        },
        {
          "indexed": false,
          "internalType": "address",
          "name": "owner",
          "type": "address"
        },
        {
          "indexed": false,
          "internalType": "uint256",
          "name": "tokenId",
          "type": "uint256"
        }
      ],
      "name": "MarketTransaction",
      "type": "event"
    },
    {
      "inputs": [],
      "name": "owner",
      "outputs": [
        {
          "internalType": "address",
          "name": "",
          "type": "address"
        }
      ],
      "stateMutability": "view",
      "type": "function",
      "constant": true
    },
    {
      "inputs": [
        {
          "internalType": "address",
          "name": "_kittyContractAddress",
          "type": "address"
        }
      ],
      "name": "setKittyContract",
      "outputs": [],
      "stateMutability": "nonpayable",
      "type": "function"
    },
    {
      "inputs": [
        {
          "internalType": "uint256",
          "name": "_tokenId",
          "type": "uint256"
        }
      ],
      "name": "getOffer",
      "outputs": [
        {
          "internalType": "address",
          "name": "seller",
          "type": "address"
        },
        {
          "internalType": "uint256",
          "name": "price",
          "type": "uint256"
        },
        {
          "internalType": "uint256",
          "name": "index",
          "type": "uint256"
        },
        {
          "internalType": "uint256",
          "name": "tokenId",
          "type": "uint256"
        },
        {
          "internalType": "bool",
          "name": "active",
          "type": "bool"
        }
      ],
      "stateMutability": "view",
      "type": "function",
      "constant": true
    },
    {
      "inputs": [],
      "name": "getAllTokenOnSale",
      "outputs": [
        {
          "internalType": "uint256[]",
          "name": "listOfOffers",
          "type": "uint256[]"
        }
      ],
      "stateMutability": "view",
      "type": "function",
      "constant": true
    },
    {
      "inputs": [
        {
          "internalType": "uint256",
          "name": "_price",
          "type": "uint256"
        },
        {
          "internalType": "uint256",
          "name": "_tokenId",
          "type": "uint256"
        }
      ],
      "name": "setOffer",
      "outputs": [],
      "stateMutability": "nonpayable",
      "type": "function"
    },
    {
      "inputs": [
        {
          "internalType": "uint256",
          "name": "_tokenId",
          "type": "uint256"
        }
      ],
      "name": "removeOffer",
      "outputs": [],
      "stateMutability": "nonpayable",
      "type": "function"
    },
    {
      "inputs": [
        {
          "internalType": "uint256",
          "name": "_tokenId",
          "type": "uint256"
        }
      ],
      "name": "buyKitty",
      "outputs": [],
      "stateMutability": "payable",
      "type": "function",
      "payable": true
    }
  ],
  "bytecode": "0x60806040523480156200001157600080fd5b5060405162001b9f38038062001b9f83398181016040528101906200003791906200017b565b336000806101000a81548173ffffffffffffffffffffffffffffffffffffffff021916908373ffffffffffffffffffffffffffffffffffffffff16021790555062000088816200008f60201b60201c565b506200026a565b3373ffffffffffffffffffffffffffffffffffffffff1660008054906101000a900473ffffffffffffffffffffffffffffffffffffffff1673ffffffffffffffffffffffffffffffffffffffff161462000120576040517f08c379a00000000000000000000000000000000000000000000000000000000081526004016200011790620001e9565b60405180910390fd5b80600160006101000a81548173ffffffffffffffffffffffffffffffffffffffff021916908373ffffffffffffffffffffffffffffffffffffffff16021790555050565b600081519050620001758162000250565b92915050565b6000602082840312156200018e57600080fd5b60006200019e8482850162000164565b91505092915050565b6000620001b66018836200020b565b91507f41636365737369626c6520746f206f776e6572206f6e6c7900000000000000006000830152602082019050919050565b600060208201905081810360008301526200020481620001a7565b9050919050565b600082825260208201905092915050565b6000620002298262000230565b9050919050565b600073ffffffffffffffffffffffffffffffffffffffff82169050919050565b6200025b816200021c565b81146200026757600080fd5b50565b611925806200027a6000396000f3fe6080604052600436106100705760003560e01c80638da5cb5b1161004e5780638da5cb5b1461010a578063941b055b1461013557806395a0f9c71461015e578063ae5310f61461018757610070565b80634579268a1461007557806349b3709f146100b657806362b7f94e146100e1575b600080fd5b34801561008157600080fd5b5061009c60048036038101906100979190611045565b6101a3565b6040516100ad9594939291906114f2565b60405180910390f35b3480156100c257600080fd5b506100cb610264565b6040516100d89190611545565b60405180910390f35b3480156100ed57600080fd5b5061010860048036038101906101039190610fca565b610481565b005b34801561011657600080fd5b5061011f610553565b60405161012c9190611477565b60405180910390f35b34801561014157600080fd5b5061015c6004803603810190610157919061106e565b610577565b005b34801561016a57600080fd5b5061018560048036038101906101809190611045565b610703565b005b6101a1600480360381019061019c9190611045565b6107b3565b005b60008060008060006101b486610af2565b6101f3576040517f08c379a00000000000000000000000000000000000000000000000000000000081526004016101ea906116db565b60405180910390fd5b60006003600088815260200190815260200160002090508060000160009054906101000a900473ffffffffffffffffffffffffffffffffffffffff1695508060010154945080600301549350806002015492508060040160009054906101000a900460ff1691505091939590929450565b60606000600280549050905060008114156102f057600067ffffffffffffffff8111156102ba577f4e487b7100000000000000000000000000000000000000000000000000000000600052604160045260246000fd5b6040519080825280602002602001820160405280156102e85781602001602082028036833780820191505090505b50915061047c565b60008167ffffffffffffffff811115610332577f4e487b7100000000000000000000000000000000000000000000000000000000600052604160045260246000fd5b6040519080825280602002602001820160405280156103605781602001602082028036833780820191505090505b50905060005b8281101561047157600281815481106103a8577f4e487b7100000000000000000000000000000000000000000000000000000000600052603260045260246000fd5b906000526020600020906005020160040160009054906101000a900460ff161561045e5760028181548110610406577f4e487b7100000000000000000000000000000000000000000000000000000000600052603260045260246000fd5b906000526020600020906005020160020154828281518110610451577f4e487b7100000000000000000000000000000000000000000000000000000000600052603260045260246000fd5b6020026020010181815250505b808061046990611832565b915050610366565b50809250505061047e565b505b90565b3373ffffffffffffffffffffffffffffffffffffffff1660008054906101000a900473ffffffffffffffffffffffffffffffffffffffff1673ffffffffffffffffffffffffffffffffffffffff161461050f576040517f08c379a0000000000000000000000000000000000000000000000000000000008152600401610506906116fb565b60405180910390fd5b80600160006101000a81548173ffffffffffffffffffffffffffffffffffffffff021916908373ffffffffffffffffffffffffffffffffffffffff16021790555050565b60008054906101000a900473ffffffffffffffffffffffffffffffffffffffff1681565b6105813382610b1f565b6105c0576040517f08c379a00000000000000000000000000000000000000000000000000000000081526004016105b79061167f565b60405180910390fd5b6105c981610af2565b15610609576040517f08c379a0000000000000000000000000000000000000000000000000000000008152600401610600906115a7565b60405180910390fd5b600160009054906101000a900473ffffffffffffffffffffffffffffffffffffffff1673ffffffffffffffffffffffffffffffffffffffff1663e985e9c533306040518363ffffffff1660e01b81526004016106669291906114c9565b60206040518083038186803b15801561067e57600080fd5b505afa158015610692573d6000803e3d6000fd5b505050506040513d601f19601f820116820180604052508101906106b6919061101c565b6106f5576040517f08c379a00000000000000000000000000000000000000000000000000000000081526004016106ec90611567565b60405180910390fd5b6106ff8282610c02565b5050565b3373ffffffffffffffffffffffffffffffffffffffff166003600083815260200190815260200160002060000160009054906101000a900473ffffffffffffffffffffffffffffffffffffffff1673ffffffffffffffffffffffffffffffffffffffff16146107a7576040517f08c379a000000000000000000000000000000000000000000000000000000000815260040161079e90611587565b60405180910390fd5b6107b081610e57565b50565b6000600360008381526020019081526020016000206040518060a00160405290816000820160009054906101000a900473ffffffffffffffffffffffffffffffffffffffff1673ffffffffffffffffffffffffffffffffffffffff1673ffffffffffffffffffffffffffffffffffffffff1681526020016001820154815260200160028201548152602001600382015481526020016004820160009054906101000a900460ff161515151581525050905061086d82610af2565b6108ac576040517f08c379a00000000000000000000000000000000000000000000000000000000081526004016108a390611623565b60405180910390fd5b806020015134146108f2576040517f08c379a00000000000000000000000000000000000000000000000000000000081526004016108e990611603565b60405180910390fd5b60036000838152602001908152602001600020600080820160006101000a81549073ffffffffffffffffffffffffffffffffffffffff02191690556001820160009055600282016000905560038201600090556004820160006101000a81549060ff021916905550506000600282606001518154811061099b577f4e487b7100000000000000000000000000000000000000000000000000000000600052603260045260246000fd5b906000526020600020906005020160040160006101000a81548160ff021916908315150217905550600081602001511115610a2057806000015173ffffffffffffffffffffffffffffffffffffffff166108fc82602001519081150290604051600060405180830381858888f19350505050158015610a1e573d6000803e3d6000fd5b505b600160009054906101000a900473ffffffffffffffffffffffffffffffffffffffff1673ffffffffffffffffffffffffffffffffffffffff166323b872dd826000015133856040518463ffffffff1660e01b8152600401610a8393929190611492565b600060405180830381600087803b158015610a9d57600080fd5b505af1158015610ab1573d6000803e3d6000fd5b505050507fd99e4fad9ad6313b1feb588fa8e605e3a9873172f2024330c35dd2b4041a43863383604051610ae6929190611643565b60405180910390a15050565b60006003600083815260200190815260200160002060040160009054906101000a900460ff169050919050565b60008273ffffffffffffffffffffffffffffffffffffffff16600160009054906101000a900473ffffffffffffffffffffffffffffffffffffffff1673ffffffffffffffffffffffffffffffffffffffff16636352211e846040518263ffffffff1660e01b8152600401610b93919061171b565b60206040518083038186803b158015610bab57600080fd5b505afa158015610bbf573d6000803e3d6000fd5b505050506040513d601f19601f82011682018060405250810190610be39190610ff3565b73ffffffffffffffffffffffffffffffffffffffff1614905092915050565b60026040518060a001604052803373ffffffffffffffffffffffffffffffffffffffff168152602001848152602001838152602001600280549050815260200160011515815250908060018154018082558091505060019003906000526020600020906005020160009091909190915060008201518160000160006101000a81548173ffffffffffffffffffffffffffffffffffffffff021916908373ffffffffffffffffffffffffffffffffffffffff16021790555060208201518160010155604082015181600201556060820151816003015560808201518160040160006101000a81548160ff021916908315150217905550505060026001600280549050610d0d9190611780565b81548110610d44577f4e487b7100000000000000000000000000000000000000000000000000000000600052603260045260246000fd5b9060005260206000209060050201600360008381526020019081526020016000206000820160009054906101000a900473ffffffffffffffffffffffffffffffffffffffff168160000160006101000a81548173ffffffffffffffffffffffffffffffffffffffff021916908373ffffffffffffffffffffffffffffffffffffffff1602179055506001820154816001015560028201548160020155600382015481600301556004820160009054906101000a900460ff168160040160006101000a81548160ff0219169083151502179055509050507fd99e4fad9ad6313b1feb588fa8e605e3a9873172f2024330c35dd2b4041a43863382604051610e4b9291906115c7565b60405180910390a15050565b60006002600360008481526020019081526020016000206003015481548110610ea9577f4e487b7100000000000000000000000000000000000000000000000000000000600052603260045260246000fd5b906000526020600020906005020160040160006101000a81548160ff02191690831515021790555060036000828152602001908152602001600020600080820160006101000a81549073ffffffffffffffffffffffffffffffffffffffff02191690556001820160009055600282016000905560038201600090556004820160006101000a81549060ff021916905550507fd99e4fad9ad6313b1feb588fa8e605e3a9873172f2024330c35dd2b4041a43863382604051610f6b92919061169f565b60405180910390a150565b600081359050610f85816118aa565b92915050565b600081519050610f9a816118aa565b92915050565b600081519050610faf816118c1565b92915050565b600081359050610fc4816118d8565b92915050565b600060208284031215610fdc57600080fd5b6000610fea84828501610f76565b91505092915050565b60006020828403121561100557600080fd5b600061101384828501610f8b565b91505092915050565b60006020828403121561102e57600080fd5b600061103c84828501610fa0565b91505092915050565b60006020828403121561105757600080fd5b600061106584828501610fb5565b91505092915050565b6000806040838503121561108157600080fd5b600061108f85828601610fb5565b92505060206110a085828601610fb5565b9150509250929050565b60006110b68383611459565b60208301905092915050565b6110cb816117fc565b82525050565b6110da816117b4565b82525050565b60006110eb82611746565b6110f5818561175e565b935061110083611736565b8060005b8381101561113157815161111888826110aa565b975061112383611751565b925050600181019050611104565b5085935050505092915050565b611147816117c6565b82525050565b600061115a60288361176f565b91507f4d61726b657420706c61636520636f6e7472616374206973206e6f7420616e2060008301527f6f70657261746f720000000000000000000000000000000000000000000000006020830152604082019050919050565b60006111c060208361176f565b91507f4f6e6c792073656c6c6572732063616e2072656d6f766520616e206f666665726000830152602082019050919050565b600061120060188361176f565b91507f4f6e65206f6666657220616c72656164792065786973747300000000000000006000830152602082019050919050565b6000611240600c8361176f565b91507f437265617465206f6666657200000000000000000000000000000000000000006000830152602082019050919050565b6000611280601a8361176f565b91507f506c656173652073656e6420636f727265637420616d6f756e740000000000006000830152602082019050919050565b60006112c060248361176f565b91507f54686973206b69747479206973206e6f7420617661696c61626c6520666f722060008301527f73656c6c000000000000000000000000000000000000000000000000000000006020830152604082019050919050565b600061132660038361176f565b91507f42757900000000000000000000000000000000000000000000000000000000006000830152602082019050919050565b6000611366601f8361176f565b91507f4f6e6c79206f776e6572732063616e2063726561746520616e206f66666572006000830152602082019050919050565b60006113a6600c8361176f565b91507f52656d6f7665206f6666657200000000000000000000000000000000000000006000830152602082019050919050565b60006113e660208361176f565b91507f4e6f20616374697665206f6666657220666f72207468697320746f6b656e49646000830152602082019050919050565b600061142660188361176f565b91507f41636365737369626c6520746f206f776e6572206f6e6c7900000000000000006000830152602082019050919050565b611462816117f2565b82525050565b611471816117f2565b82525050565b600060208201905061148c60008301846110d1565b92915050565b60006060820190506114a760008301866110c2565b6114b460208301856110d1565b6114c16040830184611468565b949350505050565b60006040820190506114de60008301856110d1565b6114eb60208301846110d1565b9392505050565b600060a08201905061150760008301886110d1565b6115146020830187611468565b6115216040830186611468565b61152e6060830185611468565b61153b608083018461113e565b9695505050505050565b6000602082019050818103600083015261155f81846110e0565b905092915050565b600060208201905081810360008301526115808161114d565b9050919050565b600060208201905081810360008301526115a0816111b3565b9050919050565b600060208201905081810360008301526115c0816111f3565b9050919050565b600060608201905081810360008301526115e081611233565b90506115ef60208301856110d1565b6115fc6040830184611468565b9392505050565b6000602082019050818103600083015261161c81611273565b9050919050565b6000602082019050818103600083015261163c816112b3565b9050919050565b6000606082019050818103600083015261165c81611319565b905061166b60208301856110d1565b6116786040830184611468565b9392505050565b6000602082019050818103600083015261169881611359565b9050919050565b600060608201905081810360008301526116b881611399565b90506116c760208301856110d1565b6116d46040830184611468565b9392505050565b600060208201905081810360008301526116f4816113d9565b9050919050565b6000602082019050818103600083015261171481611419565b9050919050565b60006020820190506117306000830184611468565b92915050565b6000819050602082019050919050565b600081519050919050565b6000602082019050919050565b600082825260208201905092915050565b600082825260208201905092915050565b600061178b826117f2565b9150611796836117f2565b9250828210156117a9576117a861187b565b5b828203905092915050565b60006117bf826117d2565b9050919050565b60008115159050919050565b600073ffffffffffffffffffffffffffffffffffffffff82169050919050565b6000819050919050565b60006118078261180e565b9050919050565b600061181982611820565b9050919050565b600061182b826117d2565b9050919050565b600061183d826117f2565b91507fffffffffffffffffffffffffffffffffffffffffffffffffffffffffffffffff8214156118705761186f61187b565b5b600182019050919050565b7f4e487b7100000000000000000000000000000000000000000000000000000000600052601160045260246000fd5b6118b3816117b4565b81146118be57600080fd5b50565b6118ca816117c6565b81146118d557600080fd5b50565b6118e1816117f2565b81146118ec57600080fd5b5056fea2646970667358221220c0a6e1aa71ac983ca7b2cc4b1ba1e5614f12629e0780e2ca6944b8e3aeba265d64736f6c63430008000033",
  "immutableReferences": {},
  "source": "// SPDX-License-Identifier: UNLICENSED\r\npragma solidity >0.4.22 <=0.9.0;\r\nimport './IKittyMarketPlace.sol';\r\nimport './Ownable.sol';\r\nimport './kittyContract.sol';\r\n\r\ncontract KittyMarketPlace is IKittyMarketPlace,Ownable{\r\n    KittyContract private _kittyContract;\r\n    struct Offer{\r\n        address payable seller;\r\n        uint price;\r\n        uint tokenId;\r\n        uint index;\r\n        bool active;\r\n    }\r\n    Offer[] offers;\r\n    mapping(uint => Offer)tokenIdtoOffer;\r\n\r\n    constructor(address _kittyAddress){\r\n        setKittyContract(_kittyAddress);\r\n    }\r\n\r\n    function setKittyContract(address _kittyContractAddress) public override onlyOwner{\r\n       _kittyContract = KittyContract(_kittyContractAddress);\r\n    }\r\n\r\n    function getOffer(uint256 _tokenId) external view override returns ( address seller, \r\n                                                                uint256 price, \r\n                                                                uint256 index, \r\n                                                                uint256 tokenId, \r\n                                                                bool active){\r\n        require(isActive(_tokenId), 'No active offer for this tokenId');\r\n        Offer storage offer = tokenIdtoOffer[_tokenId];\r\n        seller = offer.seller;\r\n        price = offer.price;\r\n        index = offer.index;\r\n        tokenId = offer.tokenId;\r\n        active = offer.active;\r\n    }\r\n    \r\n    function getAllTokenOnSale() external view override returns(uint256[] memory listOfOffers){\r\n        uint offersLength = offers.length;\r\n        if(offersLength == 0){\r\n           listOfOffers = new uint256[](0); \r\n        }\r\n        else{\r\n          uint[] memory result = new uint[](offersLength); //[0,0]\r\n          for(uint i = 0 ; i < offersLength ; i++){\r\n            if(offers[i].active){\r\n              result[i] = offers[i].tokenId;\r\n            }\r\n         }\r\n         return result;\r\n        } \r\n    }\r\n\r\n    function setOffer(uint256 _price, uint256 _tokenId) external override{\r\n       require(_ownKitty(msg.sender, _tokenId),'Only owners can create an offer');\r\n       require(!isActive(_tokenId),'One offer already exists');\r\n       require(_kittyContract.isApprovedForAll(msg.sender, address(this)),'Market place contract is not an operator');\r\n       _setOffer(_price,_tokenId);\r\n    }\r\n    \r\n    function _setOffer(uint256 _price, uint256 _tokenId) internal {\r\n       offers.push(Offer(payable(msg.sender),_price,_tokenId,offers.length,true));\r\n       tokenIdtoOffer[_tokenId] = offers[offers.length-1];\r\n       \r\n       emit MarketTransaction(\"Create offer\",msg.sender,_tokenId);\r\n    }\r\n\r\n    function removeOffer(uint256 _tokenId) external override{\r\n       require(tokenIdtoOffer[_tokenId].seller == msg.sender,'Only sellers can remove an offer');\r\n       _removeOffer(_tokenId);\r\n    }\r\n\r\n    function _removeOffer(uint256 _tokenId) internal{\r\n        offers[tokenIdtoOffer[_tokenId].index].active = false;\r\n        delete tokenIdtoOffer[_tokenId];\r\n\r\n        emit MarketTransaction(\"Remove offer\",msg.sender,_tokenId);\r\n    }\r\n\r\n    function buyKitty(uint256 _tokenId) external override payable{\r\n        Offer memory offer = tokenIdtoOffer[_tokenId];\r\n        require(isActive(_tokenId),'This kitty is not available for sell');\r\n        require(msg.value == offer.price,'Please send correct amount');\r\n        \r\n        //Delete the kitty from the mapping before paying out\r\n        delete tokenIdtoOffer[_tokenId];\r\n        offers[offer.index].active = false;\r\n        \r\n        if(offer.price > 0){\r\n            offer.seller.transfer(offer.price);\r\n        }\r\n\r\n        _kittyContract.transferFrom(offer.seller, msg.sender, _tokenId);\r\n\r\n        emit MarketTransaction(\"Buy\",msg.sender,_tokenId);\r\n    }\r\n\r\n     function _ownKitty(address claimant,uint _tokenId) internal view returns(bool){\r\n        return (_kittyContract.ownerOf(_tokenId) == claimant);\r\n    }\r\n\r\n    function isActive(uint _tokenId) internal view returns(bool){\r\n        return tokenIdtoOffer[_tokenId].active;\r\n    }\r\n\r\n}",
  "sourcePath": "D:/BlockChain/Ethereum-201/CryptoKitties/academy-kitties-template/contracts/KittyMarketPlace.sol",
  "compiler": {
    "name": "solc",
    "version": "0.8.0+commit.c7dfd78e.Emscripten.clang"
  },
  "schemaVersion": "3.4.1",
  "updatedAt": "2021-08-22T17:48:59.937Z",
  "networkType": "ethereum",
  "devdoc": {
    "kind": "dev",
    "methods": {},
    "version": 1
  },
  "userdoc": {
    "kind": "user",
    "methods": {
      "buyKitty(uint256)": {
        "notice": "Executes the purchase of _tokenId. Sends the funds to the seller and transfers the token using transferFrom in Kittycontract. Emits the MarketTransaction event with txType \"Buy\". Requirement: The msg.value needs to equal the price of _tokenId Requirement: There must be an active offer for _tokenId"
      },
      "getAllTokenOnSale()": {
        "notice": "Get all tokenId's that are currently for sale. Returns an empty arror if none exist."
      },
      "getOffer(uint256)": {
        "notice": "Get the details about a offer for _tokenId. Throws an error if there is no active offer for _tokenId."
      },
      "removeOffer(uint256)": {
        "notice": "Removes an existing offer. Emits the MarketTransaction event with txType \"Remove offer\" Requirement: Only the seller of _tokenId can remove an offer."
      },
      "setKittyContract(address)": {
        "notice": "Set the current KittyContract address and initialize the instance of Kittycontract. Requirement: Only the contract owner can call."
      },
      "setOffer(uint256,uint256)": {
        "notice": "Creates a new offer for _tokenId for the price _price. Emits the MarketTransaction event with txType \"Create offer\" Requirement: Only the owner of _tokenId can create an offer. Requirement: There can only be one active offer for a token at a time. Requirement: Marketplace contract (this) needs to be an approved operator when the offer is created."
      }
    },
    "version": 1
  }
}