{
  "contractName": "KittyContract",
  "abi": [
    {
      "inputs": [],
      "stateMutability": "nonpayable",
      "type": "constructor"
    },
    {
      "anonymous": false,
      "inputs": [
        {
          "indexed": true,
          "internalType": "address",
          "name": "owner",
          "type": "address"
        },
        {
          "indexed": true,
          "internalType": "address",
          "name": "approved",
          "type": "address"
        },
        {
          "indexed": true,
          "internalType": "uint256",
          "name": "tokenId",
          "type": "uint256"
        }
      ],
      "name": "Approval",
      "type": "event"
    },
    {
      "anonymous": false,
      "inputs": [
        {
          "indexed": true,
          "internalType": "address",
          "name": "owner",
          "type": "address"
        },
        {
          "indexed": true,
          "internalType": "address",
          "name": "operator",
          "type": "address"
        },
        {
          "indexed": false,
          "internalType": "bool",
          "name": "approved",
          "type": "bool"
        }
      ],
      "name": "ApprovalForAll",
      "type": "event"
    },
    {
      "anonymous": false,
      "inputs": [
        {
          "indexed": false,
          "internalType": "address",
          "name": "owner",
          "type": "address"
        },
        {
          "indexed": false,
          "internalType": "uint256",
          "name": "kittenId",
          "type": "uint256"
        },
        {
          "indexed": false,
          "internalType": "uint256",
          "name": "mumId",
          "type": "uint256"
        },
        {
          "indexed": false,
          "internalType": "uint256",
          "name": "dadId",
          "type": "uint256"
        },
        {
          "indexed": false,
          "internalType": "uint256",
          "name": "genes",
          "type": "uint256"
        }
      ],
      "name": "Birth",
      "type": "event"
    },
    {
      "anonymous": false,
      "inputs": [
        {
          "indexed": true,
          "internalType": "address",
          "name": "from",
          "type": "address"
        },
        {
          "indexed": true,
          "internalType": "address",
          "name": "to",
          "type": "address"
        },
        {
          "indexed": true,
          "internalType": "uint256",
          "name": "tokenId",
          "type": "uint256"
        }
      ],
      "name": "Transfer",
      "type": "event"
    },
    {
      "inputs": [],
      "name": "CREATION_LIMIT_GEN0",
      "outputs": [
        {
          "internalType": "uint256",
          "name": "",
          "type": "uint256"
        }
      ],
      "stateMutability": "view",
      "type": "function",
      "constant": true
    },
    {
      "inputs": [],
      "name": "_name",
      "outputs": [
        {
          "internalType": "string",
          "name": "",
          "type": "string"
        }
      ],
      "stateMutability": "view",
      "type": "function",
      "constant": true
    },
    {
      "inputs": [],
      "name": "_symbol",
      "outputs": [
        {
          "internalType": "string",
          "name": "",
          "type": "string"
        }
      ],
      "stateMutability": "view",
      "type": "function",
      "constant": true
    },
    {
      "inputs": [
        {
          "internalType": "uint256",
          "name": "",
          "type": "uint256"
        }
      ],
      "name": "kittyIndexToApproved",
      "outputs": [
        {
          "internalType": "address",
          "name": "",
          "type": "address"
        }
      ],
      "stateMutability": "view",
      "type": "function",
      "constant": true
    },
    {
      "inputs": [],
      "name": "owner",
      "outputs": [
        {
          "internalType": "address",
          "name": "",
          "type": "address"
        }
      ],
      "stateMutability": "view",
      "type": "function",
      "constant": true
    },
    {
      "inputs": [
        {
          "internalType": "uint256",
          "name": "",
          "type": "uint256"
        }
      ],
      "name": "tokenOwner",
      "outputs": [
        {
          "internalType": "address",
          "name": "",
          "type": "address"
        }
      ],
      "stateMutability": "view",
      "type": "function",
      "constant": true
    },
    {
      "inputs": [
        {
          "internalType": "bytes4",
          "name": "_interfaceId",
          "type": "bytes4"
        }
      ],
      "name": "supportsInterface",
      "outputs": [
        {
          "internalType": "bool",
          "name": "",
          "type": "bool"
        }
      ],
      "stateMutability": "view",
      "type": "function",
      "constant": true
    },
    {
      "inputs": [
        {
          "internalType": "address",
          "name": "_owner",
          "type": "address"
        }
      ],
      "name": "getKittyIds",
      "outputs": [
        {
          "internalType": "uint256[]",
          "name": "",
          "type": "uint256[]"
        }
      ],
      "stateMutability": "view",
      "type": "function",
      "constant": true
    },
    {
      "inputs": [
        {
          "internalType": "uint256",
          "name": "_tokenId",
          "type": "uint256"
        }
      ],
      "name": "getKitty",
      "outputs": [
        {
          "internalType": "uint256",
          "name": "genes",
          "type": "uint256"
        },
        {
          "internalType": "uint256",
          "name": "birthTime",
          "type": "uint256"
        },
        {
          "internalType": "uint256",
          "name": "mumId",
          "type": "uint256"
        },
        {
          "internalType": "uint256",
          "name": "dadId",
          "type": "uint256"
        },
        {
          "internalType": "uint256",
          "name": "generation",
          "type": "uint256"
        }
      ],
      "stateMutability": "view",
      "type": "function",
      "constant": true
    },
    {
      "inputs": [
        {
          "internalType": "uint256",
          "name": "_genes",
          "type": "uint256"
        }
      ],
      "name": "createKittyGen0",
      "outputs": [
        {
          "internalType": "uint256",
          "name": "",
          "type": "uint256"
        }
      ],
      "stateMutability": "nonpayable",
      "type": "function"
    },
    {
      "inputs": [
        {
          "internalType": "uint256",
          "name": "_dadId",
          "type": "uint256"
        },
        {
          "internalType": "uint256",
          "name": "_mumId",
          "type": "uint256"
        }
      ],
      "name": "breed",
      "outputs": [
        {
          "internalType": "uint256",
          "name": "",
          "type": "uint256"
        }
      ],
      "stateMutability": "nonpayable",
      "type": "function"
    },
    {
      "inputs": [
        {
          "internalType": "address",
          "name": "owner",
          "type": "address"
        }
      ],
      "name": "balanceOf",
      "outputs": [
        {
          "internalType": "uint256",
          "name": "balance",
          "type": "uint256"
        }
      ],
      "stateMutability": "view",
      "type": "function",
      "constant": true
    },
    {
      "inputs": [],
      "name": "totalSupply",
      "outputs": [
        {
          "internalType": "uint256",
          "name": "total",
          "type": "uint256"
        }
      ],
      "stateMutability": "view",
      "type": "function",
      "constant": true
    },
    {
      "inputs": [],
      "name": "name",
      "outputs": [
        {
          "internalType": "string",
          "name": "",
          "type": "string"
        }
      ],
      "stateMutability": "pure",
      "type": "function",
      "constant": true
    },
    {
      "inputs": [],
      "name": "symbol",
      "outputs": [
        {
          "internalType": "string",
          "name": "tokenSymbol",
          "type": "string"
        }
      ],
      "stateMutability": "pure",
      "type": "function",
      "constant": true
    },
    {
      "inputs": [
        {
          "internalType": "uint256",
          "name": "tokenId",
          "type": "uint256"
        }
      ],
      "name": "ownerOf",
      "outputs": [
        {
          "internalType": "address",
          "name": "owner",
          "type": "address"
        }
      ],
      "stateMutability": "view",
      "type": "function",
      "constant": true
    },
    {
      "inputs": [
        {
          "internalType": "address",
          "name": "to",
          "type": "address"
        },
        {
          "internalType": "uint256",
          "name": "tokenId",
          "type": "uint256"
        }
      ],
      "name": "transfer",
      "outputs": [],
      "stateMutability": "nonpayable",
      "type": "function"
    },
    {
      "inputs": [
        {
          "internalType": "address",
          "name": "_approved",
          "type": "address"
        },
        {
          "internalType": "uint256",
          "name": "_tokenId",
          "type": "uint256"
        }
      ],
      "name": "approve",
      "outputs": [],
      "stateMutability": "nonpayable",
      "type": "function"
    },
    {
      "inputs": [
        {
          "internalType": "address",
          "name": "_operator",
          "type": "address"
        },
        {
          "internalType": "bool",
          "name": "_approved",
          "type": "bool"
        }
      ],
      "name": "setApprovalForAll",
      "outputs": [],
      "stateMutability": "nonpayable",
      "type": "function"
    },
    {
      "inputs": [
        {
          "internalType": "uint256",
          "name": "_tokenId",
          "type": "uint256"
        }
      ],
      "name": "getApproved",
      "outputs": [
        {
          "internalType": "address",
          "name": "",
          "type": "address"
        }
      ],
      "stateMutability": "view",
      "type": "function",
      "constant": true
    },
    {
      "inputs": [
        {
          "internalType": "address",
          "name": "_owner",
          "type": "address"
        },
        {
          "internalType": "address",
          "name": "_operator",
          "type": "address"
        }
      ],
      "name": "isApprovedForAll",
      "outputs": [
        {
          "internalType": "bool",
          "name": "",
          "type": "bool"
        }
      ],
      "stateMutability": "view",
      "type": "function",
      "constant": true
    },
    {
      "inputs": [
        {
          "internalType": "address",
          "name": "_from",
          "type": "address"
        },
        {
          "internalType": "address",
          "name": "_to",
          "type": "address"
        },
        {
          "internalType": "uint256",
          "name": "_tokenId",
          "type": "uint256"
        }
      ],
      "name": "transferFrom",
      "outputs": [],
      "stateMutability": "nonpayable",
      "type": "function"
    },
    {
      "inputs": [
        {
          "internalType": "address",
          "name": "_from",
          "type": "address"
        },
        {
          "internalType": "address",
          "name": "_to",
          "type": "address"
        },
        {
          "internalType": "uint256",
          "name": "_tokenId",
          "type": "uint256"
        }
      ],
      "name": "safeTransferFrom",
      "outputs": [],
      "stateMutability": "nonpayable",
      "type": "function"
    },
    {
      "inputs": [
        {
          "internalType": "address",
          "name": "_from",
          "type": "address"
        },
        {
          "internalType": "address",
          "name": "_to",
          "type": "address"
        },
        {
          "internalType": "uint256",
          "name": "_tokenId",
          "type": "uint256"
        },
        {
          "internalType": "bytes",
          "name": "data",
          "type": "bytes"
        }
      ],
      "name": "safeTransferFrom",
      "outputs": [],
      "stateMutability": "nonpayable",
      "type": "function"
    }
  ],
  "bytecode": "0x60806040526380ac58cd60e01b600060146101000a81548163ffffffff021916908360e01c02179055506301ffc9a760e01b600060186101000a81548163ffffffff021916908360e01c02179055503480156200005b57600080fd5b50336000806101000a81548173ffffffffffffffffffffffffffffffffffffffff021916908373ffffffffffffffffffffffffffffffffffffffff160217905550620000d36000807fffffffffffffffffffffffffffffffffffffffffffffffffffffffffffffffff600080620000da60201b60201c565b506200088f565b6000806040518060a001604052808681526020014267ffffffffffffffff1681526020018863ffffffff1681526020018763ffffffff1681526020018561ffff1681525090506000600180549050905060018290806001815401808255809150506001900390600052602060002090600202016000909190919091506000820151816000015560208201518160010160006101000a81548167ffffffffffffffff021916908367ffffffffffffffff16021790555060408201518160010160086101000a81548163ffffffff021916908363ffffffff160217905550606082015181600101600c6101000a81548163ffffffff021916908363ffffffff16021790555060808201518160010160106101000a81548161ffff021916908361ffff16021790555050507f0a5311bd2a6608f08a180df2ee7c5946819a649b204b554bb8e39825b2c50ad584828a8a8a6040516200023b959493929190620006df565b60405180910390a162000257600085836200026560201b60201c565b809250505095945050505050565b600073ffffffffffffffffffffffffffffffffffffffff168373ffffffffffffffffffffffffffffffffffffffff16146200054c576000600660008573ffffffffffffffffffffffffffffffffffffffff1673ffffffffffffffffffffffffffffffffffffffff1681526020019081526020016000208054905090506000805b82811015620003165783811415620003005780915062000316565b80806200030d9062000812565b915050620002e5565b50600660008673ffffffffffffffffffffffffffffffffffffffff1673ffffffffffffffffffffffffffffffffffffffff16815260200190815260200160002060018362000365919062000799565b815481106200039d577f4e487b7100000000000000000000000000000000000000000000000000000000600052603260045260246000fd5b9060005260206000200154600660008773ffffffffffffffffffffffffffffffffffffffff1673ffffffffffffffffffffffffffffffffffffffff168152602001908152602001600020828154811062000420577f4e487b7100000000000000000000000000000000000000000000000000000000600052603260045260246000fd5b9060005260206000200181905550600660008673ffffffffffffffffffffffffffffffffffffffff1673ffffffffffffffffffffffffffffffffffffffff168152602001908152602001600020805480620004a4577f4e487b7100000000000000000000000000000000000000000000000000000000600052603160045260246000fd5b600190038181906000526020600020016000905590556001600260008773ffffffffffffffffffffffffffffffffffffffff1673ffffffffffffffffffffffffffffffffffffffff16815260200190815260200160002060008282546200050c919062000799565b925050819055506004600084815260200190815260200160002060006101000a81549073ffffffffffffffffffffffffffffffffffffffff021916905550505b600660008373ffffffffffffffffffffffffffffffffffffffff1673ffffffffffffffffffffffffffffffffffffffff1681526020019081526020016000208190806001815401808255809150506001900390600052602060002001600090919091909150556001600260008473ffffffffffffffffffffffffffffffffffffffff1673ffffffffffffffffffffffffffffffffffffffff16815260200190815260200160002060008282546200060491906200073c565b92505081905550816003600083815260200190815260200160002060006101000a81548173ffffffffffffffffffffffffffffffffffffffff021916908373ffffffffffffffffffffffffffffffffffffffff160217905550808273ffffffffffffffffffffffffffffffffffffffff168473ffffffffffffffffffffffffffffffffffffffff167fddf252ad1be2c89b69c2b068fc378daa952ba7f163c4a11628f55a4df523b3ef60405160405180910390a4505050565b620006c881620007d4565b82525050565b620006d98162000808565b82525050565b600060a082019050620006f66000830188620006bd565b620007056020830187620006ce565b620007146040830186620006ce565b620007236060830185620006ce565b620007326080830184620006ce565b9695505050505050565b6000620007498262000808565b9150620007568362000808565b9250827fffffffffffffffffffffffffffffffffffffffffffffffffffffffffffffffff038211156200078e576200078d62000860565b5b828201905092915050565b6000620007a68262000808565b9150620007b38362000808565b925082821015620007c957620007c862000860565b5b828203905092915050565b6000620007e182620007e8565b9050919050565b600073ffffffffffffffffffffffffffffffffffffffff82169050919050565b6000819050919050565b60006200081f8262000808565b91507fffffffffffffffffffffffffffffffffffffffffffffffffffffffffffffffff82141562000855576200085462000860565b5b600182019050919050565b7f4e487b7100000000000000000000000000000000000000000000000000000000600052601160045260246000fd5b613266806200089f6000396000f3fe608060405234801561001057600080fd5b50600436106101585760003560e01c80638da5cb5b116100c3578063b88d4fde1161007c578063b88d4fde146103ed578063d28d885214610409578063d5a776ca14610427578063d9ecad7b14610457578063e985e9c514610487578063e98b7f4d146104b757610158565b80638da5cb5b1461033d57806395d89b411461035b578063a22cb46514610379578063a9059cbb14610395578063b09f1266146103b1578063b4834330146103cf57610158565b806323b872dd1161011557806323b872dd1461024557806342842e0e14610261578063481af3d31461027d5780636352211e146102ad57806370a08231146102dd578063788f783f1461030d57610158565b806301ffc9a71461015d57806306fdde031461018d578063081812fc146101ab578063095ea7b3146101db57806318160ddd146101f75780631caaa48714610215575b600080fd5b610177600480360381019061017291906123ed565b6104eb565b6040516101849190612b94565b60405180910390f35b61019561059a565b6040516101a29190612baf565b60405180910390f35b6101c560048036038101906101c0919061243f565b6105d7565b6040516101d29190612ab8565b60405180910390f35b6101f560048036038101906101f091906123b1565b61065b565b005b6101ff61071e565b60405161020c9190612db1565b60405180910390f35b61022f600480360381019061022a919061243f565b61072b565b60405161023c9190612ab8565b60405180910390f35b61025f600480360381019061025a91906122ab565b61075e565b005b61027b600480360381019061027691906122ab565b61095c565b005b6102976004803603810190610292919061243f565b61097c565b6040516102a49190612ab8565b60405180910390f35b6102c760048036038101906102c2919061243f565b6109af565b6040516102d49190612ab8565b60405180910390f35b6102f760048036038101906102f29190612246565b610a8e565b6040516103049190612db1565b60405180910390f35b61032760048036038101906103229190612246565b610ad7565b6040516103349190612b72565b60405180910390f35b610345610b6e565b6040516103529190612ab8565b60405180910390f35b610363610b92565b6040516103709190612baf565b60405180910390f35b610393600480360381019061038e9190612375565b610bcf565b005b6103af60048036038101906103aa91906123b1565b610cb2565b005b6103b9610de9565b6040516103c69190612baf565b60405180910390f35b6103d7610e22565b6040516103e49190612db1565b60405180910390f35b610407600480360381019061040291906122fa565b610e27565b005b610411611027565b60405161041e9190612baf565b60405180910390f35b610441600480360381019061043c919061243f565b611060565b60405161044e9190612db1565b60405180910390f35b610471600480360381019061046c9190612468565b611184565b60405161047e9190612db1565b60405180910390f35b6104a1600480360381019061049c919061226f565b6114ae565b6040516104ae9190612b94565b60405180910390f35b6104d160048036038101906104cc919061243f565b611542565b6040516104e2959493929190612dcc565b60405180910390f35b60008060149054906101000a900460e01b7bffffffffffffffffffffffffffffffffffffffffffffffffffffffff1916827bffffffffffffffffffffffffffffffffffffffffffffffffffffffff191614806105935750600060189054906101000a900460e01b7bffffffffffffffffffffffffffffffffffffffffffffffffffffffff1916827bffffffffffffffffffffffffffffffffffffffffffffffffffffffff1916145b9050919050565b60606040518060400160405280600b81526020017f54616e754b697474696573000000000000000000000000000000000000000000815250905090565b60006001805490508210610620576040517f08c379a000000000000000000000000000000000000000000000000000000000815260040161061790612c91565b60405180910390fd5b6004600083815260200190815260200160002060009054906101000a900473ffffffffffffffffffffffffffffffffffffffff169050919050565b610665338261161e565b806106765750610675338261168a565b5b6106b5576040517f08c379a00000000000000000000000000000000000000000000000000000000081526004016106ac90612cd1565b60405180910390fd5b6106bf82826116f6565b808273ffffffffffffffffffffffffffffffffffffffff163373ffffffffffffffffffffffffffffffffffffffff167f8c5be1e5ebec7d5bd14f71427d1e84f3dd0314c0f7b2291e5b200ac8c7c3b92560405160405180910390a45050565b6000600180549050905090565b60036020528060005260406000206000915054906101000a900473ffffffffffffffffffffffffffffffffffffffff1681565b82828260018054905081106107a8576040517f08c379a000000000000000000000000000000000000000000000000000000000815260040161079f90612cf1565b60405180910390fd5b600073ffffffffffffffffffffffffffffffffffffffff168273ffffffffffffffffffffffffffffffffffffffff161415610818576040517f08c379a000000000000000000000000000000000000000000000000000000000815260040161080f90612d11565b60405180910390fd5b6003600082815260200190815260200160002060009054906101000a900473ffffffffffffffffffffffffffffffffffffffff1673ffffffffffffffffffffffffffffffffffffffff168373ffffffffffffffffffffffffffffffffffffffff16146108b9576040517f08c379a00000000000000000000000000000000000000000000000000000000081526004016108b090612c11565b60405180910390fd5b8273ffffffffffffffffffffffffffffffffffffffff163373ffffffffffffffffffffffffffffffffffffffff1614806108f957506108f8338261168a565b5b8061090a575061090983336114ae565b5b610949576040517f08c379a000000000000000000000000000000000000000000000000000000000815260040161094090612d31565b60405180910390fd5b61095486868661174c565b505050505050565b61097783838360405180602001604052806000815250610e27565b505050565b60046020528060005260406000206000915054906101000a900473ffffffffffffffffffffffffffffffffffffffff1681565b60008073ffffffffffffffffffffffffffffffffffffffff166003600084815260200190815260200160002060009054906101000a900473ffffffffffffffffffffffffffffffffffffffff1673ffffffffffffffffffffffffffffffffffffffff161415610a53576040517f08c379a0000000000000000000000000000000000000000000000000000000008152600401610a4a90612c31565b60405180910390fd5b6003600083815260200190815260200160002060009054906101000a900473ffffffffffffffffffffffffffffffffffffffff169050919050565b6000600260008373ffffffffffffffffffffffffffffffffffffffff1673ffffffffffffffffffffffffffffffffffffffff168152602001908152602001600020549050919050565b6060600660008373ffffffffffffffffffffffffffffffffffffffff1673ffffffffffffffffffffffffffffffffffffffff168152602001908152602001600020805480602002602001604051908101604052809291908181526020018280548015610b6257602002820191906000526020600020905b815481526020019060010190808311610b4e575b50505050509050919050565b60008054906101000a900473ffffffffffffffffffffffffffffffffffffffff1681565b60606040518060400160405280600381526020017f544b540000000000000000000000000000000000000000000000000000000000815250905090565b8173ffffffffffffffffffffffffffffffffffffffff163373ffffffffffffffffffffffffffffffffffffffff161415610c3e576040517f08c379a0000000000000000000000000000000000000000000000000000000008152600401610c3590612bf1565b60405180910390fd5b610c49338383611b94565b8173ffffffffffffffffffffffffffffffffffffffff163373ffffffffffffffffffffffffffffffffffffffff167f17307eab39ab6107e8899845ad3d59bd9653f200f220920489ca2b5937696c3183604051610ca69190612b94565b60405180910390a35050565b600073ffffffffffffffffffffffffffffffffffffffff168273ffffffffffffffffffffffffffffffffffffffff161415610d22576040517f08c379a0000000000000000000000000000000000000000000000000000000008152600401610d1990612c71565b60405180910390fd5b3073ffffffffffffffffffffffffffffffffffffffff168273ffffffffffffffffffffffffffffffffffffffff161415610d91576040517f08c379a0000000000000000000000000000000000000000000000000000000008152600401610d8890612d71565b60405180910390fd5b610d9b338261161e565b610dda576040517f08c379a0000000000000000000000000000000000000000000000000000000008152600401610dd190612c51565b60405180910390fd5b610de533838361174c565b5050565b6040518060400160405280600381526020017f544b54000000000000000000000000000000000000000000000000000000000081525081565b601481565b8383836001805490508110610e71576040517f08c379a0000000000000000000000000000000000000000000000000000000008152600401610e6890612cf1565b60405180910390fd5b600073ffffffffffffffffffffffffffffffffffffffff168273ffffffffffffffffffffffffffffffffffffffff161415610ee1576040517f08c379a0000000000000000000000000000000000000000000000000000000008152600401610ed890612d11565b60405180910390fd5b6003600082815260200190815260200160002060009054906101000a900473ffffffffffffffffffffffffffffffffffffffff1673ffffffffffffffffffffffffffffffffffffffff168373ffffffffffffffffffffffffffffffffffffffff1614610f82576040517f08c379a0000000000000000000000000000000000000000000000000000000008152600401610f7990612c11565b60405180910390fd5b8273ffffffffffffffffffffffffffffffffffffffff163373ffffffffffffffffffffffffffffffffffffffff161480610fc25750610fc1338261168a565b5b80610fd35750610fd283336114ae565b5b611012576040517f08c379a000000000000000000000000000000000000000000000000000000000815260040161100990612d31565b60405180910390fd5b61101e87878787611c2d565b50505050505050565b6040518060400160405280600b81526020017f54616e754b69747469657300000000000000000000000000000000000000000081525081565b60003373ffffffffffffffffffffffffffffffffffffffff1660008054906101000a900473ffffffffffffffffffffffffffffffffffffffff1673ffffffffffffffffffffffffffffffffffffffff16146110f0576040517f08c379a00000000000000000000000000000000000000000000000000000000081526004016110e790612d91565b60405180910390fd5b601460075410611135576040517f08c379a000000000000000000000000000000000000000000000000000000000815260040161112c90612bd1565b60405180910390fd5b60076000815480929190611148906130bc565b919050555061117d6000808460008060009054906101000a900473ffffffffffffffffffffffffffffffffffffffff16611c53565b9050919050565b6000611190338461161e565b6111cf576040517f08c379a00000000000000000000000000000000000000000000000000000000081526004016111c690612cb1565b60405180910390fd5b6111d9338361161e565b611218576040517f08c379a000000000000000000000000000000000000000000000000000000000815260040161120f90612d51565b60405180910390fd5b600060018481548110611254577f4e487b7100000000000000000000000000000000000000000000000000000000600052603260045260246000fd5b90600052602060002090600202016040518060a0016040529081600082015481526020016001820160009054906101000a900467ffffffffffffffff1667ffffffffffffffff1667ffffffffffffffff1681526020016001820160089054906101000a900463ffffffff1663ffffffff1663ffffffff16815260200160018201600c9054906101000a900463ffffffff1663ffffffff1663ffffffff1681526020016001820160109054906101000a900461ffff1661ffff1661ffff16815250509050600060018481548110611353577f4e487b7100000000000000000000000000000000000000000000000000000000600052603260045260246000fd5b90600052602060002090600202016040518060a0016040529081600082015481526020016001820160009054906101000a900467ffffffffffffffff1667ffffffffffffffff1667ffffffffffffffff1681526020016001820160089054906101000a900463ffffffff1663ffffffff1663ffffffff16815260200160018201600c9054906101000a900463ffffffff1663ffffffff1663ffffffff1681526020016001820160109054906101000a900461ffff1661ffff1661ffff16815250509050600061142a83600001518360000151611dd4565b9050600085871115611459576001876114439190612ef1565b90506002816114529190612f47565b9050611495565b858710156114845760018661146e9190612ef1565b905060028161147d9190612f47565b9050611494565b6001876114919190612ef1565b90505b5b6114a28688848433611c53565b94505050505092915050565b6000600560008473ffffffffffffffffffffffffffffffffffffffff1673ffffffffffffffffffffffffffffffffffffffff16815260200190815260200160002060008373ffffffffffffffffffffffffffffffffffffffff1673ffffffffffffffffffffffffffffffffffffffff16815260200190815260200160002060009054906101000a900460ff16905092915050565b60008060008060008060018781548110611585577f4e487b7100000000000000000000000000000000000000000000000000000000600052603260045260246000fd5b90600052602060002090600202019050806000015495508060010160009054906101000a900467ffffffffffffffff1667ffffffffffffffff1694508060010160089054906101000a900463ffffffff1663ffffffff16935080600101600c9054906101000a900463ffffffff1663ffffffff1692508060010160109054906101000a900461ffff1661ffff1691505091939590929450565b60008273ffffffffffffffffffffffffffffffffffffffff166003600084815260200190815260200160002060009054906101000a900473ffffffffffffffffffffffffffffffffffffffff1673ffffffffffffffffffffffffffffffffffffffff1614905092915050565b60008273ffffffffffffffffffffffffffffffffffffffff166004600084815260200190815260200160002060009054906101000a900473ffffffffffffffffffffffffffffffffffffffff1673ffffffffffffffffffffffffffffffffffffffff1614905092915050565b816004600083815260200190815260200160002060006101000a81548173ffffffffffffffffffffffffffffffffffffffff021916908373ffffffffffffffffffffffffffffffffffffffff1602179055505050565b600073ffffffffffffffffffffffffffffffffffffffff168373ffffffffffffffffffffffffffffffffffffffff1614611a25576000600660008573ffffffffffffffffffffffffffffffffffffffff1673ffffffffffffffffffffffffffffffffffffffff1681526020019081526020016000208054905090506000805b828110156117f657838114156117e3578091506117f6565b80806117ee906130bc565b9150506117cb565b50600660008673ffffffffffffffffffffffffffffffffffffffff1673ffffffffffffffffffffffffffffffffffffffff1681526020019081526020016000206001836118439190612fd2565b8154811061187a577f4e487b7100000000000000000000000000000000000000000000000000000000600052603260045260246000fd5b9060005260206000200154600660008773ffffffffffffffffffffffffffffffffffffffff1673ffffffffffffffffffffffffffffffffffffffff16815260200190815260200160002082815481106118fc577f4e487b7100000000000000000000000000000000000000000000000000000000600052603260045260246000fd5b9060005260206000200181905550600660008673ffffffffffffffffffffffffffffffffffffffff1673ffffffffffffffffffffffffffffffffffffffff16815260200190815260200160002080548061197f577f4e487b7100000000000000000000000000000000000000000000000000000000600052603160045260246000fd5b600190038181906000526020600020016000905590556001600260008773ffffffffffffffffffffffffffffffffffffffff1673ffffffffffffffffffffffffffffffffffffffff16815260200190815260200160002060008282546119e59190612fd2565b925050819055506004600084815260200190815260200160002060006101000a81549073ffffffffffffffffffffffffffffffffffffffff021916905550505b600660008373ffffffffffffffffffffffffffffffffffffffff1673ffffffffffffffffffffffffffffffffffffffff1681526020019081526020016000208190806001815401808255809150506001900390600052602060002001600090919091909150556001600260008473ffffffffffffffffffffffffffffffffffffffff1673ffffffffffffffffffffffffffffffffffffffff1681526020019081526020016000206000828254611adb9190612ef1565b92505081905550816003600083815260200190815260200160002060006101000a81548173ffffffffffffffffffffffffffffffffffffffff021916908373ffffffffffffffffffffffffffffffffffffffff160217905550808273ffffffffffffffffffffffffffffffffffffffff168473ffffffffffffffffffffffffffffffffffffffff167fddf252ad1be2c89b69c2b068fc378daa952ba7f163c4a11628f55a4df523b3ef60405160405180910390a4505050565b80600560008573ffffffffffffffffffffffffffffffffffffffff1673ffffffffffffffffffffffffffffffffffffffff16815260200190815260200160002060008473ffffffffffffffffffffffffffffffffffffffff1673ffffffffffffffffffffffffffffffffffffffff16815260200190815260200160002060006101000a81548160ff021916908315150217905550505050565b611c3884848461174c565b611c448484848461201f565b611c4d57600080fd5b50505050565b6000806040518060a001604052808681526020014267ffffffffffffffff1681526020018863ffffffff1681526020018763ffffffff1681526020018561ffff1681525090506000600180549050905060018290806001815401808255809150506001900390600052602060002090600202016000909190919091506000820151816000015560208201518160010160006101000a81548167ffffffffffffffff021916908367ffffffffffffffff16021790555060408201518160010160086101000a81548163ffffffff021916908363ffffffff160217905550606082015181600101600c6101000a81548163ffffffff021916908363ffffffff16021790555060808201518160010160106101000a81548161ffff021916908361ffff16021790555050507f0a5311bd2a6608f08a180df2ee7c5946819a649b204b554bb8e39825b2c50ad584828a8a8a604051611db2959493929190612b1f565b60405180910390a1611dc66000858361174c565b809250505095945050505050565b6000611dde612152565b600061010042611dee9190613105565b90506000600790506000600190505b60808111611f00576000818460ff161614611e6657606486611e1f9190613105565b848360088110611e58577f4e487b7100000000000000000000000000000000000000000000000000000000600052603260045260246000fd5b602002018181525050611eb6565b606487611e739190613105565b848360088110611eac577f4e487b7100000000000000000000000000000000000000000000000000000000600052603260045260246000fd5b6020020181815250505b606486611ec39190612f47565b9550606487611ed29190612f47565b965060808114611eec57600182611ee99190612fd2565b91505b600281611ef99190612f78565b9050611dfd565b5060005b6004811015611f8d576000600842611f1c9190613105565b90506000606442611f2d9190613105565b90508060ff16868360ff1660088110611f6f577f4e487b7100000000000000000000000000000000000000000000000000000000600052603260045260246000fd5b60200201818152505050508080611f85906130bc565b915050611f04565b506000805b600881101561201157848160088110611fd4577f4e487b7100000000000000000000000000000000000000000000000000000000600052603260045260246000fd5b602002015182611fe49190612ef1565b915060078114611ffe57606482611ffb9190612f78565b91505b8080612009906130bc565b915050611f92565b508094505050505092915050565b600061202a84612139565b6120375760019050612131565b60008473ffffffffffffffffffffffffffffffffffffffff1663150b7a02338887876040518563ffffffff1660e01b81526004016120789493929190612ad3565b602060405180830381600087803b15801561209257600080fd5b505af11580156120a6573d6000803e3d6000fd5b505050506040513d601f19601f820116820180604052508101906120ca9190612416565b90507f150b7a023d4804d13e8c85fb27262cb750cf6ba9f9dd3bb30d90f482ceeb4b1f7bffffffffffffffffffffffffffffffffffffffffffffffffffffffff1916817bffffffffffffffffffffffffffffffffffffffffffffffffffffffff1916149150505b949350505050565b600080823b905060008163ffffffff1611915050919050565b604051806101000160405280600890602082028036833780820191505090505090565b600061218861218384612e50565b612e1f565b9050828152602081018484840111156121a057600080fd5b6121ab84828561307a565b509392505050565b6000813590506121c2816131d4565b92915050565b6000813590506121d7816131eb565b92915050565b6000813590506121ec81613202565b92915050565b60008151905061220181613202565b92915050565b600082601f83011261221857600080fd5b8135612228848260208601612175565b91505092915050565b60008135905061224081613219565b92915050565b60006020828403121561225857600080fd5b6000612266848285016121b3565b91505092915050565b6000806040838503121561228257600080fd5b6000612290858286016121b3565b92505060206122a1858286016121b3565b9150509250929050565b6000806000606084860312156122c057600080fd5b60006122ce868287016121b3565b93505060206122df868287016121b3565b92505060406122f086828701612231565b9150509250925092565b6000806000806080858703121561231057600080fd5b600061231e878288016121b3565b945050602061232f878288016121b3565b935050604061234087828801612231565b925050606085013567ffffffffffffffff81111561235d57600080fd5b61236987828801612207565b91505092959194509250565b6000806040838503121561238857600080fd5b6000612396858286016121b3565b92505060206123a7858286016121c8565b9150509250929050565b600080604083850312156123c457600080fd5b60006123d2858286016121b3565b92505060206123e385828601612231565b9150509250929050565b6000602082840312156123ff57600080fd5b600061240d848285016121dd565b91505092915050565b60006020828403121561242857600080fd5b6000612436848285016121f2565b91505092915050565b60006020828403121561245157600080fd5b600061245f84828501612231565b91505092915050565b6000806040838503121561247b57600080fd5b600061248985828601612231565b925050602061249a85828601612231565b9150509250929050565b60006124b08383612a9a565b60208301905092915050565b6124c581613006565b82525050565b60006124d682612e90565b6124e08185612ebe565b93506124eb83612e80565b8060005b8381101561251c57815161250388826124a4565b975061250e83612eb1565b9250506001810190506124ef565b5085935050505092915050565b61253281613018565b82525050565b600061254382612e9b565b61254d8185612ecf565b935061255d818560208601613089565b612566816131c3565b840191505092915050565b600061257c82612ea6565b6125868185612ee0565b9350612596818560208601613089565b61259f816131c3565b840191505092915050565b60006125b7601b83612ee0565b91507f47656e30206372656174696f6e206c696d6974206578636565647300000000006000830152602082019050919050565b60006125f7601a83612ee0565b91507f596f752063616e277420617070726f766520796f757273656c660000000000006000830152602082019050919050565b6000612637602c83612ee0565b91507f53656e646572206163636f756e7420646f65736e27742062656c6f6e6720746f60008301527f20746f6b656e206f776e657200000000000000000000000000000000000000006020830152604082019050919050565b600061269d602083612ee0565b91507f546f6b656e2077697468207468697320494420646f65736e27742065786973746000830152602082019050919050565b60006126dd602283612ee0565b91507f596f75277265206e6f7420746865206f776e6572206f66207468697320746f6b60008301527f656e0000000000000000000000000000000000000000000000000000000000006020830152604082019050919050565b6000612743602083612ee0565b91507f52656365697665722063616e206e6f74206265207a65726f20616464726573736000830152602082019050919050565b6000612783600d83612ee0565b91507f496e76616c696420746f6b656e000000000000000000000000000000000000006000830152602082019050919050565b60006127c3602683612ee0565b91507f44616420746f6b656e20646f6573206e6f742062656c6f6e6720746f2074686560008301527f206f776e657200000000000000000000000000000000000000000000000000006020830152604082019050919050565b6000612829602583612ee0565b91507f536f6d656f6e6520656c73652069732074616d706572696e672074686520617060008301527f70726f76650000000000000000000000000000000000000000000000000000006020830152604082019050919050565b600061288f601083612ee0565b91507f496e76616c696420746f6b656e204964000000000000000000000000000000006000830152602082019050919050565b60006128cf602983612ee0565b91507f526563656976657220616464726573732073686f756c64206e6f74206265206160008301527f64647265737328302900000000000000000000000000000000000000000000006020830152604082019050919050565b6000612935602883612ee0565b91507f556e617574686f72697a65642074616d706572696e672077697468207472616e60008301527f7366657246726f6d0000000000000000000000000000000000000000000000006020830152604082019050919050565b600061299b602683612ee0565b91507f4d756d20746f6b656e20646f6573206e6f742062656c6f6e6720746f2074686560008301527f206f776e657200000000000000000000000000000000000000000000000000006020830152604082019050919050565b6000612a01602983612ee0565b91507f596f752063616e2774207472616e7366657220746f6b656e20746f207468697360008301527f20636f6e747261637400000000000000000000000000000000000000000000006020830152604082019050919050565b6000612a67601883612ee0565b91507f41636365737369626c6520746f206f776e6572206f6e6c7900000000000000006000830152602082019050919050565b612aa381613070565b82525050565b612ab281613070565b82525050565b6000602082019050612acd60008301846124bc565b92915050565b6000608082019050612ae860008301876124bc565b612af560208301866124bc565b612b026040830185612aa9565b8181036060830152612b148184612538565b905095945050505050565b600060a082019050612b3460008301886124bc565b612b416020830187612aa9565b612b4e6040830186612aa9565b612b5b6060830185612aa9565b612b686080830184612aa9565b9695505050505050565b60006020820190508181036000830152612b8c81846124cb565b905092915050565b6000602082019050612ba96000830184612529565b92915050565b60006020820190508181036000830152612bc98184612571565b905092915050565b60006020820190508181036000830152612bea816125aa565b9050919050565b60006020820190508181036000830152612c0a816125ea565b9050919050565b60006020820190508181036000830152612c2a8161262a565b9050919050565b60006020820190508181036000830152612c4a81612690565b9050919050565b60006020820190508181036000830152612c6a816126d0565b9050919050565b60006020820190508181036000830152612c8a81612736565b9050919050565b60006020820190508181036000830152612caa81612776565b9050919050565b60006020820190508181036000830152612cca816127b6565b9050919050565b60006020820190508181036000830152612cea8161281c565b9050919050565b60006020820190508181036000830152612d0a81612882565b9050919050565b60006020820190508181036000830152612d2a816128c2565b9050919050565b60006020820190508181036000830152612d4a81612928565b9050919050565b60006020820190508181036000830152612d6a8161298e565b9050919050565b60006020820190508181036000830152612d8a816129f4565b9050919050565b60006020820190508181036000830152612daa81612a5a565b9050919050565b6000602082019050612dc66000830184612aa9565b92915050565b600060a082019050612de16000830188612aa9565b612dee6020830187612aa9565b612dfb6040830186612aa9565b612e086060830185612aa9565b612e156080830184612aa9565b9695505050505050565b6000604051905081810181811067ffffffffffffffff82111715612e4657612e45613194565b5b8060405250919050565b600067ffffffffffffffff821115612e6b57612e6a613194565b5b601f19601f8301169050602081019050919050565b6000819050602082019050919050565b600081519050919050565b600081519050919050565b600081519050919050565b6000602082019050919050565b600082825260208201905092915050565b600082825260208201905092915050565b600082825260208201905092915050565b6000612efc82613070565b9150612f0783613070565b9250827fffffffffffffffffffffffffffffffffffffffffffffffffffffffffffffffff03821115612f3c57612f3b613136565b5b828201905092915050565b6000612f5282613070565b9150612f5d83613070565b925082612f6d57612f6c613165565b5b828204905092915050565b6000612f8382613070565b9150612f8e83613070565b9250817fffffffffffffffffffffffffffffffffffffffffffffffffffffffffffffffff0483118215151615612fc757612fc6613136565b5b828202905092915050565b6000612fdd82613070565b9150612fe883613070565b925082821015612ffb57612ffa613136565b5b828203905092915050565b600061301182613050565b9050919050565b60008115159050919050565b60007fffffffff0000000000000000000000000000000000000000000000000000000082169050919050565b600073ffffffffffffffffffffffffffffffffffffffff82169050919050565b6000819050919050565b82818337600083830152505050565b60005b838110156130a757808201518184015260208101905061308c565b838111156130b6576000848401525b50505050565b60006130c782613070565b91507fffffffffffffffffffffffffffffffffffffffffffffffffffffffffffffffff8214156130fa576130f9613136565b5b600182019050919050565b600061311082613070565b915061311b83613070565b92508261312b5761312a613165565b5b828206905092915050565b7f4e487b7100000000000000000000000000000000000000000000000000000000600052601160045260246000fd5b7f4e487b7100000000000000000000000000000000000000000000000000000000600052601260045260246000fd5b7f4e487b7100000000000000000000000000000000000000000000000000000000600052604160045260246000fd5b6000601f19601f8301169050919050565b6131dd81613006565b81146131e857600080fd5b50565b6131f481613018565b81146131ff57600080fd5b50565b61320b81613024565b811461321657600080fd5b50565b61322281613070565b811461322d57600080fd5b5056fea264697066735822122057e1c680ed5bf3d7af9af83cdea35245c3edf074fd6e564ef692ae796d99c79564736f6c63430008000033",
  "immutableReferences": {},
  "source": "// SPDX-License-Identifier: UNLICENSED\r\npragma solidity >0.4.22 <=0.9.0;\r\nimport './IERC721.sol';\r\nimport './Ownable.sol';\r\nimport './IERC721Receiver.sol';\r\n\r\ncontract KittyContract is IERC721,Ownable{\r\n   string public constant _name = \"TanuKitties\";\r\n   string public constant _symbol = \"TKT\";\r\n   uint public constant CREATION_LIMIT_GEN0 = 20;\r\n   bytes4 internal constant MAGIC_ERC721_RECEIVED = bytes4(keccak256(\"onERC721Received(address,address,uint256,bytes)\"));\r\n   bytes4 private _INTERFACE_ID_ERC721 = 0x80ac58cd;\r\n   bytes4 private _INTERFACE_ID_ERC165 = 0x01ffc9a7;\r\n\r\n   event Birth(address owner, uint kittenId,uint mumId,uint dadId,uint genes);\r\n\r\n   struct Kitty{\r\n       uint256 genes;\r\n       uint64 birthTime;\r\n       uint32 mumId;\r\n       uint32 dadId;\r\n       uint16 generation;\r\n   }\r\n   Kitty[] kitties;\r\n\r\n   mapping(address => uint)private ownershipTokenCount; //token owner => #tokens\r\n   mapping(uint => address)public tokenOwner; // tokenId => tokenowner\r\n   mapping(uint => address) public kittyIndexToApproved;\r\n   mapping(address => mapping(address => bool))private _operatorApprovals;\r\n   mapping(address => uint[]) private ownerToKittyIds;\r\n   uint gen0Counter;\r\n   \r\n   constructor(){\r\n     _createKitty(0,0,type(uint).max,0,address(0));\r\n   }\r\n   modifier checkTransfer(address _from, address _to, uint256 _tokenId){\r\n      require(_tokenId < kitties.length,'Invalid token Id');\r\n      require(_to != address(0),\"Receiver address should not be address(0)\");\r\n      require(_from == tokenOwner[_tokenId],\"Sender account doesn't belong to token owner\");\r\n      require(msg.sender == _from || operates(msg.sender,_tokenId) || isApprovedForAll(_from,msg.sender),'Unauthorized tampering with transferFrom');\r\n      _;\r\n   }\r\n   \r\n   function supportsInterface(bytes4 _interfaceId) external view returns(bool){\r\n      return(_interfaceId == _INTERFACE_ID_ERC721 || _interfaceId == _INTERFACE_ID_ERC165);\r\n   }\r\n   \r\n   function getKittyIds(address _owner) public view returns(uint[] memory){\r\n      return ownerToKittyIds[_owner];\r\n   }\r\n\r\n   function getKitty(uint _tokenId) public virtual view returns(uint genes,\r\n                                                          uint birthTime,\r\n                                                          uint mumId,\r\n                                                          uint dadId,\r\n                                                          uint generation){\r\n      Kitty storage tempKitty = kitties[_tokenId];\r\n      genes = tempKitty.genes;\r\n      birthTime = tempKitty.birthTime;\r\n      mumId = tempKitty.mumId;\r\n      dadId = tempKitty.dadId;\r\n      generation = tempKitty.generation;\r\n   }\r\n\r\n   function createKittyGen0(uint _genes) public onlyOwner returns(uint){\r\n     require(gen0Counter < CREATION_LIMIT_GEN0,'Gen0 creation limit exceeds');\r\n     gen0Counter++;\r\n     return _createKitty(0,0,_genes,0,owner); \r\n   }\r\n\r\n   function _createKitty(uint _mumId,uint _dadId,uint _genes,uint _generation, address _owner) private returns(uint){\r\n     Kitty memory newKitty = Kitty({genes :_genes,\r\n                                    birthTime: uint64(block.timestamp),\r\n                                    mumId: uint32(_mumId),\r\n                                    dadId: uint32(_dadId),\r\n                                    generation: uint16(_generation)});\r\n     uint newID = kitties.length;\r\n     kitties.push(newKitty);\r\n     emit Birth(_owner,newID,_mumId,_dadId,_genes);\r\n     _transfer(address(0),_owner,newID);\r\n\r\n     return newID;\r\n   }\r\n   \r\n   function breed(uint _dadId, uint _mumId) public returns(uint){\r\n      require(owns(msg.sender,_dadId),'Dad token does not belong to the owner');\r\n      require(owns(msg.sender,_mumId),'Mum token does not belong to the owner');\r\n      Kitty memory dad = kitties[_dadId];\r\n      Kitty memory mum = kitties[_mumId];\r\n      uint babyDNA = _mixDNA(dad.genes,mum.genes);\r\n\r\n      uint babyGEN = 0;\r\n      if(_dadId > _mumId){\r\n         babyGEN = _dadId + 1;\r\n         babyGEN /= 2;\r\n      }\r\n      else if(_dadId < _mumId){\r\n         babyGEN = _mumId + 1;\r\n         babyGEN /= 2;\r\n      }\r\n      else{\r\n         babyGEN = _dadId + 1;\r\n      }\r\n\r\n      return _createKitty(_mumId,_dadId,babyDNA,babyGEN,msg.sender);\r\n   }\r\n   function _mixDNA(uint dadDNA,uint mumDNA) view internal returns(uint){\r\n      uint[8] memory geneArray;\r\n      uint8 random = uint8(block.timestamp % 256);\r\n      uint index = 7;\r\n\r\n      for(uint i = 1 ; i <= 128 ; i*=2){\r\n       if(random & i != 0){\r\n          //mum\r\n         geneArray[index] = mumDNA % 100;\r\n       }\r\n       else{\r\n         geneArray[index] = dadDNA % 100;\r\n\r\n       }\r\n       mumDNA = mumDNA / 100;\r\n       dadDNA = dadDNA / 100;\r\n       if(i != 128){index = index-1;}\r\n      }\r\n\r\n      for(uint i = 0 ; i < 4 ; i++){\r\n          uint8 pos = uint8(block.timestamp % 8); //0-7\r\n          uint8 newRandom = uint8(block.timestamp % 100);//0-99\r\n          geneArray[pos] = newRandom;\r\n      }\r\n      \r\n      uint newGene = 0;\r\n      for(uint i = 0 ; i < 8 ; i++){\r\n         newGene = newGene + geneArray[i];\r\n         if(i != 7){\r\n           newGene = newGene * 100;\r\n         } \r\n      }\r\n      return newGene;\r\n   }\r\n\r\n   function balanceOf(address owner) public virtual view override returns (uint256 balance){\r\n       balance = ownershipTokenCount[owner];\r\n   }\r\n   \r\n   function totalSupply() public virtual view override returns (uint256 total){\r\n      total = kitties.length;\r\n   }\r\n\r\n   function name() public virtual pure override returns (string memory){\r\n      return _name;\r\n   }\r\n\r\n   function symbol() public virtual pure override returns (string memory tokenSymbol){\r\n       tokenSymbol = _symbol;\r\n   }\r\n\r\n   function ownerOf(uint256 tokenId) public virtual view override returns (address owner){\r\n      require(tokenOwner[tokenId] != address(0),\"Token with this ID doesn't exist\");\r\n      owner = tokenOwner[tokenId];\r\n   }\r\n   \r\n   function transfer(address to, uint256 tokenId) public virtual override{\r\n      require(to != address(0),\"Receiver can not be zero address\");\r\n      require(to != address(this),\"You can't transfer token to this contract\");\r\n      require(owns(msg.sender,tokenId),\"You're not the owner of this token\");\r\n      _transfer(msg.sender, to, tokenId);\r\n   }\r\n\r\n   function _transfer(address from, address to, uint tokenId) internal{\r\n       //from\r\n       if(from != address(0)){\r\n        uint len = ownerToKittyIds[from].length;\r\n        uint rowToDelete = 0;\r\n        for(uint i = 0 ; i < len ; i++){\r\n           if(i == tokenId){\r\n              rowToDelete = i;\r\n              break;\r\n           }\r\n        }\r\n        ownerToKittyIds[from][rowToDelete] = ownerToKittyIds[from][len-1];\r\n        ownerToKittyIds[from].pop();\r\n        ownershipTokenCount[from] -= 1;\r\n        delete kittyIndexToApproved[tokenId]; //nice point\r\n       }\r\n       \r\n       //to\r\n       ownerToKittyIds[to].push(tokenId);\r\n       ownershipTokenCount[to] += 1;\r\n       tokenOwner[tokenId] = to;\r\n\r\n       emit Transfer(from,to,tokenId);\r\n   }\r\n\r\n   function approve(address _approved, uint256 _tokenId) public virtual override{\r\n      require(owns(msg.sender,_tokenId) || operates(msg.sender,_tokenId),'Someone else is tampering the approve');\r\n      _approve(_approved,_tokenId);\r\n      emit Approval(msg.sender, _approved, _tokenId);\r\n   }\r\n\r\n   function _approve(address _approved, uint _tokenId)private{\r\n       kittyIndexToApproved[_tokenId] = _approved;\r\n   }\r\n\r\n   function setApprovalForAll(address _operator, bool _approved) public virtual override{\r\n      require(msg.sender != _operator,\"You can't approve yourself\");\r\n      _setApprovalForAll(msg.sender,_operator,_approved);\r\n      emit ApprovalForAll(msg.sender,_operator,_approved);\r\n   }\r\n   \r\n   function _setApprovalForAll(address _owner,address _operator,bool _approved)private{\r\n      _operatorApprovals[_owner][_operator] = _approved;\r\n   }\r\n\r\n   function getApproved(uint256 _tokenId) public virtual view override returns (address){\r\n       require(_tokenId < kitties.length,'Invalid token');\r\n       return kittyIndexToApproved[_tokenId];\r\n   }\r\n\r\n   function isApprovedForAll(address _owner, address _operator) public virtual view override returns (bool){\r\n     return _operatorApprovals[_owner][_operator];\r\n   }\r\n   \r\n   function transferFrom(address _from, address _to, uint256 _tokenId) public virtual override checkTransfer(_from,_to,_tokenId){\r\n      _transfer(_from,_to,_tokenId);\r\n   }\r\n\r\n   function safeTransferFrom(address _from, address _to, uint256 _tokenId) public virtual override {\r\n     safeTransferFrom(_from,_to,_tokenId,\"\");\r\n   }\r\n\r\n   function safeTransferFrom(address _from, address _to, uint256 _tokenId, bytes memory data) public virtual override checkTransfer(_from,_to,_tokenId){\r\n       _safeTransfer(_from,_to,_tokenId,data);\r\n   }\r\n\r\n   function _safeTransfer(address _from, address _to, uint _tokenId,bytes memory _data)  internal{\r\n        _transfer(_from, _to,_tokenId);\r\n        require(_checkERC721Support(_from,_to,_tokenId,_data));\r\n   }\r\n   function _checkERC721Support(address _from, address _to, uint _tokenId,bytes memory _data) internal returns(bool){\r\n      if(!isContract(_to)){\r\n         return true;\r\n      }\r\n      bytes4 returnData = IERC721Receiver(_to).onERC721Received(msg.sender,_from, _tokenId,_data);\r\n      return returnData == MAGIC_ERC721_RECEIVED;\r\n   }\r\n\r\n   function isContract(address _to)internal view returns(bool){\r\n      uint32 size;\r\n      assembly {\r\n         size := extcodesize(_to)\r\n      }\r\n      return (size > 0);\r\n   }\r\n\r\n   function owns(address claimant, uint tokenID)internal view returns(bool){\r\n      return (tokenOwner[tokenID] == claimant);\r\n   }\r\n\r\n   function operates(address _approved,uint _tokenId) internal view returns(bool){\r\n      return kittyIndexToApproved[_tokenId] == _approved;\r\n   }\r\n\r\n\r\n\r\n}",
  "sourcePath": "D:/BlockChain/Ethereum-201/CryptoKitties/academy-kitties-template/contracts/kittyContract.sol",
  "compiler": {
    "name": "solc",
    "version": "0.8.0+commit.c7dfd78e.Emscripten.clang"
  },
  "schemaVersion": "3.4.1",
  "updatedAt": "2021-08-18T14:14:20.478Z",
  "networkType": "ethereum",
  "devdoc": {
    "kind": "dev",
    "methods": {
      "approve(address,uint256)": {
        "details": "The zero address indicates there is no approved address.  Throws unless `msg.sender` is the current NFT owner, or an authorized  operator of the current owner.",
        "params": {
          "_approved": "The new approved NFT controller",
          "_tokenId": "The NFT to approve"
        }
      },
      "balanceOf(address)": {
        "details": "Returns the number of tokens in ``owner``'s account."
      },
      "getApproved(uint256)": {
        "details": "Throws if `_tokenId` is not a valid NFT.",
        "params": {
          "_tokenId": "The NFT to find the approved address for"
        },
        "returns": {
          "_0": "The approved address for this NFT, or the zero address if there is none"
        }
      },
      "isApprovedForAll(address,address)": {
        "params": {
          "_operator": "The address that acts on behalf of the owner",
          "_owner": "The address that owns the NFTs"
        },
        "returns": {
          "_0": "True if `_operator` is an approved operator for `_owner`, false otherwise"
        }
      },
      "ownerOf(uint256)": {
        "details": "Returns the owner of the `tokenId` token. Requirements: - `tokenId` must exist."
      },
      "safeTransferFrom(address,address,uint256)": {
        "details": "This works identically to the other function with an extra data parameter,  except this function just sets data to \"\".",
        "params": {
          "_from": "The current owner of the NFT",
          "_to": "The new owner",
          "_tokenId": "The NFT to transfer"
        }
      },
      "safeTransferFrom(address,address,uint256,bytes)": {
        "details": "Throws unless `msg.sender` is the current owner, an authorized  operator, or the approved address for this NFT. Throws if `_from` is  not the current owner. Throws if `_to` is the zero address. Throws if  `_tokenId` is not a valid NFT. When transfer is complete, this function  checks if `_to` is a smart contract (code size > 0). If so, it calls  `onERC721Received` on `_to` and throws if the return value is not  `bytes4(keccak256(\"onERC721Received(address,address,uint256,bytes)\"))`.",
        "params": {
          "_from": "The current owner of the NFT",
          "_to": "The new owner",
          "_tokenId": "The NFT to transfer",
          "data": "Additional data with no specified format, sent in call to `_to`"
        }
      },
      "setApprovalForAll(address,bool)": {
        "details": "Emits the ApprovalForAll event. The contract MUST allow  multiple operators per owner.",
        "params": {
          "_approved": "True if the operator is approved, false to revoke approval",
          "_operator": "Address to add to the set of authorized operators"
        }
      },
      "transferFrom(address,address,uint256)": {
        "details": "Throws unless `msg.sender` is the current owner, an authorized  operator, or the approved address for this NFT. Throws if `_from` is  not the current owner. Throws if `_to` is the zero address. Throws if  `_tokenId` is not a valid NFT.",
        "params": {
          "_from": "The current owner of the NFT",
          "_to": "The new owner",
          "_tokenId": "The NFT to transfer"
        }
      }
    },
    "version": 1
  },
  "userdoc": {
    "kind": "user",
    "methods": {
      "approve(address,uint256)": {
        "notice": "Change or reaffirm the approved address for an NFT"
      },
      "getApproved(uint256)": {
        "notice": "Get the approved address for a single NFT"
      },
      "isApprovedForAll(address,address)": {
        "notice": "Query if an address is an authorized operator for another address"
      },
      "safeTransferFrom(address,address,uint256)": {
        "notice": "Transfers the ownership of an NFT from one address to another address"
      },
      "safeTransferFrom(address,address,uint256,bytes)": {
        "notice": "Transfers the ownership of an NFT from one address to another address"
      },
      "setApprovalForAll(address,bool)": {
        "notice": "Enable or disable approval for a third party (\"operator\") to manage  all of `msg.sender`'s assets"
      },
      "transferFrom(address,address,uint256)": {
        "notice": "Transfer ownership of an NFT -- THE CALLER IS RESPONSIBLE  TO CONFIRM THAT `_to` IS CAPABLE OF RECEIVING NFTS OR ELSE  THEY MAY BE PERMANENTLY LOST"
      }
    },
    "version": 1
  }
}