{
  "contractName": "KittyContract",
  "abi": [
    {
      "anonymous": false,
      "inputs": [
        {
          "indexed": true,
          "internalType": "address",
          "name": "owner",
          "type": "address"
        },
        {
          "indexed": true,
          "internalType": "address",
          "name": "approved",
          "type": "address"
        },
        {
          "indexed": true,
          "internalType": "uint256",
          "name": "tokenId",
          "type": "uint256"
        }
      ],
      "name": "Approval",
      "type": "event"
    },
    {
      "anonymous": false,
      "inputs": [
        {
          "indexed": true,
          "internalType": "address",
          "name": "owner",
          "type": "address"
        },
        {
          "indexed": true,
          "internalType": "address",
          "name": "operator",
          "type": "address"
        },
        {
          "indexed": false,
          "internalType": "bool",
          "name": "approved",
          "type": "bool"
        }
      ],
      "name": "ApprovalForAll",
      "type": "event"
    },
    {
      "anonymous": false,
      "inputs": [
        {
          "indexed": false,
          "internalType": "address",
          "name": "owner",
          "type": "address"
        },
        {
          "indexed": false,
          "internalType": "uint256",
          "name": "kittenId",
          "type": "uint256"
        },
        {
          "indexed": false,
          "internalType": "uint256",
          "name": "mumId",
          "type": "uint256"
        },
        {
          "indexed": false,
          "internalType": "uint256",
          "name": "dadId",
          "type": "uint256"
        },
        {
          "indexed": false,
          "internalType": "uint256",
          "name": "genes",
          "type": "uint256"
        }
      ],
      "name": "Birth",
      "type": "event"
    },
    {
      "anonymous": false,
      "inputs": [
        {
          "indexed": true,
          "internalType": "address",
          "name": "from",
          "type": "address"
        },
        {
          "indexed": true,
          "internalType": "address",
          "name": "to",
          "type": "address"
        },
        {
          "indexed": true,
          "internalType": "uint256",
          "name": "tokenId",
          "type": "uint256"
        }
      ],
      "name": "Transfer",
      "type": "event"
    },
    {
      "inputs": [],
      "name": "CREATION_LIMIT_GEN0",
      "outputs": [
        {
          "internalType": "uint256",
          "name": "",
          "type": "uint256"
        }
      ],
      "stateMutability": "view",
      "type": "function"
    },
    {
      "inputs": [],
      "name": "_name",
      "outputs": [
        {
          "internalType": "string",
          "name": "",
          "type": "string"
        }
      ],
      "stateMutability": "view",
      "type": "function"
    },
    {
      "inputs": [],
      "name": "_symbol",
      "outputs": [
        {
          "internalType": "string",
          "name": "",
          "type": "string"
        }
      ],
      "stateMutability": "view",
      "type": "function"
    },
    {
      "inputs": [
        {
          "internalType": "uint256",
          "name": "",
          "type": "uint256"
        }
      ],
      "name": "kittyIndexToApproved",
      "outputs": [
        {
          "internalType": "address",
          "name": "",
          "type": "address"
        }
      ],
      "stateMutability": "view",
      "type": "function"
    },
    {
      "inputs": [],
      "name": "owner",
      "outputs": [
        {
          "internalType": "address",
          "name": "",
          "type": "address"
        }
      ],
      "stateMutability": "view",
      "type": "function"
    },
    {
      "inputs": [
        {
          "internalType": "uint256",
          "name": "",
          "type": "uint256"
        }
      ],
      "name": "tokenOwner",
      "outputs": [
        {
          "internalType": "address",
          "name": "",
          "type": "address"
        }
      ],
      "stateMutability": "view",
      "type": "function"
    },
    {
      "inputs": [
        {
          "internalType": "uint256",
          "name": "_tokenId",
          "type": "uint256"
        }
      ],
      "name": "getKitty",
      "outputs": [
        {
          "internalType": "uint256",
          "name": "genes",
          "type": "uint256"
        },
        {
          "internalType": "uint256",
          "name": "birthTime",
          "type": "uint256"
        },
        {
          "internalType": "uint256",
          "name": "mumId",
          "type": "uint256"
        },
        {
          "internalType": "uint256",
          "name": "dadId",
          "type": "uint256"
        },
        {
          "internalType": "uint256",
          "name": "generation",
          "type": "uint256"
        }
      ],
      "stateMutability": "view",
      "type": "function"
    },
    {
      "inputs": [
        {
          "internalType": "uint256",
          "name": "_genes",
          "type": "uint256"
        }
      ],
      "name": "createKittyGen0",
      "outputs": [
        {
          "internalType": "uint256",
          "name": "",
          "type": "uint256"
        }
      ],
      "stateMutability": "nonpayable",
      "type": "function"
    },
    {
      "inputs": [
        {
          "internalType": "address",
          "name": "owner",
          "type": "address"
        }
      ],
      "name": "balanceOf",
      "outputs": [
        {
          "internalType": "uint256",
          "name": "balance",
          "type": "uint256"
        }
      ],
      "stateMutability": "view",
      "type": "function"
    },
    {
      "inputs": [],
      "name": "totalSupply",
      "outputs": [
        {
          "internalType": "uint256",
          "name": "total",
          "type": "uint256"
        }
      ],
      "stateMutability": "view",
      "type": "function"
    },
    {
      "inputs": [],
      "name": "name",
      "outputs": [
        {
          "internalType": "string",
          "name": "",
          "type": "string"
        }
      ],
      "stateMutability": "pure",
      "type": "function"
    },
    {
      "inputs": [],
      "name": "symbol",
      "outputs": [
        {
          "internalType": "string",
          "name": "tokenSymbol",
          "type": "string"
        }
      ],
      "stateMutability": "pure",
      "type": "function"
    },
    {
      "inputs": [
        {
          "internalType": "uint256",
          "name": "tokenId",
          "type": "uint256"
        }
      ],
      "name": "ownerOf",
      "outputs": [
        {
          "internalType": "address",
          "name": "owner",
          "type": "address"
        }
      ],
      "stateMutability": "view",
      "type": "function"
    },
    {
      "inputs": [
        {
          "internalType": "address",
          "name": "to",
          "type": "address"
        },
        {
          "internalType": "uint256",
          "name": "tokenId",
          "type": "uint256"
        }
      ],
      "name": "transfer",
      "outputs": [],
      "stateMutability": "nonpayable",
      "type": "function"
    },
    {
      "inputs": [
        {
          "internalType": "address",
          "name": "_approved",
          "type": "address"
        },
        {
          "internalType": "uint256",
          "name": "_tokenId",
          "type": "uint256"
        }
      ],
      "name": "approve",
      "outputs": [],
      "stateMutability": "nonpayable",
      "type": "function"
    },
    {
      "inputs": [
        {
          "internalType": "address",
          "name": "_operator",
          "type": "address"
        },
        {
          "internalType": "bool",
          "name": "_approved",
          "type": "bool"
        }
      ],
      "name": "setApprovalForAll",
      "outputs": [],
      "stateMutability": "nonpayable",
      "type": "function"
    },
    {
      "inputs": [
        {
          "internalType": "uint256",
          "name": "_tokenId",
          "type": "uint256"
        }
      ],
      "name": "getApproved",
      "outputs": [
        {
          "internalType": "address",
          "name": "",
          "type": "address"
        }
      ],
      "stateMutability": "view",
      "type": "function"
    },
    {
      "inputs": [
        {
          "internalType": "address",
          "name": "_owner",
          "type": "address"
        },
        {
          "internalType": "address",
          "name": "_operator",
          "type": "address"
        }
      ],
      "name": "isApprovedForAll",
      "outputs": [
        {
          "internalType": "bool",
          "name": "",
          "type": "bool"
        }
      ],
      "stateMutability": "view",
      "type": "function"
    },
    {
      "inputs": [
        {
          "internalType": "address",
          "name": "_from",
          "type": "address"
        },
        {
          "internalType": "address",
          "name": "_to",
          "type": "address"
        },
        {
          "internalType": "uint256",
          "name": "_tokenId",
          "type": "uint256"
        }
      ],
      "name": "transferFrom",
      "outputs": [],
      "stateMutability": "nonpayable",
      "type": "function"
    }
  ],
  "bytecode": "0x608060405234801561001057600080fd5b50336000806101000a81548173ffffffffffffffffffffffffffffffffffffffff021916908373ffffffffffffffffffffffffffffffffffffffff160217905550611f3a806100606000396000f3fe608060405234801561001057600080fd5b50600436106101215760003560e01c80638da5cb5b116100ad578063b483433011610071578063b48343301461031c578063d28d88521461033a578063d5a776ca14610358578063e985e9c514610388578063e98b7f4d146103b857610121565b80638da5cb5b1461028a57806395d89b41146102a8578063a22cb465146102c6578063a9059cbb146102e2578063b09f1266146102fe57610121565b80631caaa487116100f45780631caaa487146101ae57806323b872dd146101de578063481af3d3146101fa5780636352211e1461022a57806370a082311461025a57610121565b806306fdde0314610126578063081812fc14610144578063095ea7b31461017457806318160ddd14610190575b600080fd5b61012e6103ec565b60405161013b9190611ae5565b60405180910390f35b61015e600480360381019061015991906115a9565b610429565b60405161016b9190611a5c565b60405180910390f35b61018e6004803603810190610189919061156d565b6104ad565b005b610198610570565b6040516101a59190611ca7565b60405180910390f35b6101c860048036038101906101c391906115a9565b61057d565b6040516101d59190611a5c565b60405180910390f35b6101f860048036038101906101f391906114e2565b6105b0565b005b610214600480360381019061020f91906115a9565b6107b6565b6040516102219190611a5c565b60405180910390f35b610244600480360381019061023f91906115a9565b6107e9565b6040516102519190611a5c565b60405180910390f35b610274600480360381019061026f919061147d565b6108c8565b6040516102819190611ca7565b60405180910390f35b610292610911565b60405161029f9190611a5c565b60405180910390f35b6102b0610935565b6040516102bd9190611ae5565b60405180910390f35b6102e060048036038101906102db9190611531565b610972565b005b6102fc60048036038101906102f7919061156d565b610a55565b005b610306610b8c565b6040516103139190611ae5565b60405180910390f35b610324610bc5565b6040516103319190611ca7565b60405180910390f35b610342610bca565b60405161034f9190611ae5565b60405180910390f35b610372600480360381019061036d91906115a9565b610c03565b60405161037f9190611ca7565b60405180910390f35b6103a2600480360381019061039d91906114a6565b610d27565b6040516103af9190611aca565b60405180910390f35b6103d260048036038101906103cd91906115a9565b610dbb565b6040516103e3959493929190611cc2565b60405180910390f35b60606040518060400160405280600b81526020017f54616e754b697474696573000000000000000000000000000000000000000000815250905090565b60006001805490508210610472576040517f08c379a000000000000000000000000000000000000000000000000000000000815260040161046990611bc7565b60405180910390fd5b6004600083815260200190815260200160002060009054906101000a900473ffffffffffffffffffffffffffffffffffffffff169050919050565b6104b73382610e97565b806104c857506104c73382610f03565b5b610507576040517f08c379a00000000000000000000000000000000000000000000000000000000081526004016104fe90611be7565b60405180910390fd5b6105118282610f6f565b808273ffffffffffffffffffffffffffffffffffffffff163373ffffffffffffffffffffffffffffffffffffffff167f8c5be1e5ebec7d5bd14f71427d1e84f3dd0314c0f7b2291e5b200ac8c7c3b92560405160405180910390a45050565b6000600180549050905090565b60036020528060005260406000206000915054906101000a900473ffffffffffffffffffffffffffffffffffffffff1681565b60018054905081106105f7576040517f08c379a00000000000000000000000000000000000000000000000000000000081526004016105ee90611c07565b60405180910390fd5b600073ffffffffffffffffffffffffffffffffffffffff168273ffffffffffffffffffffffffffffffffffffffff161415610667576040517f08c379a000000000000000000000000000000000000000000000000000000000815260040161065e90611c27565b60405180910390fd5b6106713382610e97565b8061068257506106813382610f03565b5b806106c657506106c56003600083815260200190815260200160002060009054906101000a900473ffffffffffffffffffffffffffffffffffffffff1633610fc5565b5b610705576040517f08c379a00000000000000000000000000000000000000000000000000000000081526004016106fc90611c47565b60405180910390fd5b6003600082815260200190815260200160002060009054906101000a900473ffffffffffffffffffffffffffffffffffffffff1673ffffffffffffffffffffffffffffffffffffffff168373ffffffffffffffffffffffffffffffffffffffff16146107a6576040517f08c379a000000000000000000000000000000000000000000000000000000000815260040161079d90611b47565b60405180910390fd5b6107b1838383611059565b505050565b60046020528060005260406000206000915054906101000a900473ffffffffffffffffffffffffffffffffffffffff1681565b60008073ffffffffffffffffffffffffffffffffffffffff166003600084815260200190815260200160002060009054906101000a900473ffffffffffffffffffffffffffffffffffffffff1673ffffffffffffffffffffffffffffffffffffffff16141561088d576040517f08c379a000000000000000000000000000000000000000000000000000000000815260040161088490611b67565b60405180910390fd5b6003600083815260200190815260200160002060009054906101000a900473ffffffffffffffffffffffffffffffffffffffff169050919050565b6000600260008373ffffffffffffffffffffffffffffffffffffffff1673ffffffffffffffffffffffffffffffffffffffff168152602001908152602001600020549050919050565b60008054906101000a900473ffffffffffffffffffffffffffffffffffffffff1681565b60606040518060400160405280600381526020017f544b540000000000000000000000000000000000000000000000000000000000815250905090565b8173ffffffffffffffffffffffffffffffffffffffff163373ffffffffffffffffffffffffffffffffffffffff1614156109e1576040517f08c379a00000000000000000000000000000000000000000000000000000000081526004016109d890611b27565b60405180910390fd5b6109ec338383611224565b8173ffffffffffffffffffffffffffffffffffffffff163373ffffffffffffffffffffffffffffffffffffffff167f17307eab39ab6107e8899845ad3d59bd9653f200f220920489ca2b5937696c3183604051610a499190611aca565b60405180910390a35050565b600073ffffffffffffffffffffffffffffffffffffffff168273ffffffffffffffffffffffffffffffffffffffff161415610ac5576040517f08c379a0000000000000000000000000000000000000000000000000000000008152600401610abc90611ba7565b60405180910390fd5b3073ffffffffffffffffffffffffffffffffffffffff168273ffffffffffffffffffffffffffffffffffffffff161415610b34576040517f08c379a0000000000000000000000000000000000000000000000000000000008152600401610b2b90611c67565b60405180910390fd5b610b3e3382610e97565b610b7d576040517f08c379a0000000000000000000000000000000000000000000000000000000008152600401610b7490611b87565b60405180910390fd5b610b88338383611059565b5050565b6040518060400160405280600381526020017f544b54000000000000000000000000000000000000000000000000000000000081525081565b601481565b6040518060400160405280600b81526020017f54616e754b69747469657300000000000000000000000000000000000000000081525081565b60003373ffffffffffffffffffffffffffffffffffffffff1660008054906101000a900473ffffffffffffffffffffffffffffffffffffffff1673ffffffffffffffffffffffffffffffffffffffff1614610c93576040517f08c379a0000000000000000000000000000000000000000000000000000000008152600401610c8a90611c87565b60405180910390fd5b601460065410610cd8576040517f08c379a0000000000000000000000000000000000000000000000000000000008152600401610ccf90611b07565b60405180910390fd5b60066000815480929190610ceb90611e36565b9190505550610d206000808460008060009054906101000a900473ffffffffffffffffffffffffffffffffffffffff166112bd565b9050919050565b6000600560008473ffffffffffffffffffffffffffffffffffffffff1673ffffffffffffffffffffffffffffffffffffffff16815260200190815260200160002060008373ffffffffffffffffffffffffffffffffffffffff1673ffffffffffffffffffffffffffffffffffffffff16815260200190815260200160002060009054906101000a900460ff16905092915050565b60008060008060008060018781548110610dfe577f4e487b7100000000000000000000000000000000000000000000000000000000600052603260045260246000fd5b90600052602060002090600202019050806000015495508060010160009054906101000a900467ffffffffffffffff1667ffffffffffffffff1694508060010160089054906101000a900463ffffffff1663ffffffff16935080600101600c9054906101000a900463ffffffff1663ffffffff1692508060010160109054906101000a900461ffff1661ffff1691505091939590929450565b60008273ffffffffffffffffffffffffffffffffffffffff166003600084815260200190815260200160002060009054906101000a900473ffffffffffffffffffffffffffffffffffffffff1673ffffffffffffffffffffffffffffffffffffffff1614905092915050565b60008273ffffffffffffffffffffffffffffffffffffffff166004600084815260200190815260200160002060009054906101000a900473ffffffffffffffffffffffffffffffffffffffff1673ffffffffffffffffffffffffffffffffffffffff1614905092915050565b816004600083815260200190815260200160002060006101000a81548173ffffffffffffffffffffffffffffffffffffffff021916908373ffffffffffffffffffffffffffffffffffffffff1602179055505050565b6000600560008473ffffffffffffffffffffffffffffffffffffffff1673ffffffffffffffffffffffffffffffffffffffff16815260200190815260200160002060008373ffffffffffffffffffffffffffffffffffffffff1673ffffffffffffffffffffffffffffffffffffffff16815260200190815260200160002060009054906101000a900460ff16905092915050565b600073ffffffffffffffffffffffffffffffffffffffff168373ffffffffffffffffffffffffffffffffffffffff161461111b576001600260008573ffffffffffffffffffffffffffffffffffffffff1673ffffffffffffffffffffffffffffffffffffffff16815260200190815260200160002060008282546110dd9190611d87565b925050819055506004600082815260200190815260200160002060006101000a81549073ffffffffffffffffffffffffffffffffffffffff02191690555b6001600260008473ffffffffffffffffffffffffffffffffffffffff1673ffffffffffffffffffffffffffffffffffffffff168152602001908152602001600020600082825461116b9190611d31565b92505081905550816003600083815260200190815260200160002060006101000a81548173ffffffffffffffffffffffffffffffffffffffff021916908373ffffffffffffffffffffffffffffffffffffffff160217905550808273ffffffffffffffffffffffffffffffffffffffff168473ffffffffffffffffffffffffffffffffffffffff167fddf252ad1be2c89b69c2b068fc378daa952ba7f163c4a11628f55a4df523b3ef60405160405180910390a4505050565b80600560008573ffffffffffffffffffffffffffffffffffffffff1673ffffffffffffffffffffffffffffffffffffffff16815260200190815260200160002060008473ffffffffffffffffffffffffffffffffffffffff1673ffffffffffffffffffffffffffffffffffffffff16815260200190815260200160002060006101000a81548160ff021916908315150217905550505050565b6000806040518060a001604052808681526020014267ffffffffffffffff1681526020018863ffffffff1681526020018763ffffffff1681526020018561ffff1681525090506000600180549050905060018290806001815401808255809150506001900390600052602060002090600202016000909190919091506000820151816000015560208201518160010160006101000a81548167ffffffffffffffff021916908367ffffffffffffffff16021790555060408201518160010160086101000a81548163ffffffff021916908363ffffffff160217905550606082015181600101600c6101000a81548163ffffffff021916908363ffffffff16021790555060808201518160010160106101000a81548161ffff021916908361ffff16021790555050507f0a5311bd2a6608f08a180df2ee7c5946819a649b204b554bb8e39825b2c50ad584828a8a8a60405161141c959493929190611a77565b60405180910390a161143060008583611059565b809250505095945050505050565b60008135905061144d81611ebf565b92915050565b60008135905061146281611ed6565b92915050565b60008135905061147781611eed565b92915050565b60006020828403121561148f57600080fd5b600061149d8482850161143e565b91505092915050565b600080604083850312156114b957600080fd5b60006114c78582860161143e565b92505060206114d88582860161143e565b9150509250929050565b6000806000606084860312156114f757600080fd5b60006115058682870161143e565b93505060206115168682870161143e565b925050604061152786828701611468565b9150509250925092565b6000806040838503121561154457600080fd5b60006115528582860161143e565b925050602061156385828601611453565b9150509250929050565b6000806040838503121561158057600080fd5b600061158e8582860161143e565b925050602061159f85828601611468565b9150509250929050565b6000602082840312156115bb57600080fd5b60006115c984828501611468565b91505092915050565b6115db81611dbb565b82525050565b6115ea81611dcd565b82525050565b60006115fb82611d15565b6116058185611d20565b9350611615818560208601611e03565b61161e81611eae565b840191505092915050565b6000611636601b83611d20565b91507f47656e30206372656174696f6e206c696d6974206578636565647300000000006000830152602082019050919050565b6000611676601a83611d20565b91507f596f752063616e277420617070726f766520796f757273656c660000000000006000830152602082019050919050565b60006116b6602c83611d20565b91507f53656e646572206163636f756e7420646f65736e27742062656c6f6e6720746f60008301527f20746f6b656e206f776e657200000000000000000000000000000000000000006020830152604082019050919050565b600061171c602083611d20565b91507f546f6b656e2077697468207468697320494420646f65736e27742065786973746000830152602082019050919050565b600061175c602283611d20565b91507f596f75277265206e6f7420746865206f776e6572206f66207468697320746f6b60008301527f656e0000000000000000000000000000000000000000000000000000000000006020830152604082019050919050565b60006117c2602083611d20565b91507f52656365697665722063616e206e6f74206265207a65726f20616464726573736000830152602082019050919050565b6000611802600d83611d20565b91507f496e76616c696420746f6b656e000000000000000000000000000000000000006000830152602082019050919050565b6000611842602583611d20565b91507f536f6d656f6e6520656c73652069732074616d706572696e672074686520617060008301527f70726f76650000000000000000000000000000000000000000000000000000006020830152604082019050919050565b60006118a8601083611d20565b91507f496e76616c696420746f6b656e204964000000000000000000000000000000006000830152602082019050919050565b60006118e8602983611d20565b91507f526563656976657220616464726573732073686f756c64206e6f74206265206160008301527f64647265737328302900000000000000000000000000000000000000000000006020830152604082019050919050565b600061194e602883611d20565b91507f556e617574686f72697a65642074616d706572696e672077697468207472616e60008301527f7366657246726f6d0000000000000000000000000000000000000000000000006020830152604082019050919050565b60006119b4602983611d20565b91507f596f752063616e2774207472616e7366657220746f6b656e20746f207468697360008301527f20636f6e747261637400000000000000000000000000000000000000000000006020830152604082019050919050565b6000611a1a601883611d20565b91507f41636365737369626c6520746f206f776e6572206f6e6c7900000000000000006000830152602082019050919050565b611a5681611df9565b82525050565b6000602082019050611a7160008301846115d2565b92915050565b600060a082019050611a8c60008301886115d2565b611a996020830187611a4d565b611aa66040830186611a4d565b611ab36060830185611a4d565b611ac06080830184611a4d565b9695505050505050565b6000602082019050611adf60008301846115e1565b92915050565b60006020820190508181036000830152611aff81846115f0565b905092915050565b60006020820190508181036000830152611b2081611629565b9050919050565b60006020820190508181036000830152611b4081611669565b9050919050565b60006020820190508181036000830152611b60816116a9565b9050919050565b60006020820190508181036000830152611b808161170f565b9050919050565b60006020820190508181036000830152611ba08161174f565b9050919050565b60006020820190508181036000830152611bc0816117b5565b9050919050565b60006020820190508181036000830152611be0816117f5565b9050919050565b60006020820190508181036000830152611c0081611835565b9050919050565b60006020820190508181036000830152611c208161189b565b9050919050565b60006020820190508181036000830152611c40816118db565b9050919050565b60006020820190508181036000830152611c6081611941565b9050919050565b60006020820190508181036000830152611c80816119a7565b9050919050565b60006020820190508181036000830152611ca081611a0d565b9050919050565b6000602082019050611cbc6000830184611a4d565b92915050565b600060a082019050611cd76000830188611a4d565b611ce46020830187611a4d565b611cf16040830186611a4d565b611cfe6060830185611a4d565b611d0b6080830184611a4d565b9695505050505050565b600081519050919050565b600082825260208201905092915050565b6000611d3c82611df9565b9150611d4783611df9565b9250827fffffffffffffffffffffffffffffffffffffffffffffffffffffffffffffffff03821115611d7c57611d7b611e7f565b5b828201905092915050565b6000611d9282611df9565b9150611d9d83611df9565b925082821015611db057611daf611e7f565b5b828203905092915050565b6000611dc682611dd9565b9050919050565b60008115159050919050565b600073ffffffffffffffffffffffffffffffffffffffff82169050919050565b6000819050919050565b60005b83811015611e21578082015181840152602081019050611e06565b83811115611e30576000848401525b50505050565b6000611e4182611df9565b91507fffffffffffffffffffffffffffffffffffffffffffffffffffffffffffffffff821415611e7457611e73611e7f565b5b600182019050919050565b7f4e487b7100000000000000000000000000000000000000000000000000000000600052601160045260246000fd5b6000601f19601f8301169050919050565b611ec881611dbb565b8114611ed357600080fd5b50565b611edf81611dcd565b8114611eea57600080fd5b50565b611ef681611df9565b8114611f0157600080fd5b5056fea26469706673582212209c1b7f19eaed474e6ca7d694a73f06e772c571afd382f2f5cda44751e8d5393664736f6c63430008000033",
  "immutableReferences": {},
  "source": "// SPDX-License-Identifier: UNLICENSED\r\npragma solidity >0.4.22 <=0.9.0;\r\nimport './IERC721.sol';\r\nimport './Ownable.sol';\r\n\r\ncontract KittyContract is IERC721,Ownable{\r\n   string public constant _name = \"TanuKitties\";\r\n   string public constant _symbol = \"TKT\";\r\n   uint public constant CREATION_LIMIT_GEN0 = 20;\r\n\r\n   event Birth(address owner, uint kittenId,uint mumId,uint dadId,uint genes);\r\n\r\n   struct Kitty{\r\n       uint256 genes;\r\n       uint64 birthTime;\r\n       uint32 mumId;\r\n       uint32 dadId;\r\n       uint16 generation;\r\n   }\r\n   Kitty[] kitties;\r\n\r\n   mapping(address => uint)private ownershipTokenCount; //token owner => #tokens\r\n   mapping(uint => address)public tokenOwner; // tokenId => tokenowner\r\n   mapping(uint => address) public kittyIndexToApproved;\r\n   mapping(address => mapping(address => bool))private _operatorApprovals;\r\n   uint gen0Counter;\r\n   \r\n\r\n   function getKitty(uint _tokenId) external view returns(uint genes,\r\n                                                          uint birthTime,\r\n                                                          uint mumId,\r\n                                                          uint dadId,\r\n                                                          uint generation){\r\n      Kitty storage tempKitty = kitties[_tokenId];\r\n      genes = tempKitty.genes;\r\n      birthTime = tempKitty.birthTime;\r\n      mumId = tempKitty.mumId;\r\n      dadId = tempKitty.dadId;\r\n      generation = tempKitty.generation;\r\n   }\r\n\r\n   function createKittyGen0(uint _genes) public onlyOwner returns(uint){\r\n     require(gen0Counter < CREATION_LIMIT_GEN0,'Gen0 creation limit exceeds');\r\n     gen0Counter++;\r\n     return _createKitty(0,0,_genes,0,owner); \r\n   }\r\n\r\n   function _createKitty(uint _mumId,uint _dadId,uint _genes,uint _generation, address _owner) private returns(uint){\r\n     Kitty memory newKitty = Kitty({genes :_genes,\r\n                                    birthTime: uint64(block.timestamp),\r\n                                    mumId: uint32(_mumId),\r\n                                    dadId: uint32(_dadId),\r\n                                    generation: uint16(_generation)});\r\n     uint newID = kitties.length;\r\n     kitties.push(newKitty);\r\n     emit Birth(_owner,newID,_mumId,_dadId,_genes);\r\n     _transfer(address(0),_owner,newID);\r\n\r\n     return newID;\r\n   }\r\n\r\n   function balanceOf(address owner) external view override returns (uint256 balance){\r\n       balance = ownershipTokenCount[owner];\r\n   }\r\n   \r\n   function totalSupply() external view override returns (uint256 total){\r\n      total = kitties.length;\r\n   }\r\n\r\n   function name() external pure override returns (string memory){\r\n      return _name;\r\n   }\r\n\r\n   function symbol() external pure override returns (string memory tokenSymbol){\r\n       tokenSymbol = _symbol;\r\n   }\r\n\r\n   function ownerOf(uint256 tokenId) external view override returns (address owner){\r\n      require(tokenOwner[tokenId] != address(0),\"Token with this ID doesn't exist\");\r\n      owner = tokenOwner[tokenId];\r\n   }\r\n   \r\n   function transfer(address to, uint256 tokenId) external override{\r\n      require(to != address(0),\"Receiver can not be zero address\");\r\n      require(to != address(this),\"You can't transfer token to this contract\");\r\n      require(owns(msg.sender,tokenId),\"You're not the owner of this token\");\r\n      _transfer(msg.sender, to, tokenId);\r\n   }\r\n\r\n   function _transfer(address from, address to, uint tokenId) internal{\r\n       //from\r\n       if(from != address(0)){\r\n        ownershipTokenCount[from] -= 1;\r\n        delete kittyIndexToApproved[tokenId]; //nice point\r\n       }\r\n       \r\n       //to\r\n       ownershipTokenCount[to] += 1;\r\n       tokenOwner[tokenId] = to;\r\n\r\n       emit Transfer(from,to,tokenId);\r\n   }\r\n\r\n   function approve(address _approved, uint256 _tokenId) external override{\r\n      require(owns(msg.sender,_tokenId) || operates(msg.sender,_tokenId),'Someone else is tampering the approve');\r\n      _approve(_approved,_tokenId);\r\n      emit Approval(msg.sender, _approved, _tokenId);\r\n   }\r\n\r\n   function _approve(address _approved, uint _tokenId)private{\r\n       kittyIndexToApproved[_tokenId] = _approved;\r\n   }\r\n\r\n   function setApprovalForAll(address _operator, bool _approved) external override{\r\n      require(msg.sender != _operator,\"You can't approve yourself\");\r\n      _setApprovalForAll(msg.sender,_operator,_approved);\r\n      emit ApprovalForAll(msg.sender,_operator,_approved);\r\n   }\r\n   \r\n   function _setApprovalForAll(address _owner,address _operator,bool _approved)private{\r\n      _operatorApprovals[_owner][_operator] = _approved;\r\n   }\r\n\r\n   function getApproved(uint256 _tokenId) external view override returns (address){\r\n       require(_tokenId < kitties.length,'Invalid token');\r\n       return kittyIndexToApproved[_tokenId];\r\n   }\r\n\r\n   function isApprovedForAll(address _owner, address _operator) external view override returns (bool){\r\n     return _operatorApprovals[_owner][_operator];\r\n   }\r\n\r\n   function transferFrom(address _from, address _to, uint256 _tokenId) external override{\r\n      require(_tokenId < kitties.length,'Invalid token Id');\r\n      require(_to != address(0),\"Receiver address should not be address(0)\");\r\n      require(owns(msg.sender,_tokenId) || operates(msg.sender,_tokenId) || operatesAll(tokenOwner[_tokenId],msg.sender),'Unauthorized tampering with transferFrom');\r\n      require(_from == tokenOwner[_tokenId],\"Sender account doesn't belong to token owner\");\r\n      _transfer(_from,_to,_tokenId);\r\n   }\r\n\r\n\r\n   function owns(address claimant, uint tokenID)internal view returns(bool){\r\n      return (tokenOwner[tokenID] == claimant);\r\n   }\r\n\r\n   function operates(address _approved,uint _tokenId) internal view returns(bool){\r\n      return kittyIndexToApproved[_tokenId] == _approved;\r\n   }\r\n   function operatesAll(address _owner, address _operator) internal view returns (bool){\r\n     return _operatorApprovals[_owner][_operator];\r\n   }\r\n\r\n\r\n}",
  "sourcePath": "D:/BlockChain/Ethereum-201/CryptoKitties/academy-kitties-template/contracts/kittyContract.sol",
  "compiler": {
    "name": "solc",
    "version": "0.8.0+commit.c7dfd78e.Emscripten.clang"
  },
  "schemaVersion": "3.4.1",
  "updatedAt": "2021-08-07T17:44:26.878Z",
  "devdoc": {
    "kind": "dev",
    "methods": {
      "approve(address,uint256)": {
        "details": "The zero address indicates there is no approved address.  Throws unless `msg.sender` is the current NFT owner, or an authorized  operator of the current owner.",
        "params": {
          "_approved": "The new approved NFT controller",
          "_tokenId": "The NFT to approve"
        }
      },
      "balanceOf(address)": {
        "details": "Returns the number of tokens in ``owner``'s account."
      },
      "getApproved(uint256)": {
        "details": "Throws if `_tokenId` is not a valid NFT.",
        "params": {
          "_tokenId": "The NFT to find the approved address for"
        },
        "returns": {
          "_0": "The approved address for this NFT, or the zero address if there is none"
        }
      },
      "isApprovedForAll(address,address)": {
        "params": {
          "_operator": "The address that acts on behalf of the owner",
          "_owner": "The address that owns the NFTs"
        },
        "returns": {
          "_0": "True if `_operator` is an approved operator for `_owner`, false otherwise"
        }
      },
      "ownerOf(uint256)": {
        "details": "Returns the owner of the `tokenId` token. Requirements: - `tokenId` must exist."
      },
      "setApprovalForAll(address,bool)": {
        "details": "Emits the ApprovalForAll event. The contract MUST allow  multiple operators per owner.",
        "params": {
          "_approved": "True if the operator is approved, false to revoke approval",
          "_operator": "Address to add to the set of authorized operators"
        }
      },
      "transferFrom(address,address,uint256)": {
        "details": "Throws unless `msg.sender` is the current owner, an authorized  operator, or the approved address for this NFT. Throws if `_from` is  not the current owner. Throws if `_to` is the zero address. Throws if  `_tokenId` is not a valid NFT.",
        "params": {
          "_from": "The current owner of the NFT",
          "_to": "The new owner",
          "_tokenId": "The NFT to transfer"
        }
      }
    },
    "version": 1
  },
  "userdoc": {
    "kind": "user",
    "methods": {
      "approve(address,uint256)": {
        "notice": "Change or reaffirm the approved address for an NFT"
      },
      "getApproved(uint256)": {
        "notice": "Get the approved address for a single NFT"
      },
      "isApprovedForAll(address,address)": {
        "notice": "Query if an address is an authorized operator for another address"
      },
      "setApprovalForAll(address,bool)": {
        "notice": "Enable or disable approval for a third party (\"operator\") to manage  all of `msg.sender`'s assets"
      },
      "transferFrom(address,address,uint256)": {
        "notice": "Transfer ownership of an NFT -- THE CALLER IS RESPONSIBLE  TO CONFIRM THAT `_to` IS CAPABLE OF RECEIVING NFTS OR ELSE  THEY MAY BE PERMANENTLY LOST"
      }
    },
    "version": 1
  }
}