{
  "contractName": "KittyContract",
  "abi": [
    {
      "anonymous": false,
      "inputs": [
        {
          "indexed": true,
          "internalType": "address",
          "name": "owner",
          "type": "address"
        },
        {
          "indexed": true,
          "internalType": "address",
          "name": "approved",
          "type": "address"
        },
        {
          "indexed": true,
          "internalType": "uint256",
          "name": "tokenId",
          "type": "uint256"
        }
      ],
      "name": "Approval",
      "type": "event"
    },
    {
      "anonymous": false,
      "inputs": [
        {
          "indexed": true,
          "internalType": "address",
          "name": "owner",
          "type": "address"
        },
        {
          "indexed": true,
          "internalType": "address",
          "name": "operator",
          "type": "address"
        },
        {
          "indexed": false,
          "internalType": "bool",
          "name": "approved",
          "type": "bool"
        }
      ],
      "name": "ApprovalForAll",
      "type": "event"
    },
    {
      "anonymous": false,
      "inputs": [
        {
          "indexed": false,
          "internalType": "address",
          "name": "owner",
          "type": "address"
        },
        {
          "indexed": false,
          "internalType": "uint256",
          "name": "kittenId",
          "type": "uint256"
        },
        {
          "indexed": false,
          "internalType": "uint256",
          "name": "mumId",
          "type": "uint256"
        },
        {
          "indexed": false,
          "internalType": "uint256",
          "name": "dadId",
          "type": "uint256"
        },
        {
          "indexed": false,
          "internalType": "uint256",
          "name": "genes",
          "type": "uint256"
        }
      ],
      "name": "Birth",
      "type": "event"
    },
    {
      "anonymous": false,
      "inputs": [
        {
          "indexed": true,
          "internalType": "address",
          "name": "from",
          "type": "address"
        },
        {
          "indexed": true,
          "internalType": "address",
          "name": "to",
          "type": "address"
        },
        {
          "indexed": true,
          "internalType": "uint256",
          "name": "tokenId",
          "type": "uint256"
        }
      ],
      "name": "Transfer",
      "type": "event"
    },
    {
      "inputs": [],
      "name": "CREATION_LIMIT_GEN0",
      "outputs": [
        {
          "internalType": "uint256",
          "name": "",
          "type": "uint256"
        }
      ],
      "stateMutability": "view",
      "type": "function",
      "constant": true
    },
    {
      "inputs": [],
      "name": "_name",
      "outputs": [
        {
          "internalType": "string",
          "name": "",
          "type": "string"
        }
      ],
      "stateMutability": "view",
      "type": "function",
      "constant": true
    },
    {
      "inputs": [],
      "name": "_symbol",
      "outputs": [
        {
          "internalType": "string",
          "name": "",
          "type": "string"
        }
      ],
      "stateMutability": "view",
      "type": "function",
      "constant": true
    },
    {
      "inputs": [
        {
          "internalType": "uint256",
          "name": "",
          "type": "uint256"
        }
      ],
      "name": "kittyIndexToApproved",
      "outputs": [
        {
          "internalType": "address",
          "name": "",
          "type": "address"
        }
      ],
      "stateMutability": "view",
      "type": "function",
      "constant": true
    },
    {
      "inputs": [],
      "name": "owner",
      "outputs": [
        {
          "internalType": "address",
          "name": "",
          "type": "address"
        }
      ],
      "stateMutability": "view",
      "type": "function",
      "constant": true
    },
    {
      "inputs": [
        {
          "internalType": "uint256",
          "name": "",
          "type": "uint256"
        }
      ],
      "name": "tokenOwner",
      "outputs": [
        {
          "internalType": "address",
          "name": "",
          "type": "address"
        }
      ],
      "stateMutability": "view",
      "type": "function",
      "constant": true
    },
    {
      "inputs": [
        {
          "internalType": "bytes4",
          "name": "_interfaceId",
          "type": "bytes4"
        }
      ],
      "name": "supportsInterface",
      "outputs": [
        {
          "internalType": "bool",
          "name": "",
          "type": "bool"
        }
      ],
      "stateMutability": "view",
      "type": "function",
      "constant": true
    },
    {
      "inputs": [
        {
          "internalType": "address",
          "name": "_owner",
          "type": "address"
        }
      ],
      "name": "getKittyIds",
      "outputs": [
        {
          "internalType": "uint256[]",
          "name": "",
          "type": "uint256[]"
        }
      ],
      "stateMutability": "view",
      "type": "function",
      "constant": true
    },
    {
      "inputs": [
        {
          "internalType": "uint256",
          "name": "_tokenId",
          "type": "uint256"
        }
      ],
      "name": "getKitty",
      "outputs": [
        {
          "internalType": "uint256",
          "name": "genes",
          "type": "uint256"
        },
        {
          "internalType": "uint256",
          "name": "birthTime",
          "type": "uint256"
        },
        {
          "internalType": "uint256",
          "name": "mumId",
          "type": "uint256"
        },
        {
          "internalType": "uint256",
          "name": "dadId",
          "type": "uint256"
        },
        {
          "internalType": "uint256",
          "name": "generation",
          "type": "uint256"
        }
      ],
      "stateMutability": "view",
      "type": "function",
      "constant": true
    },
    {
      "inputs": [
        {
          "internalType": "uint256",
          "name": "_genes",
          "type": "uint256"
        }
      ],
      "name": "createKittyGen0",
      "outputs": [
        {
          "internalType": "uint256",
          "name": "",
          "type": "uint256"
        }
      ],
      "stateMutability": "nonpayable",
      "type": "function"
    },
    {
      "inputs": [
        {
          "internalType": "address",
          "name": "owner",
          "type": "address"
        }
      ],
      "name": "balanceOf",
      "outputs": [
        {
          "internalType": "uint256",
          "name": "balance",
          "type": "uint256"
        }
      ],
      "stateMutability": "view",
      "type": "function",
      "constant": true
    },
    {
      "inputs": [],
      "name": "totalSupply",
      "outputs": [
        {
          "internalType": "uint256",
          "name": "total",
          "type": "uint256"
        }
      ],
      "stateMutability": "view",
      "type": "function",
      "constant": true
    },
    {
      "inputs": [],
      "name": "name",
      "outputs": [
        {
          "internalType": "string",
          "name": "",
          "type": "string"
        }
      ],
      "stateMutability": "pure",
      "type": "function",
      "constant": true
    },
    {
      "inputs": [],
      "name": "symbol",
      "outputs": [
        {
          "internalType": "string",
          "name": "tokenSymbol",
          "type": "string"
        }
      ],
      "stateMutability": "pure",
      "type": "function",
      "constant": true
    },
    {
      "inputs": [
        {
          "internalType": "uint256",
          "name": "tokenId",
          "type": "uint256"
        }
      ],
      "name": "ownerOf",
      "outputs": [
        {
          "internalType": "address",
          "name": "owner",
          "type": "address"
        }
      ],
      "stateMutability": "view",
      "type": "function",
      "constant": true
    },
    {
      "inputs": [
        {
          "internalType": "address",
          "name": "to",
          "type": "address"
        },
        {
          "internalType": "uint256",
          "name": "tokenId",
          "type": "uint256"
        }
      ],
      "name": "transfer",
      "outputs": [],
      "stateMutability": "nonpayable",
      "type": "function"
    },
    {
      "inputs": [
        {
          "internalType": "address",
          "name": "_approved",
          "type": "address"
        },
        {
          "internalType": "uint256",
          "name": "_tokenId",
          "type": "uint256"
        }
      ],
      "name": "approve",
      "outputs": [],
      "stateMutability": "nonpayable",
      "type": "function"
    },
    {
      "inputs": [
        {
          "internalType": "address",
          "name": "_operator",
          "type": "address"
        },
        {
          "internalType": "bool",
          "name": "_approved",
          "type": "bool"
        }
      ],
      "name": "setApprovalForAll",
      "outputs": [],
      "stateMutability": "nonpayable",
      "type": "function"
    },
    {
      "inputs": [
        {
          "internalType": "uint256",
          "name": "_tokenId",
          "type": "uint256"
        }
      ],
      "name": "getApproved",
      "outputs": [
        {
          "internalType": "address",
          "name": "",
          "type": "address"
        }
      ],
      "stateMutability": "view",
      "type": "function",
      "constant": true
    },
    {
      "inputs": [
        {
          "internalType": "address",
          "name": "_owner",
          "type": "address"
        },
        {
          "internalType": "address",
          "name": "_operator",
          "type": "address"
        }
      ],
      "name": "isApprovedForAll",
      "outputs": [
        {
          "internalType": "bool",
          "name": "",
          "type": "bool"
        }
      ],
      "stateMutability": "view",
      "type": "function",
      "constant": true
    },
    {
      "inputs": [
        {
          "internalType": "address",
          "name": "_from",
          "type": "address"
        },
        {
          "internalType": "address",
          "name": "_to",
          "type": "address"
        },
        {
          "internalType": "uint256",
          "name": "_tokenId",
          "type": "uint256"
        }
      ],
      "name": "transferFrom",
      "outputs": [],
      "stateMutability": "nonpayable",
      "type": "function"
    },
    {
      "inputs": [
        {
          "internalType": "address",
          "name": "_from",
          "type": "address"
        },
        {
          "internalType": "address",
          "name": "_to",
          "type": "address"
        },
        {
          "internalType": "uint256",
          "name": "_tokenId",
          "type": "uint256"
        }
      ],
      "name": "safeTransferFrom",
      "outputs": [],
      "stateMutability": "nonpayable",
      "type": "function"
    },
    {
      "inputs": [
        {
          "internalType": "address",
          "name": "_from",
          "type": "address"
        },
        {
          "internalType": "address",
          "name": "_to",
          "type": "address"
        },
        {
          "internalType": "uint256",
          "name": "_tokenId",
          "type": "uint256"
        },
        {
          "internalType": "bytes",
          "name": "data",
          "type": "bytes"
        }
      ],
      "name": "safeTransferFrom",
      "outputs": [],
      "stateMutability": "nonpayable",
      "type": "function"
    }
  ],
  "bytecode": "0x60806040526380ac58cd60e01b600060146101000a81548163ffffffff021916908360e01c02179055506301ffc9a760e01b600060186101000a81548163ffffffff021916908360e01c021790555034801561005a57600080fd5b50336000806101000a81548173ffffffffffffffffffffffffffffffffffffffff021916908373ffffffffffffffffffffffffffffffffffffffff160217905550612a60806100aa6000396000f3fe608060405234801561001057600080fd5b506004361061014d5760003560e01c8063788f783f116100c3578063b48343301161007c578063b4834330146103c4578063b88d4fde146103e2578063d28d8852146103fe578063d5a776ca1461041c578063e985e9c51461044c578063e98b7f4d1461047c5761014d565b8063788f783f146103025780638da5cb5b1461033257806395d89b4114610350578063a22cb4651461036e578063a9059cbb1461038a578063b09f1266146103a65761014d565b80631caaa487116101155780631caaa4871461020a57806323b872dd1461023a57806342842e0e14610256578063481af3d3146102725780636352211e146102a257806370a08231146102d25761014d565b806301ffc9a71461015257806306fdde0314610182578063081812fc146101a0578063095ea7b3146101d057806318160ddd146101ec575b600080fd5b61016c60048036038101906101679190611e1a565b6104b0565b60405161017991906124b9565b60405180910390f35b61018a61055f565b60405161019791906124d4565b60405180910390f35b6101ba60048036038101906101b59190611e6c565b61059c565b6040516101c791906123dd565b60405180910390f35b6101ea60048036038101906101e59190611dde565b610620565b005b6101f46106e3565b6040516102019190612696565b60405180910390f35b610224600480360381019061021f9190611e6c565b6106f0565b60405161023191906123dd565b60405180910390f35b610254600480360381019061024f9190611cd8565b610723565b005b610270600480360381019061026b9190611cd8565b610921565b005b61028c60048036038101906102879190611e6c565b610941565b60405161029991906123dd565b60405180910390f35b6102bc60048036038101906102b79190611e6c565b610974565b6040516102c991906123dd565b60405180910390f35b6102ec60048036038101906102e79190611c73565b610a53565b6040516102f99190612696565b60405180910390f35b61031c60048036038101906103179190611c73565b610a9c565b6040516103299190612497565b60405180910390f35b61033a610b33565b60405161034791906123dd565b60405180910390f35b610358610b57565b60405161036591906124d4565b60405180910390f35b61038860048036038101906103839190611da2565b610b94565b005b6103a4600480360381019061039f9190611dde565b610c77565b005b6103ae610dae565b6040516103bb91906124d4565b60405180910390f35b6103cc610de7565b6040516103d99190612696565b60405180910390f35b6103fc60048036038101906103f79190611d27565b610dec565b005b610406610fec565b60405161041391906124d4565b60405180910390f35b61043660048036038101906104319190611e6c565b611025565b6040516104439190612696565b60405180910390f35b61046660048036038101906104619190611c9c565b611149565b60405161047391906124b9565b60405180910390f35b61049660048036038101906104919190611e6c565b6111dd565b6040516104a79594939291906126b1565b60405180910390f35b60008060149054906101000a900460e01b7bffffffffffffffffffffffffffffffffffffffffffffffffffffffff1916827bffffffffffffffffffffffffffffffffffffffffffffffffffffffff191614806105585750600060189054906101000a900460e01b7bffffffffffffffffffffffffffffffffffffffffffffffffffffffff1916827bffffffffffffffffffffffffffffffffffffffffffffffffffffffff1916145b9050919050565b60606040518060400160405280600b81526020017f54616e754b697474696573000000000000000000000000000000000000000000815250905090565b600060018054905082106105e5576040517f08c379a00000000000000000000000000000000000000000000000000000000081526004016105dc906125b6565b60405180910390fd5b6004600083815260200190815260200160002060009054906101000a900473ffffffffffffffffffffffffffffffffffffffff169050919050565b61062a33826112b9565b8061063b575061063a3382611325565b5b61067a576040517f08c379a0000000000000000000000000000000000000000000000000000000008152600401610671906125d6565b60405180910390fd5b6106848282611391565b808273ffffffffffffffffffffffffffffffffffffffff163373ffffffffffffffffffffffffffffffffffffffff167f8c5be1e5ebec7d5bd14f71427d1e84f3dd0314c0f7b2291e5b200ac8c7c3b92560405160405180910390a45050565b6000600180549050905090565b60036020528060005260406000206000915054906101000a900473ffffffffffffffffffffffffffffffffffffffff1681565b828282600180549050811061076d576040517f08c379a0000000000000000000000000000000000000000000000000000000008152600401610764906125f6565b60405180910390fd5b600073ffffffffffffffffffffffffffffffffffffffff168273ffffffffffffffffffffffffffffffffffffffff1614156107dd576040517f08c379a00000000000000000000000000000000000000000000000000000000081526004016107d490612616565b60405180910390fd5b6003600082815260200190815260200160002060009054906101000a900473ffffffffffffffffffffffffffffffffffffffff1673ffffffffffffffffffffffffffffffffffffffff168373ffffffffffffffffffffffffffffffffffffffff161461087e576040517f08c379a000000000000000000000000000000000000000000000000000000000815260040161087590612536565b60405180910390fd5b8273ffffffffffffffffffffffffffffffffffffffff163373ffffffffffffffffffffffffffffffffffffffff1614806108be57506108bd3382611325565b5b806108cf57506108ce8333611149565b5b61090e576040517f08c379a000000000000000000000000000000000000000000000000000000000815260040161090590612636565b60405180910390fd5b6109198686866113e7565b505050505050565b61093c83838360405180602001604052806000815250610dec565b505050565b60046020528060005260406000206000915054906101000a900473ffffffffffffffffffffffffffffffffffffffff1681565b60008073ffffffffffffffffffffffffffffffffffffffff166003600084815260200190815260200160002060009054906101000a900473ffffffffffffffffffffffffffffffffffffffff1673ffffffffffffffffffffffffffffffffffffffff161415610a18576040517f08c379a0000000000000000000000000000000000000000000000000000000008152600401610a0f90612556565b60405180910390fd5b6003600083815260200190815260200160002060009054906101000a900473ffffffffffffffffffffffffffffffffffffffff169050919050565b6000600260008373ffffffffffffffffffffffffffffffffffffffff1673ffffffffffffffffffffffffffffffffffffffff168152602001908152602001600020549050919050565b6060600660008373ffffffffffffffffffffffffffffffffffffffff1673ffffffffffffffffffffffffffffffffffffffff168152602001908152602001600020805480602002602001604051908101604052809291908181526020018280548015610b2757602002820191906000526020600020905b815481526020019060010190808311610b13575b50505050509050919050565b60008054906101000a900473ffffffffffffffffffffffffffffffffffffffff1681565b60606040518060400160405280600381526020017f544b540000000000000000000000000000000000000000000000000000000000815250905090565b8173ffffffffffffffffffffffffffffffffffffffff163373ffffffffffffffffffffffffffffffffffffffff161415610c03576040517f08c379a0000000000000000000000000000000000000000000000000000000008152600401610bfa90612516565b60405180910390fd5b610c0e33838361182f565b8173ffffffffffffffffffffffffffffffffffffffff163373ffffffffffffffffffffffffffffffffffffffff167f17307eab39ab6107e8899845ad3d59bd9653f200f220920489ca2b5937696c3183604051610c6b91906124b9565b60405180910390a35050565b600073ffffffffffffffffffffffffffffffffffffffff168273ffffffffffffffffffffffffffffffffffffffff161415610ce7576040517f08c379a0000000000000000000000000000000000000000000000000000000008152600401610cde90612596565b60405180910390fd5b3073ffffffffffffffffffffffffffffffffffffffff168273ffffffffffffffffffffffffffffffffffffffff161415610d56576040517f08c379a0000000000000000000000000000000000000000000000000000000008152600401610d4d90612656565b60405180910390fd5b610d6033826112b9565b610d9f576040517f08c379a0000000000000000000000000000000000000000000000000000000008152600401610d9690612576565b60405180910390fd5b610daa3383836113e7565b5050565b6040518060400160405280600381526020017f544b54000000000000000000000000000000000000000000000000000000000081525081565b601481565b8383836001805490508110610e36576040517f08c379a0000000000000000000000000000000000000000000000000000000008152600401610e2d906125f6565b60405180910390fd5b600073ffffffffffffffffffffffffffffffffffffffff168273ffffffffffffffffffffffffffffffffffffffff161415610ea6576040517f08c379a0000000000000000000000000000000000000000000000000000000008152600401610e9d90612616565b60405180910390fd5b6003600082815260200190815260200160002060009054906101000a900473ffffffffffffffffffffffffffffffffffffffff1673ffffffffffffffffffffffffffffffffffffffff168373ffffffffffffffffffffffffffffffffffffffff1614610f47576040517f08c379a0000000000000000000000000000000000000000000000000000000008152600401610f3e90612536565b60405180910390fd5b8273ffffffffffffffffffffffffffffffffffffffff163373ffffffffffffffffffffffffffffffffffffffff161480610f875750610f863382611325565b5b80610f985750610f978333611149565b5b610fd7576040517f08c379a0000000000000000000000000000000000000000000000000000000008152600401610fce90612636565b60405180910390fd5b610fe3878787876118c8565b50505050505050565b6040518060400160405280600b81526020017f54616e754b69747469657300000000000000000000000000000000000000000081525081565b60003373ffffffffffffffffffffffffffffffffffffffff1660008054906101000a900473ffffffffffffffffffffffffffffffffffffffff1673ffffffffffffffffffffffffffffffffffffffff16146110b5576040517f08c379a00000000000000000000000000000000000000000000000000000000081526004016110ac90612676565b60405180910390fd5b6014600754106110fa576040517f08c379a00000000000000000000000000000000000000000000000000000000081526004016110f1906124f6565b60405180910390fd5b6007600081548092919061110d90612916565b91905055506111426000808460008060009054906101000a900473ffffffffffffffffffffffffffffffffffffffff166118ee565b9050919050565b6000600560008473ffffffffffffffffffffffffffffffffffffffff1673ffffffffffffffffffffffffffffffffffffffff16815260200190815260200160002060008373ffffffffffffffffffffffffffffffffffffffff1673ffffffffffffffffffffffffffffffffffffffff16815260200190815260200160002060009054906101000a900460ff16905092915050565b60008060008060008060018781548110611220577f4e487b7100000000000000000000000000000000000000000000000000000000600052603260045260246000fd5b90600052602060002090600202019050806000015495508060010160009054906101000a900467ffffffffffffffff1667ffffffffffffffff1694508060010160089054906101000a900463ffffffff1663ffffffff16935080600101600c9054906101000a900463ffffffff1663ffffffff1692508060010160109054906101000a900461ffff1661ffff1691505091939590929450565b60008273ffffffffffffffffffffffffffffffffffffffff166003600084815260200190815260200160002060009054906101000a900473ffffffffffffffffffffffffffffffffffffffff1673ffffffffffffffffffffffffffffffffffffffff1614905092915050565b60008273ffffffffffffffffffffffffffffffffffffffff166004600084815260200190815260200160002060009054906101000a900473ffffffffffffffffffffffffffffffffffffffff1673ffffffffffffffffffffffffffffffffffffffff1614905092915050565b816004600083815260200190815260200160002060006101000a81548173ffffffffffffffffffffffffffffffffffffffff021916908373ffffffffffffffffffffffffffffffffffffffff1602179055505050565b600073ffffffffffffffffffffffffffffffffffffffff168373ffffffffffffffffffffffffffffffffffffffff16146116c0576000600660008573ffffffffffffffffffffffffffffffffffffffff1673ffffffffffffffffffffffffffffffffffffffff1681526020019081526020016000208054905090506000805b82811015611491578381141561147e57809150611491565b808061148990612916565b915050611466565b50600660008673ffffffffffffffffffffffffffffffffffffffff1673ffffffffffffffffffffffffffffffffffffffff1681526020019081526020016000206001836114de919061282c565b81548110611515577f4e487b7100000000000000000000000000000000000000000000000000000000600052603260045260246000fd5b9060005260206000200154600660008773ffffffffffffffffffffffffffffffffffffffff1673ffffffffffffffffffffffffffffffffffffffff1681526020019081526020016000208281548110611597577f4e487b7100000000000000000000000000000000000000000000000000000000600052603260045260246000fd5b9060005260206000200181905550600660008673ffffffffffffffffffffffffffffffffffffffff1673ffffffffffffffffffffffffffffffffffffffff16815260200190815260200160002080548061161a577f4e487b7100000000000000000000000000000000000000000000000000000000600052603160045260246000fd5b600190038181906000526020600020016000905590556001600260008773ffffffffffffffffffffffffffffffffffffffff1673ffffffffffffffffffffffffffffffffffffffff1681526020019081526020016000206000828254611680919061282c565b925050819055506004600084815260200190815260200160002060006101000a81549073ffffffffffffffffffffffffffffffffffffffff021916905550505b600660008373ffffffffffffffffffffffffffffffffffffffff1673ffffffffffffffffffffffffffffffffffffffff1681526020019081526020016000208190806001815401808255809150506001900390600052602060002001600090919091909150556001600260008473ffffffffffffffffffffffffffffffffffffffff1673ffffffffffffffffffffffffffffffffffffffff168152602001908152602001600020600082825461177691906127d6565b92505081905550816003600083815260200190815260200160002060006101000a81548173ffffffffffffffffffffffffffffffffffffffff021916908373ffffffffffffffffffffffffffffffffffffffff160217905550808273ffffffffffffffffffffffffffffffffffffffff168473ffffffffffffffffffffffffffffffffffffffff167fddf252ad1be2c89b69c2b068fc378daa952ba7f163c4a11628f55a4df523b3ef60405160405180910390a4505050565b80600560008573ffffffffffffffffffffffffffffffffffffffff1673ffffffffffffffffffffffffffffffffffffffff16815260200190815260200160002060008473ffffffffffffffffffffffffffffffffffffffff1673ffffffffffffffffffffffffffffffffffffffff16815260200190815260200160002060006101000a81548160ff021916908315150217905550505050565b6118d38484846113e7565b6118df84848484611a6f565b6118e857600080fd5b50505050565b6000806040518060a001604052808681526020014267ffffffffffffffff1681526020018863ffffffff1681526020018763ffffffff1681526020018561ffff1681525090506000600180549050905060018290806001815401808255809150506001900390600052602060002090600202016000909190919091506000820151816000015560208201518160010160006101000a81548167ffffffffffffffff021916908367ffffffffffffffff16021790555060408201518160010160086101000a81548163ffffffff021916908363ffffffff160217905550606082015181600101600c6101000a81548163ffffffff021916908363ffffffff16021790555060808201518160010160106101000a81548161ffff021916908361ffff16021790555050507f0a5311bd2a6608f08a180df2ee7c5946819a649b204b554bb8e39825b2c50ad584828a8a8a604051611a4d959493929190612444565b60405180910390a1611a61600085836113e7565b809250505095945050505050565b6000611a7a84611b89565b611a875760019050611b81565b60008473ffffffffffffffffffffffffffffffffffffffff1663150b7a02338887876040518563ffffffff1660e01b8152600401611ac894939291906123f8565b602060405180830381600087803b158015611ae257600080fd5b505af1158015611af6573d6000803e3d6000fd5b505050506040513d601f19601f82011682018060405250810190611b1a9190611e43565b90507f150b7a023d4804d13e8c85fb27262cb750cf6ba9f9dd3bb30d90f482ceeb4b1f7bffffffffffffffffffffffffffffffffffffffffffffffffffffffff1916817bffffffffffffffffffffffffffffffffffffffffffffffffffffffff1916149150505b949350505050565b600080823b905060008163ffffffff1611915050919050565b6000611bb5611bb084612735565b612704565b905082815260208101848484011115611bcd57600080fd5b611bd88482856128d4565b509392505050565b600081359050611bef816129ce565b92915050565b600081359050611c04816129e5565b92915050565b600081359050611c19816129fc565b92915050565b600081519050611c2e816129fc565b92915050565b600082601f830112611c4557600080fd5b8135611c55848260208601611ba2565b91505092915050565b600081359050611c6d81612a13565b92915050565b600060208284031215611c8557600080fd5b6000611c9384828501611be0565b91505092915050565b60008060408385031215611caf57600080fd5b6000611cbd85828601611be0565b9250506020611cce85828601611be0565b9150509250929050565b600080600060608486031215611ced57600080fd5b6000611cfb86828701611be0565b9350506020611d0c86828701611be0565b9250506040611d1d86828701611c5e565b9150509250925092565b60008060008060808587031215611d3d57600080fd5b6000611d4b87828801611be0565b9450506020611d5c87828801611be0565b9350506040611d6d87828801611c5e565b925050606085013567ffffffffffffffff811115611d8a57600080fd5b611d9687828801611c34565b91505092959194509250565b60008060408385031215611db557600080fd5b6000611dc385828601611be0565b9250506020611dd485828601611bf5565b9150509250929050565b60008060408385031215611df157600080fd5b6000611dff85828601611be0565b9250506020611e1085828601611c5e565b9150509250929050565b600060208284031215611e2c57600080fd5b6000611e3a84828501611c0a565b91505092915050565b600060208284031215611e5557600080fd5b6000611e6384828501611c1f565b91505092915050565b600060208284031215611e7e57600080fd5b6000611e8c84828501611c5e565b91505092915050565b6000611ea183836123bf565b60208301905092915050565b611eb681612860565b82525050565b6000611ec782612775565b611ed181856127a3565b9350611edc83612765565b8060005b83811015611f0d578151611ef48882611e95565b9750611eff83612796565b925050600181019050611ee0565b5085935050505092915050565b611f2381612872565b82525050565b6000611f3482612780565b611f3e81856127b4565b9350611f4e8185602086016128e3565b611f57816129bd565b840191505092915050565b6000611f6d8261278b565b611f7781856127c5565b9350611f878185602086016128e3565b611f90816129bd565b840191505092915050565b6000611fa8601b836127c5565b91507f47656e30206372656174696f6e206c696d6974206578636565647300000000006000830152602082019050919050565b6000611fe8601a836127c5565b91507f596f752063616e277420617070726f766520796f757273656c660000000000006000830152602082019050919050565b6000612028602c836127c5565b91507f53656e646572206163636f756e7420646f65736e27742062656c6f6e6720746f60008301527f20746f6b656e206f776e657200000000000000000000000000000000000000006020830152604082019050919050565b600061208e6020836127c5565b91507f546f6b656e2077697468207468697320494420646f65736e27742065786973746000830152602082019050919050565b60006120ce6022836127c5565b91507f596f75277265206e6f7420746865206f776e6572206f66207468697320746f6b60008301527f656e0000000000000000000000000000000000000000000000000000000000006020830152604082019050919050565b60006121346020836127c5565b91507f52656365697665722063616e206e6f74206265207a65726f20616464726573736000830152602082019050919050565b6000612174600d836127c5565b91507f496e76616c696420746f6b656e000000000000000000000000000000000000006000830152602082019050919050565b60006121b46025836127c5565b91507f536f6d656f6e6520656c73652069732074616d706572696e672074686520617060008301527f70726f76650000000000000000000000000000000000000000000000000000006020830152604082019050919050565b600061221a6010836127c5565b91507f496e76616c696420746f6b656e204964000000000000000000000000000000006000830152602082019050919050565b600061225a6029836127c5565b91507f526563656976657220616464726573732073686f756c64206e6f74206265206160008301527f64647265737328302900000000000000000000000000000000000000000000006020830152604082019050919050565b60006122c06028836127c5565b91507f556e617574686f72697a65642074616d706572696e672077697468207472616e60008301527f7366657246726f6d0000000000000000000000000000000000000000000000006020830152604082019050919050565b60006123266029836127c5565b91507f596f752063616e2774207472616e7366657220746f6b656e20746f207468697360008301527f20636f6e747261637400000000000000000000000000000000000000000000006020830152604082019050919050565b600061238c6018836127c5565b91507f41636365737369626c6520746f206f776e6572206f6e6c7900000000000000006000830152602082019050919050565b6123c8816128ca565b82525050565b6123d7816128ca565b82525050565b60006020820190506123f26000830184611ead565b92915050565b600060808201905061240d6000830187611ead565b61241a6020830186611ead565b61242760408301856123ce565b81810360608301526124398184611f29565b905095945050505050565b600060a0820190506124596000830188611ead565b61246660208301876123ce565b61247360408301866123ce565b61248060608301856123ce565b61248d60808301846123ce565b9695505050505050565b600060208201905081810360008301526124b18184611ebc565b905092915050565b60006020820190506124ce6000830184611f1a565b92915050565b600060208201905081810360008301526124ee8184611f62565b905092915050565b6000602082019050818103600083015261250f81611f9b565b9050919050565b6000602082019050818103600083015261252f81611fdb565b9050919050565b6000602082019050818103600083015261254f8161201b565b9050919050565b6000602082019050818103600083015261256f81612081565b9050919050565b6000602082019050818103600083015261258f816120c1565b9050919050565b600060208201905081810360008301526125af81612127565b9050919050565b600060208201905081810360008301526125cf81612167565b9050919050565b600060208201905081810360008301526125ef816121a7565b9050919050565b6000602082019050818103600083015261260f8161220d565b9050919050565b6000602082019050818103600083015261262f8161224d565b9050919050565b6000602082019050818103600083015261264f816122b3565b9050919050565b6000602082019050818103600083015261266f81612319565b9050919050565b6000602082019050818103600083015261268f8161237f565b9050919050565b60006020820190506126ab60008301846123ce565b92915050565b600060a0820190506126c660008301886123ce565b6126d360208301876123ce565b6126e060408301866123ce565b6126ed60608301856123ce565b6126fa60808301846123ce565b9695505050505050565b6000604051905081810181811067ffffffffffffffff8211171561272b5761272a61298e565b5b8060405250919050565b600067ffffffffffffffff8211156127505761274f61298e565b5b601f19601f8301169050602081019050919050565b6000819050602082019050919050565b600081519050919050565b600081519050919050565b600081519050919050565b6000602082019050919050565b600082825260208201905092915050565b600082825260208201905092915050565b600082825260208201905092915050565b60006127e1826128ca565b91506127ec836128ca565b9250827fffffffffffffffffffffffffffffffffffffffffffffffffffffffffffffffff038211156128215761282061295f565b5b828201905092915050565b6000612837826128ca565b9150612842836128ca565b9250828210156128555761285461295f565b5b828203905092915050565b600061286b826128aa565b9050919050565b60008115159050919050565b60007fffffffff0000000000000000000000000000000000000000000000000000000082169050919050565b600073ffffffffffffffffffffffffffffffffffffffff82169050919050565b6000819050919050565b82818337600083830152505050565b60005b838110156129015780820151818401526020810190506128e6565b83811115612910576000848401525b50505050565b6000612921826128ca565b91507fffffffffffffffffffffffffffffffffffffffffffffffffffffffffffffffff8214156129545761295361295f565b5b600182019050919050565b7f4e487b7100000000000000000000000000000000000000000000000000000000600052601160045260246000fd5b7f4e487b7100000000000000000000000000000000000000000000000000000000600052604160045260246000fd5b6000601f19601f8301169050919050565b6129d781612860565b81146129e257600080fd5b50565b6129ee81612872565b81146129f957600080fd5b50565b612a058161287e565b8114612a1057600080fd5b50565b612a1c816128ca565b8114612a2757600080fd5b5056fea26469706673582212209af46937ab4225933d130a00c4e9a612b59e0ecfe9e8647d2a0a3a2054fdee3c64736f6c63430008000033",
  "immutableReferences": {},
  "source": "// SPDX-License-Identifier: UNLICENSED\r\npragma solidity >0.4.22 <=0.9.0;\r\nimport './IERC721.sol';\r\nimport './Ownable.sol';\r\nimport './IERC721Receiver.sol';\r\n\r\ncontract KittyContract is IERC721,Ownable{\r\n   string public constant _name = \"TanuKitties\";\r\n   string public constant _symbol = \"TKT\";\r\n   uint public constant CREATION_LIMIT_GEN0 = 20;\r\n   bytes4 internal constant MAGIC_ERC721_RECEIVED = bytes4(keccak256(\"onERC721Received(address,address,uint256,bytes)\"));\r\n   bytes4 private _INTERFACE_ID_ERC721 = 0x80ac58cd;\r\n   bytes4 private _INTERFACE_ID_ERC165 = 0x01ffc9a7;\r\n\r\n   event Birth(address owner, uint kittenId,uint mumId,uint dadId,uint genes);\r\n\r\n   struct Kitty{\r\n       uint256 genes;\r\n       uint64 birthTime;\r\n       uint32 mumId;\r\n       uint32 dadId;\r\n       uint16 generation;\r\n   }\r\n   Kitty[] kitties;\r\n\r\n   mapping(address => uint)private ownershipTokenCount; //token owner => #tokens\r\n   mapping(uint => address)public tokenOwner; // tokenId => tokenowner\r\n   mapping(uint => address) public kittyIndexToApproved;\r\n   mapping(address => mapping(address => bool))private _operatorApprovals;\r\n   mapping(address => uint[]) private ownerToKittyIds;\r\n   uint gen0Counter;\r\n   \r\n   modifier checkTransfer(address _from, address _to, uint256 _tokenId){\r\n      require(_tokenId < kitties.length,'Invalid token Id');\r\n      require(_to != address(0),\"Receiver address should not be address(0)\");\r\n      require(_from == tokenOwner[_tokenId],\"Sender account doesn't belong to token owner\");\r\n      require(msg.sender == _from || operates(msg.sender,_tokenId) || isApprovedForAll(_from,msg.sender),'Unauthorized tampering with transferFrom');\r\n      _;\r\n   }\r\n   \r\n   function supportsInterface(bytes4 _interfaceId) external view returns(bool){\r\n      return(_interfaceId == _INTERFACE_ID_ERC721 || _interfaceId == _INTERFACE_ID_ERC165);\r\n   }\r\n   \r\n   function getKittyIds(address _owner) public view returns(uint[] memory){\r\n      return ownerToKittyIds[_owner];\r\n   }\r\n\r\n   function getKitty(uint _tokenId) public virtual view returns(uint genes,\r\n                                                          uint birthTime,\r\n                                                          uint mumId,\r\n                                                          uint dadId,\r\n                                                          uint generation){\r\n      Kitty storage tempKitty = kitties[_tokenId];\r\n      genes = tempKitty.genes;\r\n      birthTime = tempKitty.birthTime;\r\n      mumId = tempKitty.mumId;\r\n      dadId = tempKitty.dadId;\r\n      generation = tempKitty.generation;\r\n   }\r\n\r\n   function createKittyGen0(uint _genes) public onlyOwner returns(uint){\r\n     require(gen0Counter < CREATION_LIMIT_GEN0,'Gen0 creation limit exceeds');\r\n     gen0Counter++;\r\n     return _createKitty(0,0,_genes,0,owner); \r\n   }\r\n\r\n   function _createKitty(uint _mumId,uint _dadId,uint _genes,uint _generation, address _owner) private returns(uint){\r\n     Kitty memory newKitty = Kitty({genes :_genes,\r\n                                    birthTime: uint64(block.timestamp),\r\n                                    mumId: uint32(_mumId),\r\n                                    dadId: uint32(_dadId),\r\n                                    generation: uint16(_generation)});\r\n     uint newID = kitties.length;\r\n     kitties.push(newKitty);\r\n     emit Birth(_owner,newID,_mumId,_dadId,_genes);\r\n     _transfer(address(0),_owner,newID);\r\n\r\n     return newID;\r\n   }\r\n\r\n   function balanceOf(address owner) public virtual view override returns (uint256 balance){\r\n       balance = ownershipTokenCount[owner];\r\n   }\r\n   \r\n   function totalSupply() public virtual view override returns (uint256 total){\r\n      total = kitties.length;\r\n   }\r\n\r\n   function name() public virtual pure override returns (string memory){\r\n      return _name;\r\n   }\r\n\r\n   function symbol() public virtual pure override returns (string memory tokenSymbol){\r\n       tokenSymbol = _symbol;\r\n   }\r\n\r\n   function ownerOf(uint256 tokenId) public virtual view override returns (address owner){\r\n      require(tokenOwner[tokenId] != address(0),\"Token with this ID doesn't exist\");\r\n      owner = tokenOwner[tokenId];\r\n   }\r\n   \r\n   function transfer(address to, uint256 tokenId) public virtual override{\r\n      require(to != address(0),\"Receiver can not be zero address\");\r\n      require(to != address(this),\"You can't transfer token to this contract\");\r\n      require(owns(msg.sender,tokenId),\"You're not the owner of this token\");\r\n      _transfer(msg.sender, to, tokenId);\r\n   }\r\n\r\n   function _transfer(address from, address to, uint tokenId) internal{\r\n       //from\r\n       if(from != address(0)){\r\n        uint len = ownerToKittyIds[from].length;\r\n        uint rowToDelete = 0;\r\n        for(uint i = 0 ; i < len ; i++){\r\n           if(i == tokenId){\r\n              rowToDelete = i;\r\n              break;\r\n           }\r\n        }\r\n        ownerToKittyIds[from][rowToDelete] = ownerToKittyIds[from][len-1];\r\n        ownerToKittyIds[from].pop();\r\n        ownershipTokenCount[from] -= 1;\r\n        delete kittyIndexToApproved[tokenId]; //nice point\r\n       }\r\n       \r\n       //to\r\n       ownerToKittyIds[to].push(tokenId);\r\n       ownershipTokenCount[to] += 1;\r\n       tokenOwner[tokenId] = to;\r\n\r\n       emit Transfer(from,to,tokenId);\r\n   }\r\n\r\n   function approve(address _approved, uint256 _tokenId) public virtual override{\r\n      require(owns(msg.sender,_tokenId) || operates(msg.sender,_tokenId),'Someone else is tampering the approve');\r\n      _approve(_approved,_tokenId);\r\n      emit Approval(msg.sender, _approved, _tokenId);\r\n   }\r\n\r\n   function _approve(address _approved, uint _tokenId)private{\r\n       kittyIndexToApproved[_tokenId] = _approved;\r\n   }\r\n\r\n   function setApprovalForAll(address _operator, bool _approved) public virtual override{\r\n      require(msg.sender != _operator,\"You can't approve yourself\");\r\n      _setApprovalForAll(msg.sender,_operator,_approved);\r\n      emit ApprovalForAll(msg.sender,_operator,_approved);\r\n   }\r\n   \r\n   function _setApprovalForAll(address _owner,address _operator,bool _approved)private{\r\n      _operatorApprovals[_owner][_operator] = _approved;\r\n   }\r\n\r\n   function getApproved(uint256 _tokenId) public virtual view override returns (address){\r\n       require(_tokenId < kitties.length,'Invalid token');\r\n       return kittyIndexToApproved[_tokenId];\r\n   }\r\n\r\n   function isApprovedForAll(address _owner, address _operator) public virtual view override returns (bool){\r\n     return _operatorApprovals[_owner][_operator];\r\n   }\r\n   \r\n   function transferFrom(address _from, address _to, uint256 _tokenId) public virtual override checkTransfer(_from,_to,_tokenId){\r\n      _transfer(_from,_to,_tokenId);\r\n   }\r\n\r\n   function safeTransferFrom(address _from, address _to, uint256 _tokenId) public virtual override {\r\n     safeTransferFrom(_from,_to,_tokenId,\"\");\r\n   }\r\n\r\n   function safeTransferFrom(address _from, address _to, uint256 _tokenId, bytes memory data) public virtual override checkTransfer(_from,_to,_tokenId){\r\n       _safeTransfer(_from,_to,_tokenId,data);\r\n   }\r\n\r\n   function _safeTransfer(address _from, address _to, uint _tokenId,bytes memory _data)  internal{\r\n        _transfer(_from, _to,_tokenId);\r\n        require(_checkERC721Support(_from,_to,_tokenId,_data));\r\n   }\r\n   function _checkERC721Support(address _from, address _to, uint _tokenId,bytes memory _data) internal returns(bool){\r\n      if(!isContract(_to)){\r\n         return true;\r\n      }\r\n      bytes4 returnData = IERC721Receiver(_to).onERC721Received(msg.sender,_from, _tokenId,_data);\r\n      return returnData == MAGIC_ERC721_RECEIVED;\r\n   }\r\n\r\n   function isContract(address _to)internal view returns(bool){\r\n      uint32 size;\r\n      assembly {\r\n         size := extcodesize(_to)\r\n      }\r\n      return (size > 0);\r\n   }\r\n\r\n   function owns(address claimant, uint tokenID)internal view returns(bool){\r\n      return (tokenOwner[tokenID] == claimant);\r\n   }\r\n\r\n   function operates(address _approved,uint _tokenId) internal view returns(bool){\r\n      return kittyIndexToApproved[_tokenId] == _approved;\r\n   }\r\n\r\n\r\n\r\n}",
  "sourcePath": "D:/BlockChain/Ethereum-201/CryptoKitties/academy-kitties-template/contracts/kittyContract.sol",
  "compiler": {
    "name": "solc",
    "version": "0.8.0+commit.c7dfd78e.Emscripten.clang"
  },
  "schemaVersion": "3.4.1",
  "updatedAt": "2021-08-11T11:51:12.369Z",
  "networkType": "ethereum",
  "devdoc": {
    "kind": "dev",
    "methods": {
      "approve(address,uint256)": {
        "details": "The zero address indicates there is no approved address.  Throws unless `msg.sender` is the current NFT owner, or an authorized  operator of the current owner.",
        "params": {
          "_approved": "The new approved NFT controller",
          "_tokenId": "The NFT to approve"
        }
      },
      "balanceOf(address)": {
        "details": "Returns the number of tokens in ``owner``'s account."
      },
      "getApproved(uint256)": {
        "details": "Throws if `_tokenId` is not a valid NFT.",
        "params": {
          "_tokenId": "The NFT to find the approved address for"
        },
        "returns": {
          "_0": "The approved address for this NFT, or the zero address if there is none"
        }
      },
      "isApprovedForAll(address,address)": {
        "params": {
          "_operator": "The address that acts on behalf of the owner",
          "_owner": "The address that owns the NFTs"
        },
        "returns": {
          "_0": "True if `_operator` is an approved operator for `_owner`, false otherwise"
        }
      },
      "ownerOf(uint256)": {
        "details": "Returns the owner of the `tokenId` token. Requirements: - `tokenId` must exist."
      },
      "safeTransferFrom(address,address,uint256)": {
        "details": "This works identically to the other function with an extra data parameter,  except this function just sets data to \"\".",
        "params": {
          "_from": "The current owner of the NFT",
          "_to": "The new owner",
          "_tokenId": "The NFT to transfer"
        }
      },
      "safeTransferFrom(address,address,uint256,bytes)": {
        "details": "Throws unless `msg.sender` is the current owner, an authorized  operator, or the approved address for this NFT. Throws if `_from` is  not the current owner. Throws if `_to` is the zero address. Throws if  `_tokenId` is not a valid NFT. When transfer is complete, this function  checks if `_to` is a smart contract (code size > 0). If so, it calls  `onERC721Received` on `_to` and throws if the return value is not  `bytes4(keccak256(\"onERC721Received(address,address,uint256,bytes)\"))`.",
        "params": {
          "_from": "The current owner of the NFT",
          "_to": "The new owner",
          "_tokenId": "The NFT to transfer",
          "data": "Additional data with no specified format, sent in call to `_to`"
        }
      },
      "setApprovalForAll(address,bool)": {
        "details": "Emits the ApprovalForAll event. The contract MUST allow  multiple operators per owner.",
        "params": {
          "_approved": "True if the operator is approved, false to revoke approval",
          "_operator": "Address to add to the set of authorized operators"
        }
      },
      "transferFrom(address,address,uint256)": {
        "details": "Throws unless `msg.sender` is the current owner, an authorized  operator, or the approved address for this NFT. Throws if `_from` is  not the current owner. Throws if `_to` is the zero address. Throws if  `_tokenId` is not a valid NFT.",
        "params": {
          "_from": "The current owner of the NFT",
          "_to": "The new owner",
          "_tokenId": "The NFT to transfer"
        }
      }
    },
    "version": 1
  },
  "userdoc": {
    "kind": "user",
    "methods": {
      "approve(address,uint256)": {
        "notice": "Change or reaffirm the approved address for an NFT"
      },
      "getApproved(uint256)": {
        "notice": "Get the approved address for a single NFT"
      },
      "isApprovedForAll(address,address)": {
        "notice": "Query if an address is an authorized operator for another address"
      },
      "safeTransferFrom(address,address,uint256)": {
        "notice": "Transfers the ownership of an NFT from one address to another address"
      },
      "safeTransferFrom(address,address,uint256,bytes)": {
        "notice": "Transfers the ownership of an NFT from one address to another address"
      },
      "setApprovalForAll(address,bool)": {
        "notice": "Enable or disable approval for a third party (\"operator\") to manage  all of `msg.sender`'s assets"
      },
      "transferFrom(address,address,uint256)": {
        "notice": "Transfer ownership of an NFT -- THE CALLER IS RESPONSIBLE  TO CONFIRM THAT `_to` IS CAPABLE OF RECEIVING NFTS OR ELSE  THEY MAY BE PERMANENTLY LOST"
      }
    },
    "version": 1
  }
}