{
  "contractName": "KittyContract",
  "abi": [
    {
      "anonymous": false,
      "inputs": [
        {
          "indexed": true,
          "internalType": "address",
          "name": "owner",
          "type": "address"
        },
        {
          "indexed": true,
          "internalType": "address",
          "name": "approved",
          "type": "address"
        },
        {
          "indexed": true,
          "internalType": "uint256",
          "name": "tokenId",
          "type": "uint256"
        }
      ],
      "name": "Approval",
      "type": "event"
    },
    {
      "anonymous": false,
      "inputs": [
        {
          "indexed": true,
          "internalType": "address",
          "name": "owner",
          "type": "address"
        },
        {
          "indexed": true,
          "internalType": "address",
          "name": "operator",
          "type": "address"
        },
        {
          "indexed": false,
          "internalType": "bool",
          "name": "approved",
          "type": "bool"
        }
      ],
      "name": "ApprovalForAll",
      "type": "event"
    },
    {
      "anonymous": false,
      "inputs": [
        {
          "indexed": false,
          "internalType": "address",
          "name": "owner",
          "type": "address"
        },
        {
          "indexed": false,
          "internalType": "uint256",
          "name": "kittenId",
          "type": "uint256"
        },
        {
          "indexed": false,
          "internalType": "uint256",
          "name": "mumId",
          "type": "uint256"
        },
        {
          "indexed": false,
          "internalType": "uint256",
          "name": "dadId",
          "type": "uint256"
        },
        {
          "indexed": false,
          "internalType": "uint256",
          "name": "genes",
          "type": "uint256"
        }
      ],
      "name": "Birth",
      "type": "event"
    },
    {
      "anonymous": false,
      "inputs": [
        {
          "indexed": true,
          "internalType": "address",
          "name": "from",
          "type": "address"
        },
        {
          "indexed": true,
          "internalType": "address",
          "name": "to",
          "type": "address"
        },
        {
          "indexed": true,
          "internalType": "uint256",
          "name": "tokenId",
          "type": "uint256"
        }
      ],
      "name": "Transfer",
      "type": "event"
    },
    {
      "inputs": [],
      "name": "CREATION_LIMIT_GEN0",
      "outputs": [
        {
          "internalType": "uint256",
          "name": "",
          "type": "uint256"
        }
      ],
      "stateMutability": "view",
      "type": "function",
      "constant": true
    },
    {
      "inputs": [],
      "name": "_name",
      "outputs": [
        {
          "internalType": "string",
          "name": "",
          "type": "string"
        }
      ],
      "stateMutability": "view",
      "type": "function",
      "constant": true
    },
    {
      "inputs": [],
      "name": "_symbol",
      "outputs": [
        {
          "internalType": "string",
          "name": "",
          "type": "string"
        }
      ],
      "stateMutability": "view",
      "type": "function",
      "constant": true
    },
    {
      "inputs": [
        {
          "internalType": "uint256",
          "name": "",
          "type": "uint256"
        }
      ],
      "name": "kittyIndexToApproved",
      "outputs": [
        {
          "internalType": "address",
          "name": "",
          "type": "address"
        }
      ],
      "stateMutability": "view",
      "type": "function",
      "constant": true
    },
    {
      "inputs": [],
      "name": "owner",
      "outputs": [
        {
          "internalType": "address",
          "name": "",
          "type": "address"
        }
      ],
      "stateMutability": "view",
      "type": "function",
      "constant": true
    },
    {
      "inputs": [
        {
          "internalType": "uint256",
          "name": "",
          "type": "uint256"
        }
      ],
      "name": "tokenOwner",
      "outputs": [
        {
          "internalType": "address",
          "name": "",
          "type": "address"
        }
      ],
      "stateMutability": "view",
      "type": "function",
      "constant": true
    },
    {
      "inputs": [
        {
          "internalType": "bytes4",
          "name": "_interfaceId",
          "type": "bytes4"
        }
      ],
      "name": "supportsInterface",
      "outputs": [
        {
          "internalType": "bool",
          "name": "",
          "type": "bool"
        }
      ],
      "stateMutability": "view",
      "type": "function",
      "constant": true
    },
    {
      "inputs": [
        {
          "internalType": "address",
          "name": "_owner",
          "type": "address"
        }
      ],
      "name": "getKittyIds",
      "outputs": [
        {
          "internalType": "uint256[]",
          "name": "",
          "type": "uint256[]"
        }
      ],
      "stateMutability": "view",
      "type": "function",
      "constant": true
    },
    {
      "inputs": [
        {
          "internalType": "uint256",
          "name": "_tokenId",
          "type": "uint256"
        }
      ],
      "name": "getKitty",
      "outputs": [
        {
          "internalType": "uint256",
          "name": "genes",
          "type": "uint256"
        },
        {
          "internalType": "uint256",
          "name": "birthTime",
          "type": "uint256"
        },
        {
          "internalType": "uint256",
          "name": "mumId",
          "type": "uint256"
        },
        {
          "internalType": "uint256",
          "name": "dadId",
          "type": "uint256"
        },
        {
          "internalType": "uint256",
          "name": "generation",
          "type": "uint256"
        }
      ],
      "stateMutability": "view",
      "type": "function",
      "constant": true
    },
    {
      "inputs": [
        {
          "internalType": "uint256",
          "name": "_genes",
          "type": "uint256"
        }
      ],
      "name": "createKittyGen0",
      "outputs": [
        {
          "internalType": "uint256",
          "name": "",
          "type": "uint256"
        }
      ],
      "stateMutability": "nonpayable",
      "type": "function"
    },
    {
      "inputs": [
        {
          "internalType": "uint256",
          "name": "_dadId",
          "type": "uint256"
        },
        {
          "internalType": "uint256",
          "name": "_mumId",
          "type": "uint256"
        }
      ],
      "name": "breed",
      "outputs": [
        {
          "internalType": "uint256",
          "name": "",
          "type": "uint256"
        }
      ],
      "stateMutability": "nonpayable",
      "type": "function"
    },
    {
      "inputs": [
        {
          "internalType": "address",
          "name": "owner",
          "type": "address"
        }
      ],
      "name": "balanceOf",
      "outputs": [
        {
          "internalType": "uint256",
          "name": "balance",
          "type": "uint256"
        }
      ],
      "stateMutability": "view",
      "type": "function",
      "constant": true
    },
    {
      "inputs": [],
      "name": "totalSupply",
      "outputs": [
        {
          "internalType": "uint256",
          "name": "total",
          "type": "uint256"
        }
      ],
      "stateMutability": "view",
      "type": "function",
      "constant": true
    },
    {
      "inputs": [],
      "name": "name",
      "outputs": [
        {
          "internalType": "string",
          "name": "",
          "type": "string"
        }
      ],
      "stateMutability": "pure",
      "type": "function",
      "constant": true
    },
    {
      "inputs": [],
      "name": "symbol",
      "outputs": [
        {
          "internalType": "string",
          "name": "tokenSymbol",
          "type": "string"
        }
      ],
      "stateMutability": "pure",
      "type": "function",
      "constant": true
    },
    {
      "inputs": [
        {
          "internalType": "uint256",
          "name": "tokenId",
          "type": "uint256"
        }
      ],
      "name": "ownerOf",
      "outputs": [
        {
          "internalType": "address",
          "name": "owner",
          "type": "address"
        }
      ],
      "stateMutability": "view",
      "type": "function",
      "constant": true
    },
    {
      "inputs": [
        {
          "internalType": "address",
          "name": "to",
          "type": "address"
        },
        {
          "internalType": "uint256",
          "name": "tokenId",
          "type": "uint256"
        }
      ],
      "name": "transfer",
      "outputs": [],
      "stateMutability": "nonpayable",
      "type": "function"
    },
    {
      "inputs": [
        {
          "internalType": "address",
          "name": "_approved",
          "type": "address"
        },
        {
          "internalType": "uint256",
          "name": "_tokenId",
          "type": "uint256"
        }
      ],
      "name": "approve",
      "outputs": [],
      "stateMutability": "nonpayable",
      "type": "function"
    },
    {
      "inputs": [
        {
          "internalType": "address",
          "name": "_operator",
          "type": "address"
        },
        {
          "internalType": "bool",
          "name": "_approved",
          "type": "bool"
        }
      ],
      "name": "setApprovalForAll",
      "outputs": [],
      "stateMutability": "nonpayable",
      "type": "function"
    },
    {
      "inputs": [
        {
          "internalType": "uint256",
          "name": "_tokenId",
          "type": "uint256"
        }
      ],
      "name": "getApproved",
      "outputs": [
        {
          "internalType": "address",
          "name": "",
          "type": "address"
        }
      ],
      "stateMutability": "view",
      "type": "function",
      "constant": true
    },
    {
      "inputs": [
        {
          "internalType": "address",
          "name": "_owner",
          "type": "address"
        },
        {
          "internalType": "address",
          "name": "_operator",
          "type": "address"
        }
      ],
      "name": "isApprovedForAll",
      "outputs": [
        {
          "internalType": "bool",
          "name": "",
          "type": "bool"
        }
      ],
      "stateMutability": "view",
      "type": "function",
      "constant": true
    },
    {
      "inputs": [
        {
          "internalType": "address",
          "name": "_from",
          "type": "address"
        },
        {
          "internalType": "address",
          "name": "_to",
          "type": "address"
        },
        {
          "internalType": "uint256",
          "name": "_tokenId",
          "type": "uint256"
        }
      ],
      "name": "transferFrom",
      "outputs": [],
      "stateMutability": "nonpayable",
      "type": "function"
    },
    {
      "inputs": [
        {
          "internalType": "address",
          "name": "_from",
          "type": "address"
        },
        {
          "internalType": "address",
          "name": "_to",
          "type": "address"
        },
        {
          "internalType": "uint256",
          "name": "_tokenId",
          "type": "uint256"
        }
      ],
      "name": "safeTransferFrom",
      "outputs": [],
      "stateMutability": "nonpayable",
      "type": "function"
    },
    {
      "inputs": [
        {
          "internalType": "address",
          "name": "_from",
          "type": "address"
        },
        {
          "internalType": "address",
          "name": "_to",
          "type": "address"
        },
        {
          "internalType": "uint256",
          "name": "_tokenId",
          "type": "uint256"
        },
        {
          "internalType": "bytes",
          "name": "data",
          "type": "bytes"
        }
      ],
      "name": "safeTransferFrom",
      "outputs": [],
      "stateMutability": "nonpayable",
      "type": "function"
    }
  ],
  "bytecode": "0x60806040526380ac58cd60e01b600060146101000a81548163ffffffff021916908360e01c02179055506301ffc9a760e01b600060186101000a81548163ffffffff021916908360e01c021790555034801561005a57600080fd5b50336000806101000a81548173ffffffffffffffffffffffffffffffffffffffff021916908373ffffffffffffffffffffffffffffffffffffffff16021790555061304c806100aa6000396000f3fe608060405234801561001057600080fd5b50600436106101585760003560e01c80638da5cb5b116100c3578063b88d4fde1161007c578063b88d4fde146103ed578063d28d885214610409578063d5a776ca14610427578063d9ecad7b14610457578063e985e9c514610487578063e98b7f4d146104b757610158565b80638da5cb5b1461033d57806395d89b411461035b578063a22cb46514610379578063a9059cbb14610395578063b09f1266146103b1578063b4834330146103cf57610158565b806323b872dd1161011557806323b872dd1461024557806342842e0e14610261578063481af3d31461027d5780636352211e146102ad57806370a08231146102dd578063788f783f1461030d57610158565b806301ffc9a71461015d57806306fdde031461018d578063081812fc146101ab578063095ea7b3146101db57806318160ddd146101f75780631caaa48714610215575b600080fd5b610177600480360381019061017291906121d3565b6104eb565b604051610184919061297a565b60405180910390f35b61019561059a565b6040516101a29190612995565b60405180910390f35b6101c560048036038101906101c09190612225565b6105d7565b6040516101d2919061289e565b60405180910390f35b6101f560048036038101906101f09190612197565b61065b565b005b6101ff61071e565b60405161020c9190612b97565b60405180910390f35b61022f600480360381019061022a9190612225565b61072b565b60405161023c919061289e565b60405180910390f35b61025f600480360381019061025a9190612091565b61075e565b005b61027b60048036038101906102769190612091565b61095c565b005b61029760048036038101906102929190612225565b61097c565b6040516102a4919061289e565b60405180910390f35b6102c760048036038101906102c29190612225565b6109af565b6040516102d4919061289e565b60405180910390f35b6102f760048036038101906102f2919061202c565b610a8e565b6040516103049190612b97565b60405180910390f35b6103276004803603810190610322919061202c565b610ad7565b6040516103349190612958565b60405180910390f35b610345610b6e565b604051610352919061289e565b60405180910390f35b610363610b92565b6040516103709190612995565b60405180910390f35b610393600480360381019061038e919061215b565b610bcf565b005b6103af60048036038101906103aa9190612197565b610cb2565b005b6103b9610de9565b6040516103c69190612995565b60405180910390f35b6103d7610e22565b6040516103e49190612b97565b60405180910390f35b610407600480360381019061040291906120e0565b610e27565b005b610411611027565b60405161041e9190612995565b60405180910390f35b610441600480360381019061043c9190612225565b611060565b60405161044e9190612b97565b60405180910390f35b610471600480360381019061046c919061224e565b611184565b60405161047e9190612b97565b60405180910390f35b6104a1600480360381019061049c9190612055565b6114ae565b6040516104ae919061297a565b60405180910390f35b6104d160048036038101906104cc9190612225565b611542565b6040516104e2959493929190612bb2565b60405180910390f35b60008060149054906101000a900460e01b7bffffffffffffffffffffffffffffffffffffffffffffffffffffffff1916827bffffffffffffffffffffffffffffffffffffffffffffffffffffffff191614806105935750600060189054906101000a900460e01b7bffffffffffffffffffffffffffffffffffffffffffffffffffffffff1916827bffffffffffffffffffffffffffffffffffffffffffffffffffffffff1916145b9050919050565b60606040518060400160405280600b81526020017f54616e754b697474696573000000000000000000000000000000000000000000815250905090565b60006001805490508210610620576040517f08c379a000000000000000000000000000000000000000000000000000000000815260040161061790612a77565b60405180910390fd5b6004600083815260200190815260200160002060009054906101000a900473ffffffffffffffffffffffffffffffffffffffff169050919050565b610665338261161e565b806106765750610675338261168a565b5b6106b5576040517f08c379a00000000000000000000000000000000000000000000000000000000081526004016106ac90612ab7565b60405180910390fd5b6106bf82826116f6565b808273ffffffffffffffffffffffffffffffffffffffff163373ffffffffffffffffffffffffffffffffffffffff167f8c5be1e5ebec7d5bd14f71427d1e84f3dd0314c0f7b2291e5b200ac8c7c3b92560405160405180910390a45050565b6000600180549050905090565b60036020528060005260406000206000915054906101000a900473ffffffffffffffffffffffffffffffffffffffff1681565b82828260018054905081106107a8576040517f08c379a000000000000000000000000000000000000000000000000000000000815260040161079f90612ad7565b60405180910390fd5b600073ffffffffffffffffffffffffffffffffffffffff168273ffffffffffffffffffffffffffffffffffffffff161415610818576040517f08c379a000000000000000000000000000000000000000000000000000000000815260040161080f90612af7565b60405180910390fd5b6003600082815260200190815260200160002060009054906101000a900473ffffffffffffffffffffffffffffffffffffffff1673ffffffffffffffffffffffffffffffffffffffff168373ffffffffffffffffffffffffffffffffffffffff16146108b9576040517f08c379a00000000000000000000000000000000000000000000000000000000081526004016108b0906129f7565b60405180910390fd5b8273ffffffffffffffffffffffffffffffffffffffff163373ffffffffffffffffffffffffffffffffffffffff1614806108f957506108f8338261168a565b5b8061090a575061090983336114ae565b5b610949576040517f08c379a000000000000000000000000000000000000000000000000000000000815260040161094090612b17565b60405180910390fd5b61095486868661174c565b505050505050565b61097783838360405180602001604052806000815250610e27565b505050565b60046020528060005260406000206000915054906101000a900473ffffffffffffffffffffffffffffffffffffffff1681565b60008073ffffffffffffffffffffffffffffffffffffffff166003600084815260200190815260200160002060009054906101000a900473ffffffffffffffffffffffffffffffffffffffff1673ffffffffffffffffffffffffffffffffffffffff161415610a53576040517f08c379a0000000000000000000000000000000000000000000000000000000008152600401610a4a90612a17565b60405180910390fd5b6003600083815260200190815260200160002060009054906101000a900473ffffffffffffffffffffffffffffffffffffffff169050919050565b6000600260008373ffffffffffffffffffffffffffffffffffffffff1673ffffffffffffffffffffffffffffffffffffffff168152602001908152602001600020549050919050565b6060600660008373ffffffffffffffffffffffffffffffffffffffff1673ffffffffffffffffffffffffffffffffffffffff168152602001908152602001600020805480602002602001604051908101604052809291908181526020018280548015610b6257602002820191906000526020600020905b815481526020019060010190808311610b4e575b50505050509050919050565b60008054906101000a900473ffffffffffffffffffffffffffffffffffffffff1681565b60606040518060400160405280600381526020017f544b540000000000000000000000000000000000000000000000000000000000815250905090565b8173ffffffffffffffffffffffffffffffffffffffff163373ffffffffffffffffffffffffffffffffffffffff161415610c3e576040517f08c379a0000000000000000000000000000000000000000000000000000000008152600401610c35906129d7565b60405180910390fd5b610c49338383611b94565b8173ffffffffffffffffffffffffffffffffffffffff163373ffffffffffffffffffffffffffffffffffffffff167f17307eab39ab6107e8899845ad3d59bd9653f200f220920489ca2b5937696c3183604051610ca6919061297a565b60405180910390a35050565b600073ffffffffffffffffffffffffffffffffffffffff168273ffffffffffffffffffffffffffffffffffffffff161415610d22576040517f08c379a0000000000000000000000000000000000000000000000000000000008152600401610d1990612a57565b60405180910390fd5b3073ffffffffffffffffffffffffffffffffffffffff168273ffffffffffffffffffffffffffffffffffffffff161415610d91576040517f08c379a0000000000000000000000000000000000000000000000000000000008152600401610d8890612b57565b60405180910390fd5b610d9b338261161e565b610dda576040517f08c379a0000000000000000000000000000000000000000000000000000000008152600401610dd190612a37565b60405180910390fd5b610de533838361174c565b5050565b6040518060400160405280600381526020017f544b54000000000000000000000000000000000000000000000000000000000081525081565b601481565b8383836001805490508110610e71576040517f08c379a0000000000000000000000000000000000000000000000000000000008152600401610e6890612ad7565b60405180910390fd5b600073ffffffffffffffffffffffffffffffffffffffff168273ffffffffffffffffffffffffffffffffffffffff161415610ee1576040517f08c379a0000000000000000000000000000000000000000000000000000000008152600401610ed890612af7565b60405180910390fd5b6003600082815260200190815260200160002060009054906101000a900473ffffffffffffffffffffffffffffffffffffffff1673ffffffffffffffffffffffffffffffffffffffff168373ffffffffffffffffffffffffffffffffffffffff1614610f82576040517f08c379a0000000000000000000000000000000000000000000000000000000008152600401610f79906129f7565b60405180910390fd5b8273ffffffffffffffffffffffffffffffffffffffff163373ffffffffffffffffffffffffffffffffffffffff161480610fc25750610fc1338261168a565b5b80610fd35750610fd283336114ae565b5b611012576040517f08c379a000000000000000000000000000000000000000000000000000000000815260040161100990612b17565b60405180910390fd5b61101e87878787611c2d565b50505050505050565b6040518060400160405280600b81526020017f54616e754b69747469657300000000000000000000000000000000000000000081525081565b60003373ffffffffffffffffffffffffffffffffffffffff1660008054906101000a900473ffffffffffffffffffffffffffffffffffffffff1673ffffffffffffffffffffffffffffffffffffffff16146110f0576040517f08c379a00000000000000000000000000000000000000000000000000000000081526004016110e790612b77565b60405180910390fd5b601460075410611135576040517f08c379a000000000000000000000000000000000000000000000000000000000815260040161112c906129b7565b60405180910390fd5b6007600081548092919061114890612ea2565b919050555061117d6000808460008060009054906101000a900473ffffffffffffffffffffffffffffffffffffffff16611c53565b9050919050565b6000611190338461161e565b6111cf576040517f08c379a00000000000000000000000000000000000000000000000000000000081526004016111c690612a97565b60405180910390fd5b6111d9338361161e565b611218576040517f08c379a000000000000000000000000000000000000000000000000000000000815260040161120f90612b37565b60405180910390fd5b600060018481548110611254577f4e487b7100000000000000000000000000000000000000000000000000000000600052603260045260246000fd5b90600052602060002090600202016040518060a0016040529081600082015481526020016001820160009054906101000a900467ffffffffffffffff1667ffffffffffffffff1667ffffffffffffffff1681526020016001820160089054906101000a900463ffffffff1663ffffffff1663ffffffff16815260200160018201600c9054906101000a900463ffffffff1663ffffffff1663ffffffff1681526020016001820160109054906101000a900461ffff1661ffff1661ffff16815250509050600060018481548110611353577f4e487b7100000000000000000000000000000000000000000000000000000000600052603260045260246000fd5b90600052602060002090600202016040518060a0016040529081600082015481526020016001820160009054906101000a900467ffffffffffffffff1667ffffffffffffffff1667ffffffffffffffff1681526020016001820160089054906101000a900463ffffffff1663ffffffff1663ffffffff16815260200160018201600c9054906101000a900463ffffffff1663ffffffff1663ffffffff1681526020016001820160109054906101000a900461ffff1661ffff1661ffff16815250509050600061142a83600001518360000151611dd4565b9050600085871115611459576001876114439190612cd7565b90506002816114529190612d2d565b9050611495565b858710156114845760018661146e9190612cd7565b905060028161147d9190612d2d565b9050611494565b6001876114919190612cd7565b90505b5b6114a28688848433611c53565b94505050505092915050565b6000600560008473ffffffffffffffffffffffffffffffffffffffff1673ffffffffffffffffffffffffffffffffffffffff16815260200190815260200160002060008373ffffffffffffffffffffffffffffffffffffffff1673ffffffffffffffffffffffffffffffffffffffff16815260200190815260200160002060009054906101000a900460ff16905092915050565b60008060008060008060018781548110611585577f4e487b7100000000000000000000000000000000000000000000000000000000600052603260045260246000fd5b90600052602060002090600202019050806000015495508060010160009054906101000a900467ffffffffffffffff1667ffffffffffffffff1694508060010160089054906101000a900463ffffffff1663ffffffff16935080600101600c9054906101000a900463ffffffff1663ffffffff1692508060010160109054906101000a900461ffff1661ffff1691505091939590929450565b60008273ffffffffffffffffffffffffffffffffffffffff166003600084815260200190815260200160002060009054906101000a900473ffffffffffffffffffffffffffffffffffffffff1673ffffffffffffffffffffffffffffffffffffffff1614905092915050565b60008273ffffffffffffffffffffffffffffffffffffffff166004600084815260200190815260200160002060009054906101000a900473ffffffffffffffffffffffffffffffffffffffff1673ffffffffffffffffffffffffffffffffffffffff1614905092915050565b816004600083815260200190815260200160002060006101000a81548173ffffffffffffffffffffffffffffffffffffffff021916908373ffffffffffffffffffffffffffffffffffffffff1602179055505050565b600073ffffffffffffffffffffffffffffffffffffffff168373ffffffffffffffffffffffffffffffffffffffff1614611a25576000600660008573ffffffffffffffffffffffffffffffffffffffff1673ffffffffffffffffffffffffffffffffffffffff1681526020019081526020016000208054905090506000805b828110156117f657838114156117e3578091506117f6565b80806117ee90612ea2565b9150506117cb565b50600660008673ffffffffffffffffffffffffffffffffffffffff1673ffffffffffffffffffffffffffffffffffffffff1681526020019081526020016000206001836118439190612db8565b8154811061187a577f4e487b7100000000000000000000000000000000000000000000000000000000600052603260045260246000fd5b9060005260206000200154600660008773ffffffffffffffffffffffffffffffffffffffff1673ffffffffffffffffffffffffffffffffffffffff16815260200190815260200160002082815481106118fc577f4e487b7100000000000000000000000000000000000000000000000000000000600052603260045260246000fd5b9060005260206000200181905550600660008673ffffffffffffffffffffffffffffffffffffffff1673ffffffffffffffffffffffffffffffffffffffff16815260200190815260200160002080548061197f577f4e487b7100000000000000000000000000000000000000000000000000000000600052603160045260246000fd5b600190038181906000526020600020016000905590556001600260008773ffffffffffffffffffffffffffffffffffffffff1673ffffffffffffffffffffffffffffffffffffffff16815260200190815260200160002060008282546119e59190612db8565b925050819055506004600084815260200190815260200160002060006101000a81549073ffffffffffffffffffffffffffffffffffffffff021916905550505b600660008373ffffffffffffffffffffffffffffffffffffffff1673ffffffffffffffffffffffffffffffffffffffff1681526020019081526020016000208190806001815401808255809150506001900390600052602060002001600090919091909150556001600260008473ffffffffffffffffffffffffffffffffffffffff1673ffffffffffffffffffffffffffffffffffffffff1681526020019081526020016000206000828254611adb9190612cd7565b92505081905550816003600083815260200190815260200160002060006101000a81548173ffffffffffffffffffffffffffffffffffffffff021916908373ffffffffffffffffffffffffffffffffffffffff160217905550808273ffffffffffffffffffffffffffffffffffffffff168473ffffffffffffffffffffffffffffffffffffffff167fddf252ad1be2c89b69c2b068fc378daa952ba7f163c4a11628f55a4df523b3ef60405160405180910390a4505050565b80600560008573ffffffffffffffffffffffffffffffffffffffff1673ffffffffffffffffffffffffffffffffffffffff16815260200190815260200160002060008473ffffffffffffffffffffffffffffffffffffffff1673ffffffffffffffffffffffffffffffffffffffff16815260200190815260200160002060006101000a81548160ff021916908315150217905550505050565b611c3884848461174c565b611c4484848484611e28565b611c4d57600080fd5b50505050565b6000806040518060a001604052808681526020014267ffffffffffffffff1681526020018863ffffffff1681526020018763ffffffff1681526020018561ffff1681525090506000600180549050905060018290806001815401808255809150506001900390600052602060002090600202016000909190919091506000820151816000015560208201518160010160006101000a81548167ffffffffffffffff021916908367ffffffffffffffff16021790555060408201518160010160086101000a81548163ffffffff021916908363ffffffff160217905550606082015181600101600c6101000a81548163ffffffff021916908363ffffffff16021790555060808201518160010160106101000a81548161ffff021916908361ffff16021790555050507f0a5311bd2a6608f08a180df2ee7c5946819a649b204b554bb8e39825b2c50ad584828a8a8a604051611db2959493929190612905565b60405180910390a1611dc66000858361174c565b809250505095945050505050565b6000806305f5e10084611de79190612d2d565b905060006305f5e10084611dfb9190612eeb565b90506000816305f5e10084611e109190612d5e565b611e1a9190612cd7565b905080935050505092915050565b6000611e3384611f42565b611e405760019050611f3a565b60008473ffffffffffffffffffffffffffffffffffffffff1663150b7a02338887876040518563ffffffff1660e01b8152600401611e8194939291906128b9565b602060405180830381600087803b158015611e9b57600080fd5b505af1158015611eaf573d6000803e3d6000fd5b505050506040513d601f19601f82011682018060405250810190611ed391906121fc565b90507f150b7a023d4804d13e8c85fb27262cb750cf6ba9f9dd3bb30d90f482ceeb4b1f7bffffffffffffffffffffffffffffffffffffffffffffffffffffffff1916817bffffffffffffffffffffffffffffffffffffffffffffffffffffffff1916149150505b949350505050565b600080823b905060008163ffffffff1611915050919050565b6000611f6e611f6984612c36565b612c05565b905082815260208101848484011115611f8657600080fd5b611f91848285612e60565b509392505050565b600081359050611fa881612fba565b92915050565b600081359050611fbd81612fd1565b92915050565b600081359050611fd281612fe8565b92915050565b600081519050611fe781612fe8565b92915050565b600082601f830112611ffe57600080fd5b813561200e848260208601611f5b565b91505092915050565b60008135905061202681612fff565b92915050565b60006020828403121561203e57600080fd5b600061204c84828501611f99565b91505092915050565b6000806040838503121561206857600080fd5b600061207685828601611f99565b925050602061208785828601611f99565b9150509250929050565b6000806000606084860312156120a657600080fd5b60006120b486828701611f99565b93505060206120c586828701611f99565b92505060406120d686828701612017565b9150509250925092565b600080600080608085870312156120f657600080fd5b600061210487828801611f99565b945050602061211587828801611f99565b935050604061212687828801612017565b925050606085013567ffffffffffffffff81111561214357600080fd5b61214f87828801611fed565b91505092959194509250565b6000806040838503121561216e57600080fd5b600061217c85828601611f99565b925050602061218d85828601611fae565b9150509250929050565b600080604083850312156121aa57600080fd5b60006121b885828601611f99565b92505060206121c985828601612017565b9150509250929050565b6000602082840312156121e557600080fd5b60006121f384828501611fc3565b91505092915050565b60006020828403121561220e57600080fd5b600061221c84828501611fd8565b91505092915050565b60006020828403121561223757600080fd5b600061224584828501612017565b91505092915050565b6000806040838503121561226157600080fd5b600061226f85828601612017565b925050602061228085828601612017565b9150509250929050565b60006122968383612880565b60208301905092915050565b6122ab81612dec565b82525050565b60006122bc82612c76565b6122c68185612ca4565b93506122d183612c66565b8060005b838110156123025781516122e9888261228a565b97506122f483612c97565b9250506001810190506122d5565b5085935050505092915050565b61231881612dfe565b82525050565b600061232982612c81565b6123338185612cb5565b9350612343818560208601612e6f565b61234c81612fa9565b840191505092915050565b600061236282612c8c565b61236c8185612cc6565b935061237c818560208601612e6f565b61238581612fa9565b840191505092915050565b600061239d601b83612cc6565b91507f47656e30206372656174696f6e206c696d6974206578636565647300000000006000830152602082019050919050565b60006123dd601a83612cc6565b91507f596f752063616e277420617070726f766520796f757273656c660000000000006000830152602082019050919050565b600061241d602c83612cc6565b91507f53656e646572206163636f756e7420646f65736e27742062656c6f6e6720746f60008301527f20746f6b656e206f776e657200000000000000000000000000000000000000006020830152604082019050919050565b6000612483602083612cc6565b91507f546f6b656e2077697468207468697320494420646f65736e27742065786973746000830152602082019050919050565b60006124c3602283612cc6565b91507f596f75277265206e6f7420746865206f776e6572206f66207468697320746f6b60008301527f656e0000000000000000000000000000000000000000000000000000000000006020830152604082019050919050565b6000612529602083612cc6565b91507f52656365697665722063616e206e6f74206265207a65726f20616464726573736000830152602082019050919050565b6000612569600d83612cc6565b91507f496e76616c696420746f6b656e000000000000000000000000000000000000006000830152602082019050919050565b60006125a9602683612cc6565b91507f44616420746f6b656e20646f6573206e6f742062656c6f6e6720746f2074686560008301527f206f776e657200000000000000000000000000000000000000000000000000006020830152604082019050919050565b600061260f602583612cc6565b91507f536f6d656f6e6520656c73652069732074616d706572696e672074686520617060008301527f70726f76650000000000000000000000000000000000000000000000000000006020830152604082019050919050565b6000612675601083612cc6565b91507f496e76616c696420746f6b656e204964000000000000000000000000000000006000830152602082019050919050565b60006126b5602983612cc6565b91507f526563656976657220616464726573732073686f756c64206e6f74206265206160008301527f64647265737328302900000000000000000000000000000000000000000000006020830152604082019050919050565b600061271b602883612cc6565b91507f556e617574686f72697a65642074616d706572696e672077697468207472616e60008301527f7366657246726f6d0000000000000000000000000000000000000000000000006020830152604082019050919050565b6000612781602683612cc6565b91507f4d756d20746f6b656e20646f6573206e6f742062656c6f6e6720746f2074686560008301527f206f776e657200000000000000000000000000000000000000000000000000006020830152604082019050919050565b60006127e7602983612cc6565b91507f596f752063616e2774207472616e7366657220746f6b656e20746f207468697360008301527f20636f6e747261637400000000000000000000000000000000000000000000006020830152604082019050919050565b600061284d601883612cc6565b91507f41636365737369626c6520746f206f776e6572206f6e6c7900000000000000006000830152602082019050919050565b61288981612e56565b82525050565b61289881612e56565b82525050565b60006020820190506128b360008301846122a2565b92915050565b60006080820190506128ce60008301876122a2565b6128db60208301866122a2565b6128e8604083018561288f565b81810360608301526128fa818461231e565b905095945050505050565b600060a08201905061291a60008301886122a2565b612927602083018761288f565b612934604083018661288f565b612941606083018561288f565b61294e608083018461288f565b9695505050505050565b6000602082019050818103600083015261297281846122b1565b905092915050565b600060208201905061298f600083018461230f565b92915050565b600060208201905081810360008301526129af8184612357565b905092915050565b600060208201905081810360008301526129d081612390565b9050919050565b600060208201905081810360008301526129f0816123d0565b9050919050565b60006020820190508181036000830152612a1081612410565b9050919050565b60006020820190508181036000830152612a3081612476565b9050919050565b60006020820190508181036000830152612a50816124b6565b9050919050565b60006020820190508181036000830152612a708161251c565b9050919050565b60006020820190508181036000830152612a908161255c565b9050919050565b60006020820190508181036000830152612ab08161259c565b9050919050565b60006020820190508181036000830152612ad081612602565b9050919050565b60006020820190508181036000830152612af081612668565b9050919050565b60006020820190508181036000830152612b10816126a8565b9050919050565b60006020820190508181036000830152612b308161270e565b9050919050565b60006020820190508181036000830152612b5081612774565b9050919050565b60006020820190508181036000830152612b70816127da565b9050919050565b60006020820190508181036000830152612b9081612840565b9050919050565b6000602082019050612bac600083018461288f565b92915050565b600060a082019050612bc7600083018861288f565b612bd4602083018761288f565b612be1604083018661288f565b612bee606083018561288f565b612bfb608083018461288f565b9695505050505050565b6000604051905081810181811067ffffffffffffffff82111715612c2c57612c2b612f7a565b5b8060405250919050565b600067ffffffffffffffff821115612c5157612c50612f7a565b5b601f19601f8301169050602081019050919050565b6000819050602082019050919050565b600081519050919050565b600081519050919050565b600081519050919050565b6000602082019050919050565b600082825260208201905092915050565b600082825260208201905092915050565b600082825260208201905092915050565b6000612ce282612e56565b9150612ced83612e56565b9250827fffffffffffffffffffffffffffffffffffffffffffffffffffffffffffffffff03821115612d2257612d21612f1c565b5b828201905092915050565b6000612d3882612e56565b9150612d4383612e56565b925082612d5357612d52612f4b565b5b828204905092915050565b6000612d6982612e56565b9150612d7483612e56565b9250817fffffffffffffffffffffffffffffffffffffffffffffffffffffffffffffffff0483118215151615612dad57612dac612f1c565b5b828202905092915050565b6000612dc382612e56565b9150612dce83612e56565b925082821015612de157612de0612f1c565b5b828203905092915050565b6000612df782612e36565b9050919050565b60008115159050919050565b60007fffffffff0000000000000000000000000000000000000000000000000000000082169050919050565b600073ffffffffffffffffffffffffffffffffffffffff82169050919050565b6000819050919050565b82818337600083830152505050565b60005b83811015612e8d578082015181840152602081019050612e72565b83811115612e9c576000848401525b50505050565b6000612ead82612e56565b91507fffffffffffffffffffffffffffffffffffffffffffffffffffffffffffffffff821415612ee057612edf612f1c565b5b600182019050919050565b6000612ef682612e56565b9150612f0183612e56565b925082612f1157612f10612f4b565b5b828206905092915050565b7f4e487b7100000000000000000000000000000000000000000000000000000000600052601160045260246000fd5b7f4e487b7100000000000000000000000000000000000000000000000000000000600052601260045260246000fd5b7f4e487b7100000000000000000000000000000000000000000000000000000000600052604160045260246000fd5b6000601f19601f8301169050919050565b612fc381612dec565b8114612fce57600080fd5b50565b612fda81612dfe565b8114612fe557600080fd5b50565b612ff181612e0a565b8114612ffc57600080fd5b50565b61300881612e56565b811461301357600080fd5b5056fea26469706673582212208252301afb59db0ecdbc47d8ea2523e454281e78b56f405c3bfbeebf488fa97564736f6c63430008000033",
  "immutableReferences": {},
  "source": "// SPDX-License-Identifier: UNLICENSED\r\npragma solidity >0.4.22 <=0.9.0;\r\nimport './IERC721.sol';\r\nimport './Ownable.sol';\r\nimport './IERC721Receiver.sol';\r\n\r\ncontract KittyContract is IERC721,Ownable{\r\n   string public constant _name = \"TanuKitties\";\r\n   string public constant _symbol = \"TKT\";\r\n   uint public constant CREATION_LIMIT_GEN0 = 20;\r\n   bytes4 internal constant MAGIC_ERC721_RECEIVED = bytes4(keccak256(\"onERC721Received(address,address,uint256,bytes)\"));\r\n   bytes4 private _INTERFACE_ID_ERC721 = 0x80ac58cd;\r\n   bytes4 private _INTERFACE_ID_ERC165 = 0x01ffc9a7;\r\n\r\n   event Birth(address owner, uint kittenId,uint mumId,uint dadId,uint genes);\r\n\r\n   struct Kitty{\r\n       uint256 genes;\r\n       uint64 birthTime;\r\n       uint32 mumId;\r\n       uint32 dadId;\r\n       uint16 generation;\r\n   }\r\n   Kitty[] kitties;\r\n\r\n   mapping(address => uint)private ownershipTokenCount; //token owner => #tokens\r\n   mapping(uint => address)public tokenOwner; // tokenId => tokenowner\r\n   mapping(uint => address) public kittyIndexToApproved;\r\n   mapping(address => mapping(address => bool))private _operatorApprovals;\r\n   mapping(address => uint[]) private ownerToKittyIds;\r\n   uint gen0Counter;\r\n   \r\n   modifier checkTransfer(address _from, address _to, uint256 _tokenId){\r\n      require(_tokenId < kitties.length,'Invalid token Id');\r\n      require(_to != address(0),\"Receiver address should not be address(0)\");\r\n      require(_from == tokenOwner[_tokenId],\"Sender account doesn't belong to token owner\");\r\n      require(msg.sender == _from || operates(msg.sender,_tokenId) || isApprovedForAll(_from,msg.sender),'Unauthorized tampering with transferFrom');\r\n      _;\r\n   }\r\n   \r\n   function supportsInterface(bytes4 _interfaceId) external view returns(bool){\r\n      return(_interfaceId == _INTERFACE_ID_ERC721 || _interfaceId == _INTERFACE_ID_ERC165);\r\n   }\r\n   \r\n   function getKittyIds(address _owner) public view returns(uint[] memory){\r\n      return ownerToKittyIds[_owner];\r\n   }\r\n\r\n   function getKitty(uint _tokenId) public virtual view returns(uint genes,\r\n                                                          uint birthTime,\r\n                                                          uint mumId,\r\n                                                          uint dadId,\r\n                                                          uint generation){\r\n      Kitty storage tempKitty = kitties[_tokenId];\r\n      genes = tempKitty.genes;\r\n      birthTime = tempKitty.birthTime;\r\n      mumId = tempKitty.mumId;\r\n      dadId = tempKitty.dadId;\r\n      generation = tempKitty.generation;\r\n   }\r\n\r\n   function createKittyGen0(uint _genes) public onlyOwner returns(uint){\r\n     require(gen0Counter < CREATION_LIMIT_GEN0,'Gen0 creation limit exceeds');\r\n     gen0Counter++;\r\n     return _createKitty(0,0,_genes,0,owner); \r\n   }\r\n\r\n   function _createKitty(uint _mumId,uint _dadId,uint _genes,uint _generation, address _owner) private returns(uint){\r\n     Kitty memory newKitty = Kitty({genes :_genes,\r\n                                    birthTime: uint64(block.timestamp),\r\n                                    mumId: uint32(_mumId),\r\n                                    dadId: uint32(_dadId),\r\n                                    generation: uint16(_generation)});\r\n     uint newID = kitties.length;\r\n     kitties.push(newKitty);\r\n     emit Birth(_owner,newID,_mumId,_dadId,_genes);\r\n     _transfer(address(0),_owner,newID);\r\n\r\n     return newID;\r\n   }\r\n   \r\n   function breed(uint _dadId, uint _mumId) public returns(uint){\r\n      require(owns(msg.sender,_dadId),'Dad token does not belong to the owner');\r\n      require(owns(msg.sender,_mumId),'Mum token does not belong to the owner');\r\n      Kitty memory dad = kitties[_dadId];\r\n      Kitty memory mum = kitties[_mumId];\r\n      uint babyDNA = _mixDNA(dad.genes,mum.genes);\r\n\r\n      uint babyGEN = 0;\r\n      if(_dadId > _mumId){\r\n         babyGEN = _dadId + 1;\r\n         babyGEN /= 2;\r\n      }\r\n      else if(_dadId < _mumId){\r\n         babyGEN = _mumId + 1;\r\n         babyGEN /= 2;\r\n      }\r\n      else{\r\n         babyGEN = _dadId + 1;\r\n      }\r\n\r\n      return _createKitty(_mumId,_dadId,babyDNA,babyGEN,msg.sender);\r\n   }\r\n   function _mixDNA(uint dadDNA,uint mumDNA) pure internal returns(uint){\r\n      uint firstHalf = dadDNA / 100000000;\r\n      uint secondHalf = mumDNA % 100000000;\r\n\r\n      uint newDNA = firstHalf * 100000000 + secondHalf;\r\n      return newDNA;\r\n   }\r\n\r\n   function balanceOf(address owner) public virtual view override returns (uint256 balance){\r\n       balance = ownershipTokenCount[owner];\r\n   }\r\n   \r\n   function totalSupply() public virtual view override returns (uint256 total){\r\n      total = kitties.length;\r\n   }\r\n\r\n   function name() public virtual pure override returns (string memory){\r\n      return _name;\r\n   }\r\n\r\n   function symbol() public virtual pure override returns (string memory tokenSymbol){\r\n       tokenSymbol = _symbol;\r\n   }\r\n\r\n   function ownerOf(uint256 tokenId) public virtual view override returns (address owner){\r\n      require(tokenOwner[tokenId] != address(0),\"Token with this ID doesn't exist\");\r\n      owner = tokenOwner[tokenId];\r\n   }\r\n   \r\n   function transfer(address to, uint256 tokenId) public virtual override{\r\n      require(to != address(0),\"Receiver can not be zero address\");\r\n      require(to != address(this),\"You can't transfer token to this contract\");\r\n      require(owns(msg.sender,tokenId),\"You're not the owner of this token\");\r\n      _transfer(msg.sender, to, tokenId);\r\n   }\r\n\r\n   function _transfer(address from, address to, uint tokenId) internal{\r\n       //from\r\n       if(from != address(0)){\r\n        uint len = ownerToKittyIds[from].length;\r\n        uint rowToDelete = 0;\r\n        for(uint i = 0 ; i < len ; i++){\r\n           if(i == tokenId){\r\n              rowToDelete = i;\r\n              break;\r\n           }\r\n        }\r\n        ownerToKittyIds[from][rowToDelete] = ownerToKittyIds[from][len-1];\r\n        ownerToKittyIds[from].pop();\r\n        ownershipTokenCount[from] -= 1;\r\n        delete kittyIndexToApproved[tokenId]; //nice point\r\n       }\r\n       \r\n       //to\r\n       ownerToKittyIds[to].push(tokenId);\r\n       ownershipTokenCount[to] += 1;\r\n       tokenOwner[tokenId] = to;\r\n\r\n       emit Transfer(from,to,tokenId);\r\n   }\r\n\r\n   function approve(address _approved, uint256 _tokenId) public virtual override{\r\n      require(owns(msg.sender,_tokenId) || operates(msg.sender,_tokenId),'Someone else is tampering the approve');\r\n      _approve(_approved,_tokenId);\r\n      emit Approval(msg.sender, _approved, _tokenId);\r\n   }\r\n\r\n   function _approve(address _approved, uint _tokenId)private{\r\n       kittyIndexToApproved[_tokenId] = _approved;\r\n   }\r\n\r\n   function setApprovalForAll(address _operator, bool _approved) public virtual override{\r\n      require(msg.sender != _operator,\"You can't approve yourself\");\r\n      _setApprovalForAll(msg.sender,_operator,_approved);\r\n      emit ApprovalForAll(msg.sender,_operator,_approved);\r\n   }\r\n   \r\n   function _setApprovalForAll(address _owner,address _operator,bool _approved)private{\r\n      _operatorApprovals[_owner][_operator] = _approved;\r\n   }\r\n\r\n   function getApproved(uint256 _tokenId) public virtual view override returns (address){\r\n       require(_tokenId < kitties.length,'Invalid token');\r\n       return kittyIndexToApproved[_tokenId];\r\n   }\r\n\r\n   function isApprovedForAll(address _owner, address _operator) public virtual view override returns (bool){\r\n     return _operatorApprovals[_owner][_operator];\r\n   }\r\n   \r\n   function transferFrom(address _from, address _to, uint256 _tokenId) public virtual override checkTransfer(_from,_to,_tokenId){\r\n      _transfer(_from,_to,_tokenId);\r\n   }\r\n\r\n   function safeTransferFrom(address _from, address _to, uint256 _tokenId) public virtual override {\r\n     safeTransferFrom(_from,_to,_tokenId,\"\");\r\n   }\r\n\r\n   function safeTransferFrom(address _from, address _to, uint256 _tokenId, bytes memory data) public virtual override checkTransfer(_from,_to,_tokenId){\r\n       _safeTransfer(_from,_to,_tokenId,data);\r\n   }\r\n\r\n   function _safeTransfer(address _from, address _to, uint _tokenId,bytes memory _data)  internal{\r\n        _transfer(_from, _to,_tokenId);\r\n        require(_checkERC721Support(_from,_to,_tokenId,_data));\r\n   }\r\n   function _checkERC721Support(address _from, address _to, uint _tokenId,bytes memory _data) internal returns(bool){\r\n      if(!isContract(_to)){\r\n         return true;\r\n      }\r\n      bytes4 returnData = IERC721Receiver(_to).onERC721Received(msg.sender,_from, _tokenId,_data);\r\n      return returnData == MAGIC_ERC721_RECEIVED;\r\n   }\r\n\r\n   function isContract(address _to)internal view returns(bool){\r\n      uint32 size;\r\n      assembly {\r\n         size := extcodesize(_to)\r\n      }\r\n      return (size > 0);\r\n   }\r\n\r\n   function owns(address claimant, uint tokenID)internal view returns(bool){\r\n      return (tokenOwner[tokenID] == claimant);\r\n   }\r\n\r\n   function operates(address _approved,uint _tokenId) internal view returns(bool){\r\n      return kittyIndexToApproved[_tokenId] == _approved;\r\n   }\r\n\r\n\r\n\r\n}",
  "sourcePath": "D:/BlockChain/Ethereum-201/CryptoKitties/academy-kitties-template/contracts/kittyContract.sol",
  "compiler": {
    "name": "solc",
    "version": "0.8.0+commit.c7dfd78e.Emscripten.clang"
  },
  "schemaVersion": "3.4.1",
  "updatedAt": "2021-08-14T07:42:52.512Z",
  "networkType": "ethereum",
  "devdoc": {
    "kind": "dev",
    "methods": {
      "approve(address,uint256)": {
        "details": "The zero address indicates there is no approved address.  Throws unless `msg.sender` is the current NFT owner, or an authorized  operator of the current owner.",
        "params": {
          "_approved": "The new approved NFT controller",
          "_tokenId": "The NFT to approve"
        }
      },
      "balanceOf(address)": {
        "details": "Returns the number of tokens in ``owner``'s account."
      },
      "getApproved(uint256)": {
        "details": "Throws if `_tokenId` is not a valid NFT.",
        "params": {
          "_tokenId": "The NFT to find the approved address for"
        },
        "returns": {
          "_0": "The approved address for this NFT, or the zero address if there is none"
        }
      },
      "isApprovedForAll(address,address)": {
        "params": {
          "_operator": "The address that acts on behalf of the owner",
          "_owner": "The address that owns the NFTs"
        },
        "returns": {
          "_0": "True if `_operator` is an approved operator for `_owner`, false otherwise"
        }
      },
      "ownerOf(uint256)": {
        "details": "Returns the owner of the `tokenId` token. Requirements: - `tokenId` must exist."
      },
      "safeTransferFrom(address,address,uint256)": {
        "details": "This works identically to the other function with an extra data parameter,  except this function just sets data to \"\".",
        "params": {
          "_from": "The current owner of the NFT",
          "_to": "The new owner",
          "_tokenId": "The NFT to transfer"
        }
      },
      "safeTransferFrom(address,address,uint256,bytes)": {
        "details": "Throws unless `msg.sender` is the current owner, an authorized  operator, or the approved address for this NFT. Throws if `_from` is  not the current owner. Throws if `_to` is the zero address. Throws if  `_tokenId` is not a valid NFT. When transfer is complete, this function  checks if `_to` is a smart contract (code size > 0). If so, it calls  `onERC721Received` on `_to` and throws if the return value is not  `bytes4(keccak256(\"onERC721Received(address,address,uint256,bytes)\"))`.",
        "params": {
          "_from": "The current owner of the NFT",
          "_to": "The new owner",
          "_tokenId": "The NFT to transfer",
          "data": "Additional data with no specified format, sent in call to `_to`"
        }
      },
      "setApprovalForAll(address,bool)": {
        "details": "Emits the ApprovalForAll event. The contract MUST allow  multiple operators per owner.",
        "params": {
          "_approved": "True if the operator is approved, false to revoke approval",
          "_operator": "Address to add to the set of authorized operators"
        }
      },
      "transferFrom(address,address,uint256)": {
        "details": "Throws unless `msg.sender` is the current owner, an authorized  operator, or the approved address for this NFT. Throws if `_from` is  not the current owner. Throws if `_to` is the zero address. Throws if  `_tokenId` is not a valid NFT.",
        "params": {
          "_from": "The current owner of the NFT",
          "_to": "The new owner",
          "_tokenId": "The NFT to transfer"
        }
      }
    },
    "version": 1
  },
  "userdoc": {
    "kind": "user",
    "methods": {
      "approve(address,uint256)": {
        "notice": "Change or reaffirm the approved address for an NFT"
      },
      "getApproved(uint256)": {
        "notice": "Get the approved address for a single NFT"
      },
      "isApprovedForAll(address,address)": {
        "notice": "Query if an address is an authorized operator for another address"
      },
      "safeTransferFrom(address,address,uint256)": {
        "notice": "Transfers the ownership of an NFT from one address to another address"
      },
      "safeTransferFrom(address,address,uint256,bytes)": {
        "notice": "Transfers the ownership of an NFT from one address to another address"
      },
      "setApprovalForAll(address,bool)": {
        "notice": "Enable or disable approval for a third party (\"operator\") to manage  all of `msg.sender`'s assets"
      },
      "transferFrom(address,address,uint256)": {
        "notice": "Transfer ownership of an NFT -- THE CALLER IS RESPONSIBLE  TO CONFIRM THAT `_to` IS CAPABLE OF RECEIVING NFTS OR ELSE  THEY MAY BE PERMANENTLY LOST"
      }
    },
    "version": 1
  }
}